:020000040800F2
:10000000885B0020A5020008634C000887430008B5
:10001000614C00083D100008C168000800000000A5
:10002000000000000000000000000000E1010008E6
:10003000E1140008000000003D02000831580008EB
:10004000BF020008BF020008BF020008BF0200088C
:10005000BF020008BF020008BF020008BF0200087C
:10006000BF020008BF020008BF020008BF0200086C
:10007000BF020008BF020008BF020008BF0200085C
:10008000BF020008BF020008BF020008BF0200084C
:10009000BF020008BF020008BF020008BF0200083C
:1000A000BF02000835590008BF020008BF0200085F
:1000B000415900084D59000859590008BF0200086D
:1000C000BF020008BF020008BF020008BF0200080C
:1000D000BF020008596800089D680008A968000868
:1000E000BF020008BF020008BF020008BF020008EC
:1000F000BF0200081D5A0008BF020008BF02000826
:10010000BF020008BF0200088D590008BF020008A6
:10011000FD600008BF020008BF020008B1590008D6
:10012000BF020008BF020008BF020008BF020008AB
:10013000BF020008BF020008BF020008BF0200089B
:10014000BF020008BF020008BF020008BF0200088B
:10015000BF020008BF020008BF020008B56800081F
:10016000BF020008BF020008BF020008BF0200086B
:10017000BF020008BF020008BF020008BF0200085B
:10018000BF020008BF020008F5610008BF020008B6
:10019000BF020008BF020008BF020008BF0200083B
:1001A000BF020008BF020008BF020008BF0200082B
:1001B000BF020008BF020008BF020008BF0200081B
:1001C000BF020008BF020008DFF810D000F092FB69
:1001D0000048004715780008AFF30080885B0020D6
:1001E0002D4B19680868B0E8F04F80F30988BFF319
:1001F0006F8F4FF0000080F31188704700000000FF
:1002000008480068006880F308884FF0000080F319
:10021000148862B661B6BFF34F8FBFF36F8F00DFF4
:1002200000BF00BF08ED00E0DFF80C00016841F4FA
:1002300070010160704700BF88ED00E0EFF30980B6
:10024000BFF36F8F144B1A681EF0100F08BF20ED1C
:10025000108A20E9F04F106009B44FF0500072B6D8
:1002600080F31188BFF34F8FBFF36F8F62B609F031
:1002700039FD4FF0000080F3118809BC1968086847
:10028000B0E8F04F1EF0100F08BFB0EC108A80F3FA
:100290000988BFF36F8F704710000020EFF30580CF
:1002A000704700000648804706480047FEE7FEE723
:1002B000FEE7FEE7FEE7FEE7FEE7FEE7FEE7FEE716
:1002C00025590008C90100082DE9F05F0546002006
:1002D00092469B4688460646814640241BE02846B7
:1002E00041464746224600F04EFA53465A46C01A47
:1002F000914110D311461846224600F035FA2D1AC6
:1003000067EB01084F4622460120002100F02CFA3D
:1003100017EB00094E41201EA4F10104DFDC484622
:1003200031462A464346BDE8F09F10B5431A934232
:1003300009D28318881803E010F8011D03F8011D85
:10034000521EF9D210BD40EA01039B0703D009E019
:1003500008C9121F08C0042AFAD203E011F8013BB1
:1003600000F8013B521EF9D210BDD2B201E000F8F4
:10037000012B491EFBD270470022F6E710B5134649
:100380000A4604461946FFF7F0FF204610BD2DE946
:10039000FE4F804681EA0300C00F0C46009021F01A
:1003A000004123F00045B8EB0200A94105D24046C8
:1003B000214690461C460B46024623F0004010435F
:1003C00047D0270DC7F30A00C3F30A510290401A21
:1003D000019040286BDAC3F3130040F4801B0098AF
:1003E000924620B10023D2EB030A63EB0B0B01987A
:1003F0005946C0F14002504600F0B6F906460D4697
:1004000050465946019A00F0CEF910EB08006141C0
:10041000002487EA115284EAE7731A4340D0009A15
:1004200062B3019A012A4FEA075215DC001B61EB07
:1004300002014FF0004202EA0752CDE90042001CDF
:1004400041F5801132462B4600F005FA03B0BDE8B5
:10045000F08F40462146F9E7001B61EB0201001CCA
:1004600041F5801300185B412018A2F5001747EBF7
:10047000030140EAD570B6196D4111E06D084FEAED
:10048000360645EAC0754FEA0752001B61EB0201D0
:10049000001C41F5801149084FEA30000019514114
:1004A00032462B4603B0BDE8F04F00F0C5B90098C6
:1004B000012240000023D0EB020263EBE0730098BE
:1004C00021464FEAE074B8EB000061EB0401E9E774
:1004D00083F000435BE781F0004158E72DE9FE4FD0
:1004E00081EA030404F0004421F0004100944FF03D
:1004F000000B23F0004350EA01045ED052EA0304EB
:100500005BD0C3F30A54C1F30A552C44A4F2F3346C
:100510000194A0FB0254C1F3130141F48011C3F311
:10052000130343F4801301FB024400FB034E840ACF
:10053000970A44EA815447EA8357A4FB0768029567
:100540008D0A05FB07854FEA932C04FB0C54270505
:10055000029D4FEA065847EA1637B5EB08056EEBE1
:10056000070C870E920E47EA811742EA8312A7FB17
:100570000201B6EB0B0164EB00042B0D43EA0C33D4
:100580005E1844EB1C50DA465146E7FB0201C5F306
:1005900013044FEA0B3343EA14534FEA0432019C2D
:1005A00043EA0603A4F10C040294009CCDE900B4D4
:1005B00000F051F903B0BDE8F08F00200146F9E7E3
:1005C0002DE9F04D81EA030404F0004B21F00045D1
:1005D00014464FF0000A23F0004150EA050220D0F3
:1005E00054EA01021DD0C5F30A570246C5F31303AE
:1005F000C1F31300C1F30A5640F4801543F480138D
:10060000A7EB0608101BD64608F2FD3873EB050071
:1006100002D308F1010801E092185B41B8F1000F24
:1006200003DA00200146BDE8F08D00204FF4801170
:10063000064684460EE0171B73EB050705D3121B15
:1006400063EB050306434CEA010C49084FEA30000E
:1006500092185B4150EA0107EDD152EA030012D033
:1006600082EA040083EA0501084305D0101BAB4170
:1006700006D20122002306E000224FF0004302E0F0
:100680006FF0010253101AEB06004CEB085110EB0F
:100690000A0041EB0B01BDE8F04D00F0CDB80EB5FE
:1006A000C10F80EAE0700844CA07002140F23343DA
:1006B0008DE80E000A460B4600F0CDF803B000BDF1
:1006C0000EB540F2334102910021CDE900110A46F6
:1006D0000B4600F0C0F803B000BD00F0004230F05F
:1006E00000400AD0C10D01F56071C0F3160042EA66
:1006F0000151C2084007114370470020014670476E
:1007000030B5041E71F1000404DB4FF00044404298
:1007100064EB0101141E73F1000405DB1C464FF06D
:100720000043524263EB0403994208BF904230BD3C
:1007300001F0004330B421F0004150EA010206D03C
:100740000A0DA2F56072C1F31301002A02DC30BC6D
:1007500000207047440F44EAC104C100E01830BCD7
:1007600000EBC25000F031B8202A04DB203A00FA36
:1007700002F1002070479140C2F1200320FA03F3F8
:10078000194390407047202A04DB203A21FA02F0F6
:100790000021704721FA02F3D040C2F120029140BB
:1007A000084319467047202A06DBCB17203A41FA46
:1007B00002F043EAE07306E041FA02F3D040C2F1EE
:1007C000200291400843194670470029A8BF70478E
:1007D000401C490008BF20F00100704710B4B0FA77
:1007E00080FC00FA0CF050EA010404BF10BC704712
:1007F00049B1CCF1200421FA04F411FA0CF118BF2C
:10080000012121430843A3EB0C01CB1D4FEA0061FA
:100810004FEA102042BF002010BC704700EBC350CD
:1008200010440029A4BF10BC7047401C490008BFF9
:1008300020F0010010BC704710B5141E73F10004C5
:1008400008DA401C41F1000192185B411A4301D1C2
:1008500020F0010010BD2DE9F04D92469B4611B1EC
:10086000B1FA81F202E0B0FA80F220329046FFF74E
:100870007BFF04460F4640EA0A0041EA0B0153465B
:100880005A46084313D0114653EA010019D0C8F163
:1008900040025046FFF777FF05460E465046594640
:1008A0004246FFF761FF084305D0012004E02046DF
:1008B0003946BDE8F08D0020054346EAE0762C433A
:1008C00037430A986305E40AA0EB08000022FD0AFA
:1008D00044EA47540A3002D500200146E9E7010501
:1008E00010196941DDE9084500196941BDE8F04D7D
:1008F000A2E70000064C074D06E0E06840F0010367
:1009000094E8070098471034AC42F6D3FFF760FC38
:1009100034A3000854A3000870B58C1810F8015BCC
:1009200015F0070301D110F8013B2A1106D110F888
:10093000012B03E010F8016B01F8016B5B1EF9D18C
:100940002B0705D40023521E0DD401F8013BFAE712
:1009500010F8013BCB1A921C03E013F8015B01F87D
:10096000015B521EF9D5A142D8D3002070BD000012
:10097000044830EE601A30EE200A80ED001A80ED57
:10098000010A7047C40D00202DE9F041094E0024F2
:100990004FF48077054609E0012009F097F83946C1
:1009A000304601F009F90028F6D0641CAC42F6D3B9
:1009B000BDE8F081000C02402DE9F043584C2DEDCC
:1009C000068B87B09FED570ADFED578A594894EDA3
:1009D000079A84ED030ADFF854810088544EC0F36F
:1009E000C110032815D098ED020A00BF042086ED3F
:1009F000010A07F0F1FA50491C226846FFF795FCFE
:100A00009FED4E0A4C484FF081474D4D80ED000A56
:100A100005E006F0D9FCE9E7022009F057F8A868DC
:100A2000B842F9DD02E0022009F050F8A868B842A7
:100A3000F9DC9FED448A444FDFF81091B0EE00AA34
:100A4000F0EE089A84ED038A2EE000BF06F0AEFEB9
:100A5000B878012801D1F87818B1F878012805D0C4
:100A600006E006F0B1FC30EE0A0A2DE0B87838B3A3
:100A700006F0AAFC86ED010A06F0CAF9787840B3C0
:100A8000387858B306F0A0FC86ED010A06F0C0F9EC
:100A900094ED070A2E4984ED038A30EE490A10EEE0
:100AA000100A022009F012F8A9684945CED3294E50
:100AB000A868B0424FF0020019D909F007F8F7E72B
:100AC00006F082FC30EE4A0A86ED010A06F0AEF925
:100AD000D4E706F079FC30EE290A03E006F074FC56
:100AE00030EE690A86ED010A06F0A0F9D0E707F0BA
:100AF00073FAC4ED078AC4ED068A002188F8141041
:100B000098F800101C220C4841F0040188F80010ED
:100B10006946FFF70AFC07B0BDEC068BBDE8F08321
:100B2000C40D002000009643000000003457002050
:100B3000F00D002060570020D05100209A99994074
:100B40009C5600200000FA43160200200000A0C1BD
:100B500000004843000030C12DE9F0436A491C22DF
:100B60002DED048B87B0B0EE408A6846FFF7DDFBC1
:100B7000664C0420F3EE048AC4ED038A07F02CFAD5
:100B8000634D01E006F052F9287A0228FAD901E013
:100B900006F03EF9287A0A28FAD200F051FA4FF40A
:100BA000FA7000F0D3FE28685A4E10F4C07F6CD162
:100BB000DFF854919FED589A584F10F03F0F4FF0C7
:100BC000804800F47C402CD0002007F005FA84ED2A
:100BD000019A84ED009A94ED070ABDEEC00A00BFA9
:100BE000B8EEC01AD4ED070A71EE600A10EE900A52
:100BF000B842F5DB00F024FAB2EE0E0A05F056FA20
:100C00004FEA080706F0E0FBD6ED000A30EEC00A16
:100C1000B0EEC00A10EE100AB842F3DCB1EE080ADA
:100C20002CE090B3002007F0D7F984ED019A84ED11
:100C3000009A94ED070ABDEEC00A00BFB8EEC01AD4
:100C4000D4ED070A71EE600A10EE900AB842F5DBA7
:100C500000F0F6F9BAEE0E0A05F028FA4FEA080796
:100C600006F0B2FBD6ED000A30EEC00AB0EEC00AC4
:100C700010EE100AB842F3DCB0EE080A89ED000A63
:100C80000420C4ED038A07F0A7F99FED250A04208C
:100C900084ED030A07F0A0F9224F2349B86888427F
:100CA000FDDB19481C226946FFF73FFB062006F0D2
:100CB00064F8022084ED028A07F08EF9A8461B4DE5
:100CC0000DE000BF98F808000A2808D306F07CFB66
:100CD00086ED010A042084ED038A07F07DF9B868E7
:100CE000A842EFDC12498842FDDB022007F074F9CC
:100CF00084ED028A0F49B8688842FDDA07B0BDEC7E
:100D0000048BBDE8F0830000D0510020C40D00200A
:100D100060570020F00D0020000096C30000B04195
:100D2000000020429C5600200000A0410000A0408E
:100D30000000704100002041F0B573491C222DEDE8
:100D4000048B87B06846FFF7F0FA704C6E48B3EE3C
:100D5000090AF2EE0E0A9FED6E1A80ED000AC0ED50
:100D6000020AF3EE041A84ED021A0220C4ED081AF6
:100D700007F032F9674D6849A8688842FDD39FEDB6
:100D8000679AB3EE020A84ED080A84ED029A4FF4E2
:100D90009670FFF7F9FD00F053F9614E95ED000AEA
:100DA000D6ED020A07F054F8002094ED078A07F008
:100DB00013F9DFED5C8A4FF08241C4ED018AC4ED86
:100DC000008A00BF94ED070A38EE400A10EE100AC0
:100DD0008842F7DB00F034F9B0EE498A84ED048AEA
:100DE00004F0F6F9052005F0C8FF642006F032F99A
:100DF000032005F0C2FF9FED4C0A05F057F94B4D5B
:100E00004FF0804706F0E0FAD5ED000A30EEC00A58
:100E1000B0EEC00A10EE100AB842F3DC307906F0EA
:100E20001DF8E8B3012005F0A8FF322006F012F902
:100E30009FED3F9AB0EE490A05F038F93D4F00BFEB
:100E400006F0C2FAD5ED000A30EEC00AB0EEC00AD4
:100E500010EE100AB842F3DCB0EE490A05F026F9AC
:100E600006F0B2FAD5ED000A30EEC00AB0EEC00AC4
:100E700010EE100AB842F3DC9FED2F0A05F016F9C8
:100E80004FF07E5706F0A0FAD5ED000A30EEC00A0A
:100E9000B0EEC00A10EE100AB842F3DC022000E007
:100EA00004E005F06AFF322006F0D4F89FED230A33
:100EB00084ED040A06F0D4FD642006F0CBF800208F
:100EC00007F08AF8C4ED018AC4ED008A4FF4FA7085
:100ED00000F03CFD00F0B4F806F076FA85ED010A6A
:100EE000B0EE480AFFF738FE07481C226946FFF7B4
:100EF0001CFA00203075307840F00400307007B0E4
:100F0000BDEC048BF0BD000098510020C40D002002
:100F100000008C429C560020000088C100007042F6
:100F200034570020000096C300003343F00D00202A
:100F300000000243000020410000F0420000A042F7
:100F400030B587B006F040FA1E481C221E4980EDDD
:100F5000010A6846FFF7E9F91E489FED1C0ADFED1C
:100F60001C0A80ED020A1848C0ED000A022007F0B2
:100F700033F8194C4FF0804502E0022008F0A6FD3E
:100F8000A068A842F9DC154DA068A84207D202204B
:100F900008F09CFDF8E7022008F098FD00E0104DF5
:100FA000A068A842F7D808481C226946FFF7BDF997
:100FB0000C4800210175017841F00401017007B06F
:100FC00030BD0000F00D0020985100200000C84303
:100FD00000004842C40D00209C560020000090C133
:100FE000000030C13457002010B5114C02202DED07
:100FF000028BB0EE408A9FED0F0A84ED020A06F0E4
:10100000EBFF94ED070A00BFD4ED070A70EEC00AAB
:10101000F4EEC80AF1EE10FAF6D307480021017584
:10102000017841F004010170BDEC028B10BD00009D
:10103000C40D00200000204234570020FEE70000CD
:10104000002010B506F0C8FF04489FED030A80EDAC
:10105000010A80ED000A10BD00000000C40D002050
:101060002DE9F04FFE4DFF4C2DED048B81B09FED2F
:10107000FE8ADFF8F8B30127297805F1070A04F1A1
:101080001800009069B99AF800102F70207906F0C6
:10109000BDF900EB8001009814220BEB8101FFF7F2
:1010A00044F9EF4E4FF00009DFF8C483761EF3EEEB
:1010B000098A3078012802D0002877D0A9E00220E0
:1010C00006F08AFFA089FFF7FBFA9FEDEA1B53ECBD
:1010D000112BFFF703FA98ED070A41EC190BB0EE5C
:1010E000C00A10EE100AFFF7F8FA53EC192BFFF7BD
:1010F00007FB57D886F80090E08880050CD5DF48BC
:101100000088C0F3C110032806D1DD48D4ED020ADF
:1011100090ED000A06F09CFE06F056F9D4ED070AA1
:1011200006F0A0FEB0EEC00A10EE100AD5498842C3
:101130000CDDD4ED070A94ED020A06F093FEB0EE42
:10114000C00A10EE100ACF4988420ADCB3EE040A46
:1011500088ED080A404600BF94ED040A80ED020ABB
:1011600057E0C8ED088AE088400503D59FEDC60A20
:1011700088ED020A2069FFF7B0FA9FEDC41B53EC1B
:10118000112BFFF7ABF99FEDC31B53EC112BFFF7AE
:10119000B7FA03D29FEDC10A02E007E094ED040A1A
:1011A0004046DBE7C8ED088A4046D5E7207D06F0DB
:1011B000E7FB05F07FFEB8B1B94880ED008A2078E2
:1011C00040F00400207005F031FE2079132802D190
:1011D000322005F03FFF20791A280AD05FF0640022
:1011E00005F038FF05F014FEAE480078012802D063
:1011F0000FE0C820F4E705F019FEA94880ED008A49
:10120000207840F00400207005F002FEA54981F826
:1012100000902078410776D520F004019048217095
:101220002978801D085CFF286ED006F0CDF8D4ED3B
:10123000070A06F017FEB0EEC00A10EE100A914938
:10124000884244DBD4ED070A94ED020A06F00AFE58
:10125000B0EEC00A10EE100A8A49884237DBE088F7
:10126000400535D5217998ED078A2C2905D02D29FF
:1012700003D00BE0022008F029FC98ED070A8A4908
:1012800030EE480A10EE100A8842F3DB874894EDEE
:10129000070A80ED000A032006F09EFE4FF080480A
:1012A00002E0022008F012FC06F08EF8D4ED070AE6
:1012B00030EEC00AB0EEC00A10EE100A4045F0DC75
:1012C000FFF7BEFE142008F001FC06F0C9FB84E025
:1012D00006F07AF8D4ED070A06F0C4FDB0EEC00AB5
:1012E00010EE100A724988424EDA012006F074FEB0
:1012F00006F06AF8D4ED070A06F0B4FDB0EE408AB5
:101300004FF0814837E090E087E000BF06F05CF8DE
:10131000D4ED070A06F0A6FDB0EE408A06F054F8B8
:10132000D4ED070A06F09EFDB0EEC00A10EE100ADA
:10133000FFF7D3F99FED5F1B53EC112BFFF7CBF8B1
:101340009FED5E1B53EC112BFFF7C8F89FED5D1B63
:1013500053EC112BFFF734F9FFF7EAF9F2EE0C0A20
:1013600000EE100A68EE200AFFF702FB022008F0E8
:10137000ADFB05F05BFDB0EEC80A10EE100A40456B
:10138000C4DC05F045FD28E098ED078A02E0022064
:1013900008F09CFB98ED070A4C4930EE480A10EE25
:1013A000100A8842F3DB414894ED070A80ED000AF9
:1013B000032006F011FE4FF0804802E0022008F002
:1013C00085FB06F001F8D4ED070A30EEC00AB0EE56
:1013D000C00A10EE100A4045F0DC0220377006F01B
:1013E000FBFD00991422201DFEF79FFF2978084677
:1013F000401C1AF801102870207906F007F800EB5D
:101400008001009814220BEB8101FEF78EFF244926
:1014100081F8049005F08CFF07E088ED028AFFF761
:101420000FFE37706878401C68702078800652D5AF
:10143000377029780846401C1AF801102870207966
:1014400005F0E4FF00EB8001009814220BEB810112
:10145000FEF76BFF0E2084F82800207838E00000AB
:101460002502002034570020000000002004002046
:10147000C40D0020666666666666E63F605700201B
:101480009C5600200000204100004843000000005E
:101490000000E03F0000000000407F4000002F44BB
:1014A000BC0D00201C0200200000C040F00D0020F8
:1014B0000000704200000000008066400000000054
:1014C00000C07240000000000080764000007041C3
:1014D00020F02000207001B0BDEC048BBDE8F08F3F
:1014E0007047000070B5C1493D22C148FEF71DFF9D
:1014F000BE4D0C21BF4EBE4C95F83D00B21584F890
:101500003D0095F83E0084F83E0095F83F0084F8D1
:101510003F0095F8400084F8400095F8410084F8B9
:10152000410095F8420084F8420095F8430084F8A1
:10153000430095F8440084F8440095F8450084F889
:10154000450095F8460084F8460095F8470084F871
:10155000470095F8480084F848002046E664C4E94E
:101560001421403402F052F86069403C00287CD0DD
:1015700004287BD008282068016A78D021F4204113
:1015800001622068016A01623D22994897495C30F6
:10159000FEF7CBFE964C082195F83D205C3488017F
:1015A00084F83D2095F83E2084F83E2095F83F20B1
:1015B00084F83F2095F8402084F8402095F8412099
:1015C00084F8412095F8422084F8422095F8432081
:1015D00084F8432095F8442084F8442095F8452069
:1015E00084F8452095F8462084F8462095F8472051
:1015F00084F8472095F8482084F84820E664C4E938
:1016000014012046403402F001F86069403C002893
:101610007ED004287DD008282068016A7AD021F481
:10162000204101622068016A01623D2270486F49D1
:10163000B830FEF77AFE6E4C00216F4E95F83D00F3
:10164000B834022284F83D0095F83E0084F83E004C
:1016500095F83F0084F83F0095F8400084F840007A
:1016600095F8410084F8410002E087E08BE08FE0CC
:1016700095F8420084F8420095F8430084F843004E
:1016800095F8440084F8440095F8450084F8450036
:1016900095F8460084F8460095F8470084F847001E
:1016A00095F8480084F848002046E664C4E914210F
:1016B000403401F0ABFF6069403C00287BD0042837
:1016C0007ED008282068016A6CD021F42041016294
:1016D0002068016A01623D2244494848FEF725FE20
:1016E000464C042195F83D20012084F83D2095F8D2
:1016F0003E2084F83E2095F83F2084F83F2095F85E
:10170000402084F8402095F8412084F8412002E0F0
:1017100041E048E04CE095F8422084F8422095F8FA
:10172000432084F8432095F8442084F8442095F819
:10173000452084F8452095F8462084F8462095F801
:10174000472084F8472095F8482084F84820E6642C
:10175000C4E914012046403401F058FF6069403C60
:1017600098B304283AD008282068016A3BD021F4B5
:10177000204101622068016A016270BD2068016A2F
:1017800021F00A01FCE62068016A21F0A001F7E6D9
:1017900021F42061F4E62068016A21F00A0140E7A3
:1017A00009E00DE012E02068016A21F0A00138E7AD
:1017B00021F4206135E72068016A21F00A0186E7FB
:1017C0002068016A21F0A00181E702E021F4206194
:1017D0007DE72068016A21F00A01CAE72068016AF2
:1017E00021F0A001C5E721F42061C2E7E410002048
:1017F000145500200004024000100240285600202A
:1018000072B6FEE710B51B4919482DED028BB0EEFC
:10181000408A91ED010A184980ED020A91ED000A13
:10182000164980ED060A06F049FC10EE100A14492C
:10183000DFED140A884202DBB0EE600A06E010EE2B
:10184000100A1149884201D39FED100AB0EEC81A60
:101850000F48C1EE201A21EE800A78EE400A38EED9
:10186000000AC0ED000A80ED010ABDEC028B10BD3C
:10187000EC51002060570020BC0D00209851002042
:101880000000484200004842000048C2000048C230
:10189000C40D00202DE9F041876D044600F09EF94B
:1018A000064694F835000025022806D080206065A1
:1018B000012084F83450BDE8F0812068016821F0EF
:1018C000160101602068416921F080014161206CAE
:1018D00008B9A06C20B12068016821F008010160FE
:1018E0002068016821F0010101600CE000F076F948
:1018F000801B052807D920216165032084F8350065
:1019000084F83450D7E720680068C007EED194F817
:101910005C203F2001219040B86084F83510002001
:1019200084F83450C7E790F83510022903D080219D
:10193000416501207047052180F835100068016875
:1019400021F00101016000207047000070B50446DD
:1019500000F044F90546601C02D0044800780444B5
:1019600000F03CF9401BA042FAD370BD00000020FB
:101970002DE9F84FDFF80CB2012403254FF00F0AD0
:1019800000220BF1040E00BF0B6804FA02F633408C
:10199000B34278D10F7907F00307012F01D0022F4E
:1019A0001AD187684FEA4209D1F80CC005FA09F844
:1019B00027EA08070CFA09FC4CEA070CC0F808C033
:1019C000476891F804C0B743CCF3001C0CFA02FC42
:1019D0004CEA070CC0F804C00E79F643B6070BD0EA
:1019E000C6684FEA420C8F6805FA0CF826EA08062A
:1019F00007FA0CF73743C7600E7906F00306022E8C
:101A000012D1D6084FEA427800EB860600960F699D
:101A1000D6F820904FEAD8660AFA06FCB74029EAC1
:101A20000C063743009E37620F7906684FEA420C76
:101A300007F0030705FA0CF807FA0CF726EA080680
:101A4000374307604E6816F4403F1CD04E4E37684F
:101A500047F480473760366822F00308970706F49A
:101A600080460096494E3F0F4644B146D6F8086876
:101A7000DFF81C810AFA07FC404526EA0C0603D170
:101A80004FF0000C41E076E0DFF808C1604502D17C
:101A90004FF0010C39E0DFF800C1604502D14FF092
:101AA000020C32E0DFF8F4C0604502D14FF0030CC5
:101AB0002BE0DFF8ECC0604502D14FF0040C24E0CD
:101AC000DFF8E0C0604502D14FF0050C1DE0DFF803
:101AD000D8C0604502D14FF0060C16E0DFF8CCC04C
:101AE000604502D14FF0070C0FE0DFF8C4C060453D
:101AF00002D14FF0080C08E0DFF8B8C0604502D111
:101B00004FF0090C01E04FF00A0C0CFA07FC4CEA0C
:101B1000060CC9F808C84F68DBF80060FF0226EA27
:101B2000030600D51E437746CBF80060D1F804C009
:101B3000DEF800605FEA8C2C26EA030600D51E431F
:101B4000DFF840C03E60ACF1040C4F68DCF8006088
:101B5000BF0326EA030600D51E430A4FCCF80060F7
:101B6000083FD1F804C03E685FEACC3C26EA030691
:101B700000D51E433E60521C102AFFF405AFBDE89D
:101B8000F88F0000083C014044380240003001401A
:101B9000000002400004024000080240000C024025
:101BA000001002400014024000180240001C0240D5
:101BB00000200240002402400069084000D00120BB
:101BC0007047426921EA02030A4043EA0241816107
:101BD00070470AB1816170470904FBE701488068DA
:101BE000704700000000002002488168027811441C
:101BF0008160704700000020032010B500F08CF8D1
:101C00000F2000F005F800F03DF8002010BD0000A6
:101C100010B5002201462D2088B000F05DF82D207F
:101C200000F04CF81348016841F4807101600068CD
:101C300005A900F480700690684600F0CBFB00F028
:101C4000E9FB0D49400000220C4CB0FBF1F10C48BF
:101C500040F2E7330460C0E90332491EC0E90112D3
:101C600000F090FE10B1012008B010BD044800F053
:101C700033FFF9E74038024040420F0000200040A7
:101C8000401300200C4882B0016841F0805101608F
:101C9000006800F0805000900748001D016841F482
:101CA00080410160006800220F2100F48040009014
:101CB000901E02B000F010B840380240002809DB46
:101CC000410900F01F028900012001F1E02190404C
:101CD000C1F80001704700000E4BF0B41B680D46C0
:101CE000C3F30223C3F10706042E00D90426191DED
:101CF000072901D2002300E0DB1E012404FA06F1CB
:101D00009C40491E2940641E994014402143F0BC68
:101D100004F0E8BD0CED00E0064900F0070210B544
:101D20004FF6FF040868044B204040EA02201843A5
:101D3000086010BD0CED00E00000FA051848F8B589
:101D4000016841F0805101600068164C00F080503D
:101D50000090206840F480302060FFF73FFF4FF490
:101D60007A76054605E000BFFFF738FF401BB0421A
:101D70000FD86068C003F7D5206840F400302060B9
:101D8000FFF72CFF054606E0FFF728FF401BB04297
:101D900001D90320F8BD60688003F5D50020F8BDA7
:101DA00040380240007000402DE9F84F04460078AA
:101DB000DFF824944FF000063746C0070ED0D9F85C
:101DC000001021F40001C9F80010D9F80010626B6E
:101DD0001143C9F80010606B00B90126FE4D206860
:101DE000843500030ED5E16B286820F440100843C9
:101DF0002860E06BB0F5801F01D010B102E0012631
:101E000000E0012720684FF4800BC0020CD5216C44
:101E1000286820F4400008432860206C584501D110
:101E2000012601E000B901272068C10100D5012683
:101E3000800666D5E8483830016841F0805101607D
:101E40000068DFF898A300F080500090DAF80010E6
:101E500041F48071CAF80010FFF7C0FE804605E02B
:101E6000FFF7BCFEA0EB080064287DD8DAF800007C
:101E7000C005F5D5DFF8608308F16808D8F80000E0
:101E800010F440702AD0218E01F44071814225D097
:101E9000D8F80010D8F8002021F4407142F48032C4
:101EA000C8F80020D8F8002022F48032C8F80020BA
:101EB000C8F80010D8F80000C0070FD0FFF78EFE5A
:101EC000824607E0FFF78AFEA0EB0A0141F2883064
:101ED0008142CAD8D8F800008007F3D5206BC0F340
:101EE000012103297ED0D9F8001021F4F811C9F896
:101EF0000010228ED8F80010C2F30B021143C8F86C
:101F000000102078C00607D5286820F0807028606F
:101F10002868A16B084328602188AF4888304904AD
:101F200005D5626E016821F44031114301602188BA
:101F3000090405D5A26E016821F440211143016016
:101F40002168C90305D5E26E016821F440111143EF
:101F500001602168890305D5226F016821F44001E1
:101F600011430160217800E016E1490605D5626C55
:101F7000016821F00301114301602178090605D5AC
:101F8000A26C016821F00C01114301602188C90590
:101F900005D5E26C016821F0300111430160218810
:101FA000890505D5226D016821F0C001114301604A
:101FB0002188490505D5626D016821F440711143FE
:101FC00001602188090505D5A26D016821F44061F1
:101FD000114301602188C90407D5E26D016821F42D
:101FE000405100E04AE0114301602188890405D591
:101FF000226E016821F440411143016021684902C9
:1020000005D5A26F016821F080611143016021684C
:102010004FF0006A890209D5E26F016821F0006182
:1020200011430160E16F514500D1012721680A0782
:1020300000D50127490305D5626F016821F0407181
:10204000114301602168090206D5D4F88020016897
:1020500021F0805111430160DFF88491012E02D0FC
:10206000206880017ED5D9F800004E4620F08060BF
:10207000C9F80000FFF7B2FD80460FE0594AD9F8D1
:102080000030104023F4F8120243C9F8002030E772
:10209000FFF7A4FDA0EB080064287DD8306800019C
:1020A000F6D421784C487C30C90712D0616B81B9D5
:1020B000237A62680168D0F800C09201C1F301413F
:1020C00042EA0142CCF3036142EA016141EA037151
:1020D000016021680A0303D5E26BB2F5801F04D0CA
:1020E000C9021AD5216C594517D16368016894F863
:1020F0000CC002689B01C1F3014143EA0141C2F3F4
:10210000027241EA0C6141EA027101602968626A67
:1021100021F01F01521E114329602168C90110D509
:10212000238A62680168D0F800C09201C1F303619C
:1021300042EA034242EA0162CCF3027142EA0171CF
:102140000160216889010CD56168228A237B94F89B
:1021500008C0890141EA024141EA036141EA0C7188
:10216000016000E011E03168B04641F0806131600B
:10217000FFF734FD064604E0FFF730FD801B6428BE
:102180000AD8D8F800000001F6D56FB3D9F80000DE
:102190004E4620F0805000E07BE0C9F80000FFF7D9
:1021A0001DFD074605E000BFFFF718FDC01B6428B2
:1021B0006FD83068C0438000F6D50748216880306A
:1021C0000A0301D5E26B1AB1C90225D5216C19BBEE
:1021D00063690168277E08E008380240007000400B
:1021E00000380240FFFCFF0F5AE00268C1F30141D2
:1021F0009B0143EA0143C2F3027143EA076242EAE8
:102200000171016029686FF0FF03A26A21F4F8519F
:1022100003EB0222114329602168890212D5E16F84
:1022200051450FD1238C6269016807689201C1F39F
:10223000036142EA034242EA0162C7F3027142EAE1
:10224000017101602178090716D561690268D0F82B
:1022500000C08B01277FC2F30362CCF3014143EA44
:10226000014141EA026141EA077101602868E16ABF
:1022700020F4403008432860306840F080503060DF
:10228000FFF7ACFC044607E0FFF7A8FC001B64283E
:1022900002D90320BDE8F88F3068C0438000F3D432
:1022A0000020F7E72DE9F04705000F4663D0444EC4
:1022B000306800F00F00B84209D2306820F00F00FB
:1022C00038433060306800F00F00B84253D12868BE
:1022D0003C4C810712D5400703D5206840F4E050FC
:1022E00020602878000703D5206840F46040206013
:1022F000A968206820F0F000084320602878C00713
:102300002AD0304968680839012810D009680228A5
:1023100010D0890700292EDA216821F0030101433A
:102320002160FFF75BFC804641F288390DE00968C7
:102330008903EFE78901EDE7FFF750FCA0EB080107
:10234000494502D90320BDE8F0876868216801F09B
:102350000C01B1EB800FEFD1306800F00F00B842F4
:102360000BD9306820F00F0038433060306800F03F
:102370000F00B84201D00120E5E72878400705D5D5
:10238000E968206820F4E0500843206028780007BE
:1023900006D52869216821F4604141EAC000206027
:1023A00000F058F82168084AC1F30311515CC84095
:1023B0000649086006480068FFF72AFC0020C2E7CB
:1023C000003C02400838024078A100080C000020C0
:1023D000040000200D4A0F2330B503604FF4E05491
:1023E0000B4B156805F003054560156805F0F00511
:1023F0008560156805F4E055C560126804EAD202EC
:102400000261186800F00F00086030BD0838024013
:10241000003C02400449054809680068044AC1F3C9
:102420008221515CC8407047083802400C000020EF
:1024300088A100080449054809680068044AC1F3F6
:102440004231515CC8407047083802400C000020FF
:1024500088A10008154910B51548096811F00C024B
:1024600013D04110042A0FD0082A0ED10F4C241F7C
:102470002268236802F03F025B0207D52068C0F3A0
:102480008810A0FB010106E0084610BD2168C1F3D9
:102490008811A1FB00010023FDF716FF2168C1F39D
:1024A0000141491C4900B0FBF1F010BD0838024061
:1024B0000024F4002DE9F84F04004FF000076ED01F
:1024C0002078DFF868A3AAF10408C007A8F1040582
:1024D0004CD0DAF800105046C1F38101012908D030
:1024E0000068C0F3810002280AD1D8F80000400239
:1024F00006D52868800339D560680028DFD035E02C
:102500006068B0F5803F0BD010B1B0F5A02F11D0AE
:10251000286820F480302860286820F4802002E0B9
:10252000286840F480302860606890B1FFF756FB5F
:1025300006460AE0286840F480202860F0E700BFE3
:10254000FFF74CFB801B642872D828688003F7D5FE
:102550000CE0FFF743FB064605E000BFFFF73EFB3C
:10256000801B6428F0D828688003F7D4207880077F
:1025700042D5DAF80010504611F00C0F08D0006870
:10258000C0F3810002280BD1D8F80000400207D424
:102590002868800718D5E068012800D114E041E1DF
:1025A000E0680028286817D040F001002860FFF795
:1025B00015FB064605E000BFFFF710FB801B022855
:1025C000C2D828688007F7D52069296821F0F8016A
:1025D00041EAC00028600FE020F001002860FFF70A
:1025E000FDFA064605E000BFFFF7F8FA801B022857
:1025F0001ED828688007F7D42078000729D58B4893
:1026000061696C3000298146016812D041F00101F6
:102610000160FFF7E3FA064605E000BFFFF7DEFAC8
:10262000801B022804D8D9F800008007F6D510E0F6
:1026300089E021F001010160FFF7D0FA064604E0CD
:10264000FFF7CCFA801B02287DD8D9F8000080075C
:10265000F6D4207840076BD5DFF8D09109F138091E
:10266000D9F80000C0000BD4D9F8001041F0805117
:10267000C9F80010D9F80000012700F08050009040
:102680006B480168C90512D40168834641F4807122
:102690000160FFF7A3FA064605E000BFFFF79EFAC8
:1026A000801B64284FD8DBF80000C005F6D55F4ECC
:1026B000A068683601280AD008B1052811D0306812
:1026C00020F001003060306820F0040002E0306843
:1026D00040F001003060A068A0B1FFF77FFA8346A8
:1026E0000CE0306840F004003060F0E7FFF776FA65
:1026F000A0EB0B0141F28830814266D83068800738
:10270000F4D50EE0FFF76AFA834607E0FFF766FAB2
:10271000A0EB0B0141F28830814256D83068800727
:10272000F4D42FB1D9F8001021F08051C9F800106D
:10273000A069C8B3DAF80010C1F3810102294BD0B7
:102740000228286800E040E020F08070286003D074
:10275000FFF744FA04463BE0FFF740FA064604E080
:10276000FFF73CFA801B02282FD828688001F7D495
:10277000D4E90962D4E907012E4B570894F82C20BC
:10278000084303EB074343EA8611084340EA02602B
:1027900040F00050C8F80000286840F080702860C1
:1027A000FFF71CFA044606E03EE000BFFFF716FA0A
:1027B000001B022809D828688001F7D534E000BF43
:1027C000FFF70CFA001B022802D90320BDE8F88F9E
:1027D00028688001F4D427E00128D8F8000021D02F
:1027E000E16900F480028A421CD1216A00F03F02B4
:1027F0008A4217D1626A47F6C0710140B1EB821F6D
:1028000010D1A16A4FF0FF3200F4403302EB5101C6
:10281000B3EB014F06D194F82C1000F07060B0EBD0
:10282000016F01D00120D1E70020CFE70838024036
:10283000007000400000FFFF7047704770470000C5
:102840002DE9F04390F83C20012A42D0012280F883
:102850003C2051F80C4BDFF880804FF0000991E8E4
:10286000680051E9022723F44073B1F80CC03B43E0
:10287000CF6923F480631343026823F40063234386
:1028800023F4805343EA050323F4005343EA060389
:1028900023F4804343EA07030C3923F470234245B1
:1028A00043EA0C4302D00D4CA2420CD18D8C23F490
:1028B0007006D1E9073446EA055121F080711943C9
:1028C00021F000732343536480F83C900020BDE85E
:1028D000F0830220FBE700000000014000040140FB
:1028E000F0B590F83C20012A3BD01F4E012480F81F
:1028F0003C40022280F83D2002681C4D5368B242E1
:10290000D2F808C001D0AA4203D14F6823F4700363
:102910003B430F6823F070031F4357600268B242C5
:1029200013D0B2F1804F10D0114B9A420DD0114B01
:102930009A420AD0104B9A4207D0AA4205D00F4BB8
:102940009A4202D00E4B9A4204D189682CF080033F
:1029500019439160002180F83D4080F83C10084602
:10296000F0BD0220F0BD0000000001400004014065
:102970000004004000080040000C004000400140FE
:102980000018004010B5040003D094F83D0010B1C9
:1029900007E0012010BD002084F83C00204600F034
:1029A00023F8022084F83D002068211D03F03CF844
:1029B000012084F8480084F83E0084F83F0084F841
:1029C000400084F8410084F8420084F8430084F811
:1029D000440084F8450084F8460084F8470084F8F1
:1029E0003D00002010BD000030B587B00446142122
:1029F0006846FDF7C1FC3248216881420FD1314859
:102A0000016841F00101016000680022052100F029
:102A1000010005901920FFF75FF919204BE02A48C3
:102A2000B1F1804F39D0294A914246D1016841F035
:102A300002010160006800F0020005902248103891
:102A4000016841F001010160016801F00101059197
:102A5000016841F002010160006802240025694616
:102A600000F002000590C0200494CDE9000418484D
:102A7000CDE90245FEF77CFF03206946CDE900045D
:102A80001448CDE902450494FEF772FF00220521A7
:102A90001D20FFF721F91D200DE0016841F0010123
:102AA000016000680022052100F0010005901C2053
:102AB000FFF712F91C20FFF701F907B030BD000045
:102AC0000000014044380240403802400004004009
:102AD000000002400004024090F83D10012901D09E
:102AE00001207047174A022180F83D100168CB6829
:102AF00043F00103CB600068904214D0B0F1804FE6
:102B000011D0114988420ED0104988420BD010498B
:102B1000884208D00F49884205D00F49884202D028
:102B20000E49884207D181680D4A1140062906D016
:102B3000B1F5803F03D0016841F001010160002040
:102B40007047000000000140000400400008004001
:102B5000000C00400004014000400140001800400B
:102B60000700010070B5044690F83C0000250128DC
:102B700017D0334B012684F83C60022084F83D00D6
:102B800022689068184020F47F40906008685028C0
:102B900038D00DDC20284FD005DC90B3102811D19F
:102BA0004AE0022070BD302846D040280AD13BE0E0
:102BB00060282FD070280DD0B0F5805F03D0B0F51D
:102BC000005F12D0012584F83D60002084F83C00AD
:102BD000284670BD4A682068D1E9021302F097FFC9
:102BE0002068816841F0770109E04A682068D1E9EE
:102BF000021302F08CFF2068816841F480418160FB
:102C0000E1E719E0CA684968206803F0C7F820685E
:102C1000502106E0CA684968206803F011F920686D
:102C2000602102F07DFFCEE7CA684968206803F0A2
:102C3000B5F820684021F4E7226801461046F0E725
:102C400088FFFEFF2DE9F05F8346007FDFF8F8A3E1
:102C50000828FE4E4FF00107A6F13004A6F16008E7
:102C6000A6F1400904F1400556D10AF110020021F5
:102C700004F1C0001170A2F1140102680B78416DDB
:102C80001BB3012B7ED1126CE0380260E03000F003
:102C90005FFD04F1C000B0F85010C06C89B2FEF7BF
:102CA0008BFF0AF1040108709AF8001081426AD083
:102CB000A4F12001D8F80000096881424BD24FF6F8
:102CC000FF72101A401C084446E0D2F840C0C8F811
:102CD00000C011B3042924D00829116A25D021F499
:102CE00020411162416D19B3042926D008290168D9
:102CF0000A6A27D042F400520A62D349091F0F70B2
:102D0000B0F85010C06C89B2FEF756FF8AF8000088
:102D1000D8B1CE482038076092E0116A21F00A014C
:102D2000DFE7116A21F0A001DBE721F42061D8E799
:102D300001680A6A42F00202DEE701680A6A42F0AC
:102D40002002D9E742F40072D6E7C0494FF0FF30C5
:102D50002039086074E0081ABB4A206008321078F5
:102D600058B30020C9F80000B8481C22291D1030B3
:102D7000FDF7DBFA2068E8615FF0000055F82020DD
:102D8000401C01E0FAE040E02168C0B2082811448C
:102D90002160F3D3C908C9F80010AC4840F6B83236
:102DA0001038A0F1100103680968194401609142CC
:102DB00022DB32680021521C25E0DFF88CC2236838
:102DC0000CF10C0C9CF80000411CC9B245F82030F5
:102DD00008298CF80010E0D15FF00000216855F858
:102DE0002030401CC0B2082819442160F6D3C9081D
:102DF000C9F800101770D0E740F6B832D14204DCB1
:102E000032680021521E3260016000208E49091F85
:102E100008708E489030416D00F0F8FB8B48903080
:102E2000416D91B1042917D000680829016A18D0B2
:102E300021F420410162854890300068016A0162F6
:102E40009BF81C0004280FD006E1804890300068F1
:102E5000016A21F00A01EDE70068016A21F0A00192
:102E6000E8E721F42061E5E778480021764AEC3074
:102E700010325170A2F11401497839B301297DD182
:102E80000068C16B71485038416000F59E70416D1B
:102E900000F05EFC6D48EC30B0F85010C06C89B2A8
:102EA000FEF78AFE6849091D48709AF801108142B0
:102EB00065D06649D8F804005039496881424CD23F
:102EC0004FF6FF72101A401C084447E00168CB6BB4
:102ED000C8F80430426D12B3042A24D0082A0A6AC2
:102EE00025D022F420420A62416D19B3042926D06C
:102EF000082901680A6A27D042F400520A6252493E
:102F0000091F4F70B0F85010C06C89B2FEF754FE24
:102F10008AF80100D8B14D48203847609CE00A6A21
:102F200022F00A02DFE70A6A22F0A002DBE722F4BD
:102F30002062D8E701680A6A42F00202DEE701680F
:102F40000A6A42F02002D9E742F40072D6E73F490C
:102F50004FF0FF30203948607EE0081ADFF8E8C003
:102F600060600CF1080C9CF8010070B33749002038
:102F70001C22C9F804003431081F01E008E14CE0CC
:102F8000FDF7D3F96068E8635FF0000005EB8001AE
:102F9000401CC0B20A6A0828616811446160F5D318
:102FA000C908C9F80410294840F6B8321038A0F111
:102FB00010014368496819444160914224DB7268FA
:102FC0000021521C7260416027E0FFE71E4A6368DF
:102FD0000C325078014605EB8000491CC9B20362EF
:102FE00008295170DFD1002005EB8001401CC0B2E0
:102FF0000A6A0828616811446160F5D3C908C9F8F4
:1030000004108CF80170CEE740F6B832D14204DCEF
:1030100071680022491E7160426000200A49091F40
:1030200048700A48EC30416D00F0F0FA0748EC3087
:10303000416DB1B104291AD000680829016A1BD07A
:1030400021F42041016203E0E801002084540020C3
:10305000FE480068016A01629BF81C0001280ED03E
:10306000FDE0FA480068016A21F00A01EAE7006819
:10307000016A21F0A001E5E721F42061E2E7F348CD
:10308000F34A5C3000219170A2F11401897829B3D0
:1030900001297DD10068416BEE48816000F5CC705C
:1030A000416D00F055FBE9485C30B0F85010C06C41
:1030B00089B2FEF781FDE6490C3988709AF8021052
:1030C000814266D0E348D8F80810806888424CD224
:1030D0004FF6FF72511A491C084447E001684B6BD8
:1030E000C8F80830426D12B3042A24D0082A0A6AAC
:1030F00025D022F420420A62416D19B3042926D05A
:10310000082901680A6A27D042F400520A62D049AD
:1031100014398F70B0F85010C06C89B2FEF74CFDB6
:103120008AF80200D8B1CB483030876097E00A6A4D
:1031300022F00A02DFE70A6A22F0A002DBE722F4AB
:103140002062D8E701680A6A42F00202DEE70168FD
:103150000A6A42F02002D9E742F40072D6E7BD497C
:103160004FF0FF303031886079E0401ADFF8E0C27C
:10317000A060ACF1080C9CF8020060B3B3490020D9
:103180001C22C9F808009839081FFDF7CEF801E0A5
:10319000D4E049E0A068E8655FF0000005EB80013D
:1031A000401CC0B20A6C0828A1681144A160F5D384
:1031B000C908C9F80810A74840F6B8324030A0F155
:1031C00010018368896819448160914222DBB268EA
:1031D0000021521C26E09E4AA368121F90780146E7
:1031E00005EB8000491CC9B2036408299170E2D143
:1031F0005FF0000005EB8001401CC0B20A6C08289B
:10320000A1681144A160F5D3C908C9F808108CF869
:103210000270D0E7026840F6B831CA4204DCB268F6
:103220000021521EB26081600020894914398870E3
:1032300086485C30416D00F0E9F984485C30416DAE
:10324000E9B304294AD000680829016A4BD021F467
:10325000204101627D485C300068016A01629BF890
:103260001C0002286AD17A4A4FF0000B7748A2F17D
:103270001401B83082F803B0C97871B301295DD167
:103280000068816B7348C16000F5FA70416D00F011
:103290005FFA6E48B830B0F85010C06C89B2FEF7D3
:1032A0008BFC6B490C39C8709AF8031081427DD0B1
:1032B0006849D8F80C00C96881425FD200E005E097
:1032C0004FF6FF72101A401C084458E05F485C300B
:1032D0000068016A21F00A01BBE707E00068016AA3
:1032E00021F0A001B5E721F42061B2E701688B6B02
:1032F000C8F80C30426D1AB3042A25D0082A0A6A8D
:1033000026D022F420420A62416D21B3042927D03D
:10331000082901680A6A28D042F400520A624C491E
:103320001439CF70B0F85010C06C89B2FEF744FC6D
:103330008AF80300E0B147483030C760BDE8F09F2D
:103340000A6A22F00A02DEE70A6A22F0A002DAE73D
:1033500022F42062D7E701680A6A42F00202DDE740
:1033600001680A6A42F02002D8E742F40072D5E709
:1033700038494FF0FF303031C860DFE7081A344970
:10338000E0600839C87840B330491C224F46C9F87C
:103390000CB07839081FFCF7C8FFE068E867002028
:1033A00005EB8001401CC0B2096E00E03EE0E2681F
:1033B00008281144E160F3D3C808F860254840F6B6
:1033C000B8324030A0F11001C368C9681944C16027
:1033D000914222DBF268521C25E01D4AE368121F6D
:1033E000D07800F1010805EB800C08F0FF000828F8
:1033F000CCF86030D070E1D15FF0000005EB8002C6
:10340000401CC0B2136E0828E2681A44E260F5D38B
:10341000D208C9F80C20CF70D0E740F6B832D142BC
:1034200004DCF268521EF260C0F80CB00849074C88
:103430001439B834204681F803B0616D00F0E6F825
:10344000606D98B1042816D0082805E0705500205A
:10345000F8010020345400202068016A10D021F4C3
:10346000204101622068016A016267E72068016A01
:1034700021F00A01F5E72068016A21F0A001F0E7D8
:1034800021F42061EDE72DE9F041054690F83C007C
:1034900000260C46012810D0012085F83C0072B1AE
:1034A000042A1CD0082A2CD00C2A51D00126002036
:1034B00085F83C003046BDE8F0810220FBE7E36878
:1034C0002868D4E9001202F07BFC2868816921F0A9
:1034D0000C01816128688169A26811430FE0E368EB
:1034E0002868D4E9001202F0BDFC2868816921F443
:1034F0004061816128688169A26841EA0221816195
:10350000D5E7D4E900232868217B076A4FF4206CB3
:10351000090727F4807707620CEA0222C769D0F80E
:1035200020C027F003071F432CF4206C27F0F00382
:1035300042EA0C0243EA1161C16102622868C16972
:1035400021F00C01C1612868A268C169114329E01A
:103550002868D4E90032E168076A4FF6FF7C4FF42F
:10356000204E27F4805707620CEA0131C769D0F872
:1035700020C00EEA033327F4407747EA02222CF4F6
:10358000204C22F470421143C16143EA0C030362F0
:103590002868C16921F44061C1612868A168C269D5
:1035A00042EA0121C16182E710B5040003D094F81A
:1035B0003D0010B107E0012010BD002084F83C0060
:1035C000204600F022F8022084F83D002068211DEA
:1035D00002F02AFA012084F8480084F83E0084F8BA
:1035E0003F0084F8400084F8410084F8420084F8E9
:1035F000430084F8440084F8450084F8460084F8C9
:10360000470084F83D00002010BD704730B50446E7
:103610004FF0000579B1042912D0082915D00C29E2
:1036200018D0102919D094F8430000BF94F847200F
:10363000012817D114E094F83E0094F84420F7E7ED
:1036400094F83F0094F84520F2E794F8400094F88D
:103650004620EDE794F84100E8E794F84200E5E7FA
:10366000012A01D0012030BD4FF0020079B10429B8
:1036700016D008291DD00C294FD0102950D084F81D
:1036800043000C2984F847004DD0012543E084F81D
:103690003E0084F844002068C26842F0020210E054
:1036A00084F83F0084F845002068C26842F00402B4
:1036B00007E084F8400084F846002068C26842F0C1
:1036C0000802C2602068012202F014FA184920683A
:1036D000884214D0B0F1804F11D0164988420ED0E4
:1036E000154988420BD01549884208D014498842B0
:1036F00005D01449884202D01349884207D1816815
:10370000124A1140062906D0B1F5803F03D0016866
:1037100041F001010160284630BD84F84100B0E766
:1037200084F84200ADE72068C26842F01002C8E7A2
:10373000000001400004004000080040000C004070
:103740000004014000400140001800400700010053
:1037500070B50D0004464FF0000607D0042D0AD0C6
:10376000082D0DD00C2D10D0012635E02068C16841
:1037700021F002010DE02068C16821F0040108E099
:103780002068C16821F0080103E02068C16821F0C9
:103790001001C16020680022294602F0ABF92068C0
:1037A00041F21112016A114207D1016A92101142CD
:1037B00003D1016821F0010101604FF001006DB1FA
:1037C000042D10D0082D13D00C2D16D0102D17D08D
:1037D00084F8430084F84700304670BD84F83E000A
:1037E00084F84400F8E784F83F0084F84500F3E7E4
:1037F00084F8400084F84600EEE784F84100E9E7E9
:1038000084F84200E6E770B50446006800250169C7
:10381000C943890715D4C168C943890711D4EA1E71
:10382000026101212177206880698007204602D04B
:10383000FFF708FA04E000F0E7F8204600F0A9F9E5
:10384000257720680169C943490717D4C168C9436E
:10385000490713D402216FF0040202612177206826
:10386000806910F4407F204602D0FFF7EBF904E0B6
:1038700000F0CAF8204600F08CF92577206801692D
:10388000C943090716D4C168C943090712D40421E2
:103890006FF00802026121772068C0698007204626
:1038A00002D0FFF7CFF904E000F0AEF8204600F0B8
:1038B00070F9257720680169C943C90617D4C16822
:1038C000C943C90613D408216FF0100202612177A1
:1038D0002068C06910F4407F204602D0FFF7B2F99B
:1038E00004E000F091F8204600F053F925772068B5
:1038F0000169C943C90708D1C168C943C90704D1CF
:10390000891E0161204600F055FA20680169C9430B
:10391000090609D4C168C943090605D46FF08001BE
:1039200001612046FEF789FF20680169C943C90586
:1039300009D4C168C943090605D46FF480710161D7
:103940002046FEF779FF20680169C943490609D47A
:10395000C168C943490605D46FF0400101612046A2
:1039600000F032FA20680169C94389060BD4C168A6
:10397000C943890607D46FF0200101612046BDE8E4
:103980007040FEF75BBF70BD30B587B004461421B0
:103990006846FCF7F1FC24680021184D0220164A05
:1039A0000123AC4211D1146844F010041460126871
:1039B00002F0100205924FF4D4420092CDE90101C9
:1039C000CDE903130E48694612E0B4F1804F11D1DE
:1039D000146844F001041460126802F001020592B8
:1039E0000F220092CDE90101CDE903130548694694
:1039F000FDF7BEFF07B030BD303802400000014087
:103A00000010024000000240704770B5044690F874
:103A10003C0000260D4601280BD0012084F83C0014
:103A20000C2A4AD007DC82B1042A20D0082A06D109
:103A300031E0022070BD102A53D0142A63D0012631
:103A4000002084F83C00304670BD206802F070F819
:103A50002068816941F0080181612068816921F055
:103A60000401816120682A698169114311E020689D
:103A700002F098F82068816941F400618161206852
:103A8000816921F48061816120682969826942EA43
:103A900001218161D4E7206802F0C0F82068C16983
:103AA00041F00801C1612068C16921F00401C161D0
:103AB00020682A69C169114311E0206802F0EAF820
:103AC0002068C16941F40061C1612068C16921F4C5
:103AD0008061C16120682969C26942EA0121C1612E
:103AE000AEE7206802F002F92068416D41F008015C
:103AF00041652068416D21F00401416520682A6913
:103B0000416D114311E0206802F01CF92068416DFD
:103B100041F4006141652068416D21F48061416597
:103B200020682969426D42EA0121416588E710B5A4
:103B3000040003D094F83D0010B107E0012010BD4F
:103B4000002084F83C00204600F022F8022084F88F
:103B50003D002068211D01F067FF012084F8480026
:103B600084F83E0084F83F0084F8400084F8410067
:103B700084F8420084F8430084F8440084F8450047
:103B800084F8460084F8470084F83D00002010BD0A
:103B90007047704710B504464FF0020269B104291E
:103BA00012D0082917D00C291CD0102921D094F844
:103BB0004300012824D0012010BD94F83E000128C4
:103BC000F9D184F83E201DE094F83F000128F2D19D
:103BD00084F83F2016E094F840000128EBD184F8E7
:103BE00040200FE094F841000128E4D184F84120FE
:103BF00008E094F842000128DDD184F8422001E079
:103C000084F843200122206801F074FF17492068DE
:103C1000174A884201D0904203D1436C43F40043D9
:103C200043642068884213D0B0F1804F10D011490E
:103C300088420DD0104988420AD01049884207D0E6
:103C4000904205D00E49884202D00E49884207D1E1
:103C500081680D4A1140062906D0B1F5803F03D096
:103C6000016841F001010160002010BD0000014029
:103C7000000401400004004000080040000C004027
:103C800000400140001800400700010030B5044624
:103C90004FF002024FF0000569B1042916D008293F
:103CA00053D00C295CD0102961D094F8430001282E
:103CB00064D0012030BD94F83E000128F9D184F889
:103CC0003E202068C26842F0020209E094F83F00FA
:103CD0000128EED184F83F202068C26842F0040237
:103CE000C2602068012201F005FF2A4920682A4AA3
:103CF000884201D0904203D1436C43F400434364B3
:103D00002068884213D0B0F1804F10D023498842F8
:103D10000DD0234988420AD02249884207D09042D8
:103D200005D02149884202D02049884207D18168C4
:103D30001F4A1140062906D0B1F5803F03D0016823
:103D400041F001010160284630BD94F8400001288F
:103D5000AFD184F840202068C26842F00802BFE773
:103D600094F841000128A4D184F8412008E094F897
:103D7000420001289DD184F8422003E084F84320CA
:103D80000C2901D00125DEE72068C26842F010024C
:103D9000A6E70000000001400004014000040040CC
:103DA00000080040000C00400040014000180040A6
:103DB0000700010000680349884201D1FDF714BFE4
:103DC0007047000000200040704770477047014670
:103DD000806FC96F084370472DE9F04102680446BF
:103DE000002540F60F06D06911689368304205D16E
:103DF00083067DD58B067BD5616E11E1944F03F070
:103E000001060F40374373D0C70709D0CF0507D548
:103E100001271762D4F8802042F00102C4F8802004
:103E200082070AD5DA0708D0276802223A62D4F856
:103E3000802042F00402C4F8802042070AD5DA0745
:103E400008D0236804221A62D4F8802042F00202CB
:103E5000C4F8802002070CD501F02002324308D0BC
:103E6000236808221A62D4F8802042F00802C4F8BD
:103E7000802002050BD54A0109D523684FF4006262
:103E80001A62D4F8802042F02002C4F88020D4F8CE
:103E90008020002A36D0800605D5880603D5616EBD
:103EA00009B1204688472168D4F88000896849060E
:103EB00002D410F0280F27D0204602F02FFA2068F5
:103EC000806840061BD52068083050E8001F21F0AC
:103ED000400140E80012002AF5D1206F78B15D4919
:103EE0000165206FFDF71FFD00280BD0206F00E05B
:103EF00010E0016D00E02046BDE8F0410847204693
:103F0000FFF764FFBDE8F0812046FFF75FFFC4F8CC
:103F10008050F7E7266E2023012E7CD1C6067AD585
:103F2000CE0678D51020106220688068400641D502
:103F3000216F086840680004000CE3D0B4F85820F2
:103F40008242DFD9A4F85A00C869B0F5807F2AD030
:103F5000206850E8001F21F4807140E80012002A18
:103F6000F6D12068083050E8001F21F0010140E838
:103F70000012002AF5D12068083050E8001F21F017
:103F8000400140E80012002AF5D1E3672566216868
:103F900051E8000F20F0100041E80002002AF6D19D
:103FA000206FFDF777FCB4F85800B4F85A10401AA7
:103FB00081B22BE0B4F85800B4F85A10B4F85A2083
:103FC000401A81B2002A9DD000299BD0226852E875
:103FD000000F20F4907042E80006002EF6D1206811
:103FE00000F1080050E8002F22F0010240E800260E
:103FF000002EF4D1E36725666566206850E8002F3F
:1040000022F0100240E80023002BF6D12046FFF7F3
:10401000DCFE77E7FFE7020606D50A0604D5A16EA7
:1040200000297FF468AF6DE74006F2D54806F0D569
:104030002046016851E8002F22F0400241E80024A8
:10404000002CF6D18367856600F09CF95AE70000E2
:10405000200100040963000810B5040002D0A06F1D
:1040600010B107E0012010BD002084F87400204644
:1040700000F026F82420A0672068016821F00101E3
:104080000160204602F00EFA0128ECD0606A10B1FF
:10409000204602F0B5F82068416821F49041416063
:1040A0002068816821F02A0181602068016841F060
:1040B000010101602046BDE8104002F005B9000092
:1040C0002DE9F04786B0044614216846FCF754F900
:1040D0007849002324680220774E1039754A032559
:1040E000DFF8D8A10827B4424FF4406920D1146802
:1040F00044F400241460126802F4002205920A6855
:1041000042F004020A60096801ACCDF8009001F0A9
:104110000401CDE9047184E8290069465046FDF7A1
:1041200027FC00220A213420FDF7D6FD342023E0AD
:10413000634EB44225D1146844F080441460126880
:1041400002F0804205920A6842F010020A60096893
:1041500002AC01F0100105914FF4C071CDE90010DF
:1041600084E8A80057486946FDF702FC00220521B3
:104170005220FDF7B1FD5220FDF7A0FD06B0BDE8CD
:10418000F0874C4EDFF840C1361D64454FF0070CF8
:1041900021D1326842F010023260326802F010021F
:1041A00005920A6842F001020A60096802AA01F059
:1041B000010105914FF4C061CDE9001082E828109B
:1041C00042486946FDF7D4FB002205212520FDF772
:1041D00083FD2520D0E7DFF8F880444520D114681E
:1041E00044F400341460126802F4003205920A6844
:1041F00042F008020A60096802AC01F0080105916A
:104200006021CDE9001084E8281032486946FDF7A6
:10421000AFFB002205212620FDF75EFD2620ABE73F
:10422000DFF8B480444520D1146844F4802414603D
:10423000126802F4802205920A6842F002020A60C3
:10424000096801ACCDF8009001F00201CDE904C18C
:1042500084E8290021486946FDF78AFB00220521F0
:104260002720FDF739FD272086E71D4A944285D196
:10427000326842F020023260326802F02002059279
:104280000A6842F004020A60096802AA01F0040107
:104290000591C021CDE9001082E8A800694650468A
:1042A000FDF766FB002205214720FDF715FD47209D
:1042B00062E7000040380240004C00400008024025
:1042C0000078004000100240001001400000024051
:1042D00000440040000C024000480040000402403E
:1042E0000014014030B4C36F202B1DD1C9B1C2B13D
:1042F00090F87430012B17D0012480F8744000230B
:10430000036603685B681B0208D5046854E8003F35
:1043100043F0806344E80035002DF6D130BC02F054
:10432000D9B9012030BC70470220FBE730B50068E6
:10433000114988420CD1114841880A0408D4024628
:104340004FF000034C04127806D50A2A01D04380AE
:1043500030BD41F400410DE00D2A09D0084DC1F3F4
:104360000D04491C89B2C7292A554180EFD830BDB8
:1043700041F48041418030BD001001408C0000209C
:104380008C5200207047FEE770B5114D4FF48054F9
:10439000002221462846FDF71CFC012000F066FEA5
:1043A000002228466100FDF714FC022002F060FEA6
:1043B000012221462846FDF70CFC022002F058FE9F
:1043C00021462846BDE870400022FDF702BC0000EF
:1043D000000C0240114810B586B0016841F0080198
:1043E0000160006802220E4C4FF4405100F00800BA
:1043F00005900120CDE90202CDE900106946204672
:10440000FDF7B6FA012220465103FDF7E2FB012237
:1044100020461103FDF7DDFB06B010BD3038024029
:10442000000C024070B5114D4FF48054002221461B
:104430002846FDF7CEFB012000F018FE0122284699
:104440005103FDF7C6FB022002F012FE01222146B5
:104450002846FDF7BEFB022002F00AFE2146284650
:10446000BDE870400022FDF7B4BB0000000C024024
:104470002DE9F04700248046204600F0F7FD174F55
:1044800000254FF480564FF400593146002238463B
:10449000FDF79FFB022002F0EBFD0122314638467A
:1044A000FDF797FB60064946040E3846FDF784FB8E
:1044B00008B1641CE4B2012002F0DAFD6D1CEDB21B
:1044C000082DE2D3B8F1000F04D0FFF75DFF2046BE
:1044D000BDE8F087FFF7A6FFF9E70000000C0240F7
:1044E0002DE9F0410546012000F0C0FD174F4FF4C3
:1044F0008056002231463846FDF76BFB00244FF40E
:104500000058280601D5012200E000224146384625
:10451000FDF75FFB6806050E022002F0A9FD0122EF
:1045200031463846FDF755FB022002F0A1FD00227E
:1045300031463846FDF74DFB022002F099FD641C20
:10454000E4B2082CDDD3BDE8F0810000000C02408D
:1045500070B5012000F08AFD01220F4D540328465A
:104560002146FDF736FB0122284616033146FDF7AA
:1045700030FB042002F07CFD002221462846FDF796
:1045800028FB042002F074FD31462846BDE8704047
:104590000022FDF71EBB0000000C024070B5012098
:1045A00000F064FD0F4D4FF4805400222146284650
:1045B000FDF70FFB6600284600223146FDF709FB98
:1045C000042002F055FD012221462846FDF701FB9B
:1045D000012231462846FDF7FCFABDE87040042070
:1045E00002F046BD000C02402DE9F04100242046B7
:1045F00000F03CFD0122144D560328463146FDF7DC
:10460000E8FA012002F034FD01222846170339465A
:10461000FDF7DFFA012002F02BFD08E0641CE4B294
:10462000FA2C04D9FFF7BAFF0120BDE8F08131462A
:104630002846FDF7C1FA0028F0D100223946284665
:10464000FDF7C7FA0020F0E7000C02402DE9F04327
:104650009FED4E0A00264FF0010935463346344699
:1046600015E000BFD0F800C009FA04F81CEA080FF2
:104670000BD004F1010805F1010509FA08F71CEA5D
:10468000070FEDB201D1761CF6B2641CE4B28C4285
:10469000E8D346723E4E05723E4CF688F70422D5AA
:1046A00000221DE007688E1A04EB820CA6F10108B7
:1046B000B9469CED001A27FA08F707F0010C00EE46
:1046C00090CA6344FF07F8EE600A5BB200EE810A0D
:1046D00004D0B61E29FA06F7FE0744D0521CD2B207
:1046E0008A42DFD33FE0B60421D500221CE00668F1
:1046F000A1EB020C04EB8C08374626FA02FC0CF006
:10470000010600EE906A18ED011A3344F8EE600AD3
:104710005FEACC7C5BB200EE810A03D0561CF74006
:10472000FE0720D0521CD2B28A42E0D31BE08E1A80
:10473000D2B216E00768A1EB020CACF1010C04EB5D
:10474000820827FA0CF707F0010700EE907A98ED3F
:10475000001A521CF8EE600A3B44D2B25BB200EE83
:10476000810A9642E6DC072B0DDA072D0BD253B1F6
:1047700000EE903A0848B8EEE01AC0EE010AC0ED2B
:10478000010ABDE8F0830120FBE700000000000003
:1047900034570020ACA1000860570020704700008B
:1047A0002DE9F04F87B014216846FBF7E5FD454839
:1047B000016841F010010160016801F010010591EC
:1047C000016841F004010160016801F004010591F4
:1047D000016841F080010160016801F080010591EC
:1047E000016841F001010160016801F001010591DA
:1047F000016841F002010160016801F002010591C8
:10480000016841F008010160006842F20307DFF827
:10481000B890002200F00800394605904846FDF7A0
:10482000D8F9DFF8A8A04FF460580122414650465D
:10483000FDF7CFF90024DFF898B0022569467C2007
:104840008DE831005846FDF793F801266946CDE919
:1048500002544846CDE90076FDF78AF84EF2F8009A
:104860001C4F8DE8310069463846FDF781F840F26B
:104870009F7069468DE831005046FDF779F8CDE923
:104880000254CDE9008669465046FDF771F80326CB
:10489000694630028DE871003846FDF769F8CDE9C8
:1048A0000064CDE9025669465846FDF761F84FF4B9
:1048B000C15069468DE831000748FDF759F807B047
:1048C000BDE8F08F3038024000080240000C024082
:1048D00000100240000402400000024010B59AB0EF
:1048E00000241C21009407A80194029403940494CA
:1048F00005940694FBF740FD2C210EA8FBF73CFD28
:10490000364845F25F423449C0E90014C0E902422A
:10491000046144618461FEF735F808B1FCF770FF6B
:104920004FF4805000902D486946FEF71BF908B1FE
:10493000FCF766FF2948FFF7FAF808B1FCF760FFBB
:10494000264804A9049405940694FDF7C9FF08B10C
:10495000FCF756FF6020CDE907042048002207A994
:1049600009940A940B940C940D94FFF74EF808B137
:10497000FCF746FF1948042207A9FFF746F808B1DB
:10498000FCF73EFF1548082207A9FFF73EF808B1DB
:10499000FCF736FF11480C2207A9FFF736F808B1DB
:1049A000FCF72EFF4FF400500E940F940103109467
:1049B000CDE9124011941494CDE9154107480EA990
:1049C00017941894FDF73CFF08B1FCF719FF034852
:1049D000FEF7DAFF1AB010BD000001404C100020B5
:1049E00010B58EB000241C21009407A801940294F5
:1049F0000394049405940694FBF7BEFC294845F201
:104A00005F414FF08042C0E90024C0E902410461E7
:104A10008461FDF7B7FF08B1FCF7F2FE4FF4805058
:104A2000009020486946FEF79DF808B1FCF7E8FEC3
:104A30001C48FFF77CF808B1FCF7E2FE194804A90E
:104A400004940694FDF74CFF08B1FCF7D9FE6020F2
:104A5000CDE907041348002207A909940B94FEF737
:104A6000D4FF08B1FCF7CCFE0E48042207A9FEF7DC
:104A7000CCFF08B1FCF7C4FE0A48082207A9FEF7DC
:104A8000C4FF08B1FCF7BCFE06480C2207A9FEF7DC
:104A9000BCFF08B1FCF7B4FE0248FEF775FF0EB08C
:104AA00010BD00009810002010B58CB02F480024D5
:104AB0002D49D7224FF6FF7300940194029403947A
:104AC0000494059406940794089409940A9480E841
:104AD0001600C0E903348461FDF754FF08B1FCF708
:104AE0008FFE4FF48050009020486946FEF73AF858
:104AF00008B1FCF785FE1D48FEF756FD08B1FCF72E
:104B00007FFE1A4804A904940694FDF7E9FE08B153
:104B1000FCF776FE012008210022CDE90740CDE90F
:104B20000941124807A9FEF7AEFC08B1FCF768FE80
:104B30000E48042207A9FEF7A6FC08B1FCF760FEA8
:104B40000A48082207A9FEF79EFC08B1FCF758FEA8
:104B500006480C2207A9FEF796FC002801D0FCF7B6
:104B60004FFE0CB010BD000000040040E410002017
:104B70000D48002110B50B4C0C224FF4E1330460BA
:104B8000C0E90131C160C0E904128161C161016203
:104B90004162FFF761FA002803D0BDE81040FCF73E
:104BA0002FBE10BD00780040301100200D480021BC
:104BB00010B50B4C0C224FF4E1330460C0E9013115
:104BC000C160C0E904128161C16101624162FFF705
:104BD00043FA002803D0BDE81040FCF711BE10BD19
:104BE00000440040B41100200D48002110B50B4CCA
:104BF0000C224FF4E1330460C0E90131C160C0E927
:104C000004128161C16101624162FFF725FA002847
:104C100003D0BDE81040FCF7F3BD10BD00480040D4
:104C2000381200200D48002110B50B4C0C224FF417
:104C3000E1330460C0E90131C160C0E9041281615F
:104C4000C16101624162FFF707FA002803D0BDE8A5
:104C50001040FCF7D5BD10BD00140140BC1200206F
:104C6000FEE7FEE72DE9F04F84491C222DED048B71
:104C700087B06846FBF759FB814D95ED078A02F036
:104C8000EFFE022003F0A8F9DFED7E8A9FED7E9A09
:104C900083484FF0814AC5ED028ADFF8F0B190ED0C
:104CA000060ADFF8EC9175488BED000A794C80ED2F
:104CB000009A99F80400784F784E122802D01128F3
:104CC00076D0A8E0DFF8DC8198F801000028FBD05E
:104CD000FCF7B6F902F0AAF89FED738A032084ED81
:104CE000008A03F079F900BF02F06EFBD4ED000AF0
:104CF00030EEC00AB0EEC00A10EE100AB842F3DC83
:104D0000042084ED018A03F067F9F3EE049AC5EDFF
:104D1000039AB1685046B1EE008A8142FDDCC2467A
:104D20008046B068404518DC02F072F89AF800102E
:104D30005046012907D04078012809D099ED020A90
:104D400084ED010AEDE794ED010A30EE480AF7E739
:104D500094ED010A30EE080AF2E74FF04041884234
:104D6000FDD24FF448784046FCF7F0FD02F050F8D1
:104D7000FCF766F94D49B0688842FDD2C5ED039A4B
:104D80004046FCF7E3FD9FED4A0A032084ED000A4C
:104D900003F022F902F018FBD4ED000A30EEC00A4D
:104DA000B0EEC00A10EE100AB842F3DC33E0FFE7C1
:104DB000404900BF95ED070A30EE480AB0EEC00A40
:104DC00010EE100A8842F5DB03209FED3B8A84ED4C
:104DD000008A03F001F900BF02F0F6FAD4ED000AF0
:104DE00030EEC00AB0EEC00A10EE100AB842F3DC92
:104DF000042084ED018A03F0EFF8B3EE0E0A85ED8E
:104E0000030AB06851468842FDDC85ED030A8842FA
:104E1000FDDDFCF715F922485C4690ED080A1748BD
:104E20008BED000A80ED009A0220C5ED028A03F0A6
:104E3000D3F8224895ED070AD5ED070A70EEC00AAF
:104E4000F0EEE00A10EE901A8142F5DB0B481C22CE
:104E50006946FBF76AFA9FED1A0A002184ED000A01
:104E600089F8141099F8001041F0040189F8001035
:104E700007B0BDEC048BBDE8F08F00009851002016
:104E8000C40D00200000704200003442BC0D002020
:104E900034570020F00D00200000A0409C56002058
:104EA000ACA10008160200200000B4C20000A0C19E
:104EB00000005CC2000088420000B44200002042B2
:104EC0000000000030B587B014216846FBF754FAA3
:104ED0001A48016841F004010160006800F0040014
:104EE0000590FFF777FA164D4FF400640022214633
:104EF0002846FCF76EFE022100940120CDE9010155
:104F0000284603916946FCF733FD0121002000F09B
:104F100036F8002000F016F800F07F0040F0100195
:104F2000002000F02CF88421FE2000F028F8012158
:104F3000002000F024F807B030BD000030380240F7
:104F4000000C024010B50446FFF702FBE020FFF71B
:104F5000C7FAFFF749FB2046FFF7C2FAFFF744FB09
:104F6000FFF7F6FAE120FFF7BBFAFFF73DFB002061
:104F7000FFF77EFA0446FFF711FB204610BD70B51F
:104F80000D460446FFF7E4FAE020FFF7A9FAFFF721
:104F90002BFB2046FFF7A4FAFFF726FB2846FFF776
:104FA0009FFAFFF721FBFFF7F9FABDE870400A20EE
:104FB00002F050B870B5050A0446C9B1012926D0DF
:104FC000022933D0032940D004294DD100211620D5
:104FD000FFF7D5FF00211720FFF7D1FF1820E1B21E
:104FE000FFF7CDFF19202946BDE87040FFF7C7BF86
:104FF00000210620FFF7C3FF00210720FFF7BFFFB6
:105000000820E1B2FFF7BBFF09202946ECE70021A9
:105010000A20FFF7B4FF00210B20FFF7B0FF0C20A0
:10502000E1B2FFF7ACFF0D202946DDE700210E209D
:10503000FFF7A5FF00210F20FFF7A1FF1020E1B22D
:10504000FFF79DFF11202946CEE700211220FFF730
:1050500096FF00211320FFF792FF1420E1B2FFF723
:105060008EFF15202946BFE770BD000010B586B041
:10507000044614216846FBF77FF90D4B012C4FF4D1
:1050800000504FF002010CD0002C08D100220090FB
:10509000CDE90121039169461846FCF769FC06B089
:1050A00010BD0122CDE90221CDE90002F3E70000A5
:1050B000000C0240F0B587B038491C226846FBF767
:1050C00034F9374C3748354994ED041A90ED070A06
:1050D00080ED021A237E354A354D1A2B354EDFED11
:1050E000320A02D0142B26D046E0334BC0ED020A20
:1050F000D0ED070A70EEC00AF0EEE00A10EE907AEA
:105100009F42F5DBDFED2D0A9FED2D0AC0ED020A6F
:10511000D2ED0B0AC5ED000A81ED000A02F054F948
:10512000D4ED070A30EE600AB0EEC00A10EE100AA5
:10513000B042F3DC20E0234FC0ED020AD0ED070AB5
:1051400070EEC00AF0EEE00A10EE903ABB42F5DBDA
:1051500092ED050ADFED1C0A85ED000AC1ED000A9B
:1051600002F032F9D4ED070A30EE600AB0EEC00A60
:1051700010EE100AB042F3DC08481C226946FBF727
:10518000D4F89FED120A002085ED000A20752078E2
:1051900040F00400207007B0F0BD000098510020DE
:1051A00034570020C40D00200000DC42ACA10008F0
:1051B000BC0D0020000020410000DC4200007042D5
:1051C000000020420000704200008C4200000000FD
:1051D000642010B5FCF7BAFB00F010F84FF4FA7039
:1051E000FCF7B4FBBDE81040AFF300800122024899
:1051F0002021FCF7EEBC0000000002400022024823
:105200002021FCF7E6BC0000000002402DE9F0433D
:1052100061491C222DED028B87B0B0EE408A6846B2
:10522000FBF783F89FED5D0A5D4C022084ED020AD6
:1052300002F0D2FE58485B4FB3EE090AF2EE0E0AB6
:1052400080ED000AC0ED020A5749B8688842FDD3D4
:105250009FED560ADFF8588184ED020A554DD4EDD2
:10526000078A03E002F0B0F888ED010A94ED070A1E
:1052700030EE680A10EE100AA842F3DB042002F0B8
:10528000ABFE9FED4D0AFA2084ED030AFBF77CFB91
:10529000FBF7D6FE494E97ED000AD6ED020A02F062
:1052A000D7FD0020D4ED078A02F096FE9FED440A58
:1052B000444D84ED010A84ED000A00BF94ED070A15
:1052C00038EEC00A10EE100AA842F7DBFBF7B8FE72
:1052D000FFF77EFF052001F050FD642001F0BAFECB
:1052E000032001F04AFD9FED380A00F0DFFEDFF8F1
:1052F000DC9000BF02F068F8D8ED000A30EEC00A7A
:10530000B0EEC00A10EE100A4845F3DC307901F027
:10531000A5FD68B1012001F030FD322001F09AFEB8
:1053200000F074FE022001F028FD322001F092FE10
:10533000062001F022FD642001F08CFE02F090FBBB
:105340009FED230A022084ED020A02F045FEB868B0
:10535000A842FDDBA842FDDC9FED1E0A84ED020A97
:1053600094ED070AD4ED070A70EEC00AF4EEC80AFD
:10537000F1EE10FAF6D308481C226946FAF7D5FF79
:1053800000203075307840F00400307007B0BDEC7C
:10539000028BBDE8F08300009851002000002042FD
:1053A000C40D00209C5600200000A0C10000BE4299
:1053B000F00D002000005C4200008C4234570020B9
:1053C000000096C300002041000033430000A040CD
:1053D00000008242000018422DE9F041314C2DEDD1
:1053E000028BE088C1434A0725D4C90623D420F4A0
:1053F000005040F48050E08002E0022004F066FBA0
:1054000001F058FD0128F8D12046E1880625264EF6
:10541000264C012721F01001C18004E0022004F095
:1054200055FB3571277001F045FD0128F6D1BDEC23
:10543000028BBDE8F0811E4DC10622D540F480509C
:10544000E08002E0022004F041FB01F033FD01287E
:10545000F8D1184C95ED078A02E0022004F036FBE3
:1054600095ED070A30EE480A10EE100AA042F4DB70
:1054700002E0022004F02AFB01F01CFD0128F8D113
:10548000D5E701F0A1FF0D48DFED0B0A80ED010A21
:10549000C5ED030A0420BDEC028BBDE8F04102F02B
:1054A0009BBD000034570020BC0D00201C020020D2
:1054B000C40D00200000204100009643F00D0020A4
:1054C0002DE9F0475F4D2DED028B2879072817D085
:1054D0005D485E4F00889FED5E8A5E4C5E4EC0F375
:1054E000C110032812D095ED020A00BF042087EDF9
:1054F000010A02F071FD84ED038A4FF081480BE050
:10550000BDEC028BBDE8F04700F0B6B801F05CFFDF
:10551000ECE7022004F0DAFAB0684045F9DBDFF886
:105520003C81B168414507D2052004F0CFFAF8E785
:10553000052004F0CBFA03E0DFF824914FF48078E3
:1055400041464846FCF738FB0028F1D1DFF81481CA
:10555000D4ED078A02E0052004F0B8FA94ED070ABA
:1055600030EE680A10EE100A4045F4DBFBF768FDE8
:10557000D5ED020A96ED000A02F06AFC0020D4ED97
:10558000078A02F029FD9FED380ADFF8E08084EDFC
:10559000010A84ED000A02E0052004F097FA94ED78
:1055A000070A38EEC00A10EE100A4045F4DBFBF79C
:1055B00047FD01F03BFC4FF4FA7004F087FA01F06C
:1055C00027FC02F04DFADFED2A8AB0EE680A00F0FF
:1055D0006DFD4FF0804802E0052004F077FA01F0FD
:1055E000F3FED7ED000A30EEC00AB0EEC00A10EEAE
:1055F000100A4045F0DC02F033FA042002F0ECFC23
:1056000084ED038A95ED020ADFF8688030EE680ABF
:1056100087ED010A02E0022004F058FAB168414522
:10562000F9D302F01DFA022002F0D6FC84ED028AC2
:1056300000202875287840F004002870BDEC028B0B
:10564000BDE8F0873457002060570020F00D00209F
:1056500000009643C40D00209C5600200000A0C00E
:10566000000C02400000F041000096C300007041B1
:10567000000033430000A0C11C484FF0814170B5C9
:1056800080688842FDDC01F09FFE194C1A48DFED6E
:10569000190A84ED010AC0ED030A042002F09CFC03
:1056A000164E4FF4807529463046FCF785FA0028DF
:1056B000F9D1FBF7C5FC9FED120A00F0F7FC114D84
:1056C00001F082FED4ED000A30EEC00AB0EEC00A4E
:1056D00010EE100AA842F3DC02F0C2F90A480021D9
:1056E0000175017841F00401017070BD9C560020E5
:1056F000F00D002000002042C40D0020000C0240EC
:10570000000036430000A0403457002010B504F0DC
:105710005FF902F003F902F083FB0448006804F02B
:1057200049FABDE8104004F077B900007400002089
:10573000054920201CB500238022CDE90001064840
:1057400002A104F0EDFB1CBD7400002053746172D3
:10575000745F7461736B00000D57000830B5294900
:105760001C222DED028B8FB06846FAF7DEFD26492C
:105770001C2207A8FAF7D9FD254C22489FED250ADF
:105780009FED228AD4ED070A80ED000A84ED028A9B
:1057900001F01AFE2148DFED200A80ED010A1A48C7
:1057A000C0ED000A042084ED038A02F015FC1C4CB5
:1057B0001C4D02E0052004F089F9A068A842F9DB3D
:1057C00001F034FB184D02E0052004F07FF9A068D9
:1057D000A842F9D30C481C2207A9FAF7A6FD0948EC
:1057E0001C226946FAF7A1FD01F012FB0F480021C7
:1057F0000175017841F0040101700FB0BDEC028B1E
:1058000030BD000098510020D051002000004843D6
:10581000C40D0020000048423333B33FF00D002098
:105820009C56002000004040000040C0345700203B
:10583000502010B572B680F31188BFF34F8FBFF3BD
:105840006F8F62B604F0CEFB18B104494FF0805060
:105850000860002080F3118810BD000004ED00E016
:1058600030B5B3B0302121A8FAF786FD14212DA858
:10587000FAF782FD84216846FAF77EFD2748016821
:1058800041F080510160006800F08050329024485F
:10589000016841F440410160006800240DF1A40C4E
:1058A00000F4404032900225219510210822D8238F
:1058B000CDE927548CE82C0001202C95CDE924015A
:1058C00021A8FCF7F7FD08B172B6FEE7FCF736FA3F
:1058D00008B172B6FEE74FF480522F944FF4A051F6
:1058E0000F20CDE93012CDE92D0507212DA8FCF7B9
:1058F000D9FC08B172B6FEE74FF4DE501194129451
:10590000149413941694179400906846FCF74CFA7C
:10591000002801D072B6FEE733B030BD40380240F7
:10592000007000400248016841F470010160704756
:1059300088ED00E00148FDF766BF00004C10002034
:105940000148FDF760BF0000981000200148FDF7F6
:105950005ABF0000E410002010B50A4C2068C0684F
:10596000C043C00709D10848006980472268002168
:10597000642051622168C862E0606FF00100216814
:10598000086110BDD8530020F000002006480068D0
:10599000C168C943C90703D104490A88521C0A8057
:1059A0006FF0010101617047405200207C0000202F
:1059B00070B5154C2068C068C043C0071ED1134D98
:1059C0000023134918460A5C521CD2B2032A0A5417
:1059D00001D345F82030FF2A00D30B54401CC0B23D
:1059E0000428F0D30B480178491CC9B2017064291E
:1059F00004D9037001210848FCF7E3F821686FF02F
:105A00000100086170BD00007C500020445400205B
:105A1000F801002070000020000802400148FDF756
:105A2000F2BE000040130020F0B5274B4FF0804E2F
:105A3000264D02689842264E264F274C09D07045C5
:105A400007D0A84205D0B04203D0B84201D0A0424E
:105A500005D1D1F804C022F070024CEA020298424B
:105A60001BD0704519D0A84217D0B04215D0B8420B
:105A700013D0A04211D0194DA8420ED0184DA84203
:105A80000BD0184DA84208D0174DA84205D0174D8D
:105A9000A84202D0164DA84203D1CD6822F440722C
:105AA0002A434D6922F080022A43026098428A68A4
:105AB000C2620A68826201D0A04201D10969016311
:105AC00001214161F0BD00000000014000040040E0
:105AD00000080040000C004000040140004001406C
