:020000040800F2
:10000000104F0020A502000883390008F7310008CE
:10001000813900088B070008994A00080000000099
:10002000000000000000000000000000E1010008E6
:100030008D070008000000003D020008C53B0008D5
:10004000BF020008BF020008BF020008BF0200088C
:10005000BF020008BF020008BF020008BF0200087C
:10006000BF020008BF020008BF020008BF0200086C
:10007000BF020008BF020008BF020008BF0200085C
:10008000BF020008BF020008BF020008BF0200084C
:10009000BF020008BF020008BF020008BF0200083C
:1000A000BF020008C93C0008BF020008BF020008E8
:1000B000D53C0008E13C0008ED3C0008BF02000808
:1000C000BF020008BF020008BF020008BF0200080C
:1000D000BF020008314A0008754A0008814A00083A
:1000E000BF020008BF020008BF020008BF020008EC
:1000F000BF020008B13D0008BF020008BF020008AF
:10010000BF020008BF020008213D0008BF0200082E
:10011000D5420008BF020008BF020008453D0008A4
:10012000BF020008BF020008BF020008BF020008AB
:10013000BF020008BF020008BF020008BF0200089B
:10014000BF020008BF020008BF020008BF0200088B
:10015000BF020008BF020008BF0200088D4A000865
:10016000BF020008BF020008BF020008BF0200086B
:10017000BF020008BF020008BF020008BF0200085B
:10018000BF020008BF020008CD430008BF020008FC
:10019000BF020008BF020008BF020008BF0200083B
:1001A000BF020008BF020008BF020008BF0200082B
:1001B000BF020008BF020008BF020008BF0200081B
:1001C000BF020008BF020008DFF810D000F0A0FA5C
:1001D000004800473D520008AFF30080104F002058
:1001E0002D4B19680868B0E8F04F80F30988BFF319
:1001F0006F8F4FF0000080F31188704700000000FF
:1002000008480068006880F308884FF0000080F319
:10021000148862B661B6BFF34F8FBFF36F8F00DFF4
:1002200000BF00BF08ED00E0DFF80C00016841F4FA
:1002300070010160704700BF88ED00E0EFF30980B6
:10024000BFF36F8F144B1A681EF0100F08BF20ED1C
:10025000108A20E9F04F106009B44FF0500072B6D8
:1002600080F31188BFF34F8FBFF36F8F62B606F034
:1002700039FF4FF0000080F3118809BC1968086845
:10028000B0E8F04F1EF0100F08BFB0EC108A80F3FA
:100290000988BFF36F8F704710000020EFF30580CF
:1002A000704700000648804706480047FEE7FEE723
:1002B000FEE7FEE7FEE7FEE7FEE7FEE7FEE7FEE716
:1002C000B93C0008C90100082DE9F05F054600208F
:1002D00092469B4688460646814640241BE02846B7
:1002E00041464746224600F06FF953465A46C01A27
:1002F000914110D311461846224600F056F92D1AA6
:1003000067EB01084F4622460120002100F04DF91D
:1003100017EB00094E41201EA4F10104DFDC484622
:1003200031462A464346BDE8F09F10B5431A934232
:1003300009D28318881803E010F8011D03F8011D85
:10034000521EF9D210BD40EA01039B0703D009E019
:1003500008C9121F08C0042AFAD203E011F8013BB1
:1003600000F8013B521EF9D210BDD2B201E000F8F4
:10037000012B491EFBD270470022F6E710B5134649
:100380000A4604461946FFF7F0FF204610BD2DE946
:10039000FE4F81EA030404F0004421F00041009480
:1003A0004FF0000B23F0004350EA01045ED052EA04
:1003B00003045BD0C3F30A54C1F30A552C44A4F2DE
:1003C000F3340194A0FB0254C1F3130141F48011F2
:1003D000C3F3130343F4801301FB024400FB034EF9
:1003E000840A970A44EA815447EA8357A4FB0768C2
:1003F00002958D0A05FB07854FEA932C04FB0C54EC
:100400002705029D4FEA065847EA1637B5EB08055F
:100410006EEB070C870E920E47EA811742EA8312B1
:10042000A7FB0201B6EB0B0164EB00042B0D43EAC2
:100430000C335E1844EB1C50DA465146E7FB0201D0
:10044000C5F313044FEA0B3343EA14534FEA043263
:10045000019C43EA0603A4F10C040294009CCDE93C
:1004600000B400F007F903B0BDE8F08F00200146AA
:10047000F9E72DE9F04D81EA030404F0004B21F087
:10048000004514464FF0000A23F0004150EA0502EF
:1004900020D054EA01021DD0C5F30A570246C5F325
:1004A0001303C1F31300C1F30A5640F4801543F45B
:1004B0008013A7EB0608101BD64608F2FD3873EB35
:1004C000050002D308F1010801E092185B41B8F180
:1004D000000F03DA00200146BDE8F08D00204FF444
:1004E0008011064684460EE0171B73EB050705D303
:1004F000121B63EB050306434CEA010C49084FEA63
:10050000300092185B4150EA0107EDD152EA030036
:1005100012D082EA040083EA0501084305D0101BCB
:10052000AB4106D20122002306E000224FF0004337
:1005300002E06FF0010253101AEB06004CEB085179
:1005400010EB0A0041EB0B01BDE8F04D00F083B861
:100550000EB5C10F80EAE0700844CA07002140F2DE
:1005600033438DE80E000A460B4600F083F803B0D3
:1005700000BD01F0004330B421F0004150EA010217
:1005800006D00A0DA2F56072C1F31301002A02DC45
:1005900030BC00207047440F44EAC104C100E01899
:1005A00030BC00EBC25000F01FB8202A04DB203A18
:1005B00000FA02F1002070479140C2F1200320FAB6
:1005C00003F3194390407047202A04DB203A21FAB4
:1005D00002F00021704721FA02F3D040C2F120025C
:1005E00091400843194670470029A8BF7047401C36
:1005F000490008BF20F00100704710B4B0FA80FC39
:1006000000FA0CF050EA010404BF10BC704749B175
:10061000CCF1200421FA04F411FA0CF118BF0121E5
:1006200021430843A3EB0C01CB1D4FEA00614FEAC5
:10063000102042BF002010BC704700EBC350104494
:100640000029A4BF10BC7047401C490008BF20F01F
:10065000010010BC704710B5141E73F1000408DAD5
:10066000401C41F1000192185B411A4301D120F076
:10067000010010BD2DE9F04D92469B4611B1B1FA33
:1006800081F202E0B0FA80F220329046FFF78DFF4F
:1006900004460F4640EA0A0041EA0B0153465A4617
:1006A000084313D0114653EA010019D0C8F14002A3
:1006B0005046FFF789FF05460E46504659464246CA
:1006C000FFF773FF084305D0012004E020463946B8
:1006D000BDE8F08D0020054346EAE0762C43374321
:1006E0000A986305E40AA0EB08000022FD0A44EA28
:1006F00047540A3002D500200146E9E701051019E8
:100700006941DDE9084500196941BDE8F04DA2E7FE
:10071000064C074D06E0E06840F0010394E807004E
:1007200098471034AC42F6D3FFF752FDC07500086D
:10073000E075000870B58C1810F8015B15F0070320
:1007400001D110F8013B2A1106D110F8012B03E06A
:1007500010F8016B01F8016B5B1EF9D12B0705D472
:100760000023521E0DD401F8013BFAE710F8013BBB
:10077000CB1A921C03E013F8015B01F8015B521ED7
:10078000F9D5A142D8D3002070BDFEE77047000024
:1007900070B582493D228248FFF7C7FD7F4C804DEE
:1007A00094F83D0085F83D0094F83E0085F83E0041
:1007B00094F83F0085F83F0094F8400085F8400029
:1007C00094F8410085F8410094F8420085F8420011
:1007D00094F8430085F8430094F8440085F84400F9
:1007E00094F8450085F8450094F846006D4E85F86C
:1007F000460094F8470085F8470094F84810B01573
:1008000085F848100C213D34C5E9136028462C3585
:1008100001F034FE55F82C0C016A21F420410162EC
:1008200055F82C0C016A01623D225C4905F1280053
:10083000FFF77BFD2078283585F83D00607885F846
:100840003E00A07885F83F00E07885F840002079E8
:1008500085F84100607985F84200A07985F8430069
:10086000E07985F84400207A85F84500607A85F8BB
:100870004600A07A85F84700E17A701585F848109F
:100880000821C5E9136028462C3501F0F7FD55F81D
:100890002C0C016A21F42061016255F82C0C016ACC
:1008A00001623D223D4905F12800FFF73EFD207819
:1008B000283585F83D00607885F83E00A07885F8F9
:1008C0003F00E07885F84000207985F841006079A4
:1008D00085F84200A07985F84300E07985F8440066
:1008E000207A85F84500607A2F4E85F84600A07A78
:1008F00085F84700E17A022085F848100021C5E913
:10090000136028462C3501F0B9FD55F82C0C016A0E
:1009100021F00A01016255F82C0C016A01623D22A6
:100920001E4905F12800FFF700FD2078283585F8DD
:100930003D00607885F83E00A07885F83F00E078BB
:1009400085F84000207985F84100607985F84200FB
:10095000A07985F84300E07985F84400207A85F88D
:100960004500607A85F84600A07A85F84700E17A6C
:10097000012085F848100421C5E9136028462C356C
:1009800001F07CFD55F82C0C016A21F0A0010162F8
:1009900055F82C0C016A016270BD00003005002082
:1009A00018490020000402400010024072B6FEE721
:1009B0002DE9F041876D044600F08CF9064694F865
:1009C00035000025022806D080206065012084F8CB
:1009D0003450BDE8F0812068016821F01601016003
:1009E0002068416921F080014161206C08B9A06C48
:1009F00020B12068016821F00801016020680168C9
:100A000021F0010101600CE000F064F9801B052871
:100A100007D920216165032084F8350084F834501B
:100A2000D7E720680068C007EED194F85C203F202B
:100A300001219040B86084F83510002084F83450CB
:100A4000C7E790F83510022903D0802141650120C5
:100A50007047052180F835100068016821F0010118
:100A600001600020704700002DE9F84FDFF80CB25C
:100A7000012403254FF00F0A00220BF1040E00BFE2
:100A80000B6804FA02F63340B34278D10F7907F0CD
:100A90000307012F01D0022F1AD187684FEA4209BC
:100AA000D1F80CC005FA09F827EA08070CFA09FC86
:100AB0004CEA070CC0F808C0476891F804C0B74377
:100AC000CCF3001C0CFA02FC4CEA070CC0F804C082
:100AD0000E79F643B6070BD0C6684FEA420C8F6812
:100AE00005FA0CF826EA080607FA0CF73743C76040
:100AF0000E7906F00306022E12D1D6084FEA42788C
:100B000000EB860600960F69D6F820904FEAD8666B
:100B10000AFA06FCB74029EA0C063743009E376202
:100B20000F7906684FEA420C07F0030705FA0CF844
:100B300007FA0CF726EA0806374307604E6816F4F2
:100B4000403F1CD04E4E376847F4804737603668C8
:100B500022F00308970706F480460096494E3F0F9F
:100B60004644B146D6F80868DFF81C810AFA07FC4B
:100B7000404526EA0C0603D14FF0000C41E076E038
:100B8000DFF808C1604502D14FF0010C39E0DFF811
:100B900000C1604502D14FF0020C32E0DFF8F4C032
:100BA000604502D14FF0030C2BE0DFF8ECC060454C
:100BB00002D14FF0040C24E0DFF8E0C0604502D120
:100BC0004FF0050C1DE0DFF8D8C0604502D14FF0B2
:100BD000060C16E0DFF8CCC0604502D14FF0070CE0
:100BE0000FE0DFF8C4C0604502D14FF0080C08E008
:100BF000DFF8B8C0604502D14FF0090C01E04FF0BA
:100C00000A0C0CFA07FC4CEA060CC9F808C84F6835
:100C1000DBF80060FF0226EA030600D51E43774694
:100C2000CBF80060D1F804C0DEF800605FEA8C2CDD
:100C300026EA030600D51E43DFF840C03E60ACF153
:100C4000040C4F68DCF80060BF0326EA030600D5F9
:100C50001E430A4FCCF80060083FD1F804C03E683C
:100C60005FEACC3C26EA030600D51E433E60521CD8
:100C7000102AFFF405AFBDE8F88F0000083C0140E2
:100C800044380240003001400000024000040240AD
:100C900000080240000C0240001002400014024014
:100CA00000180240001C02400020024000240240C4
:100CB0000069084000D001207047426921EA020320
:100CC0000A4043EA0241816170470AB1816170477D
:100CD0000904FBE70148806870470000000000201D
:100CE000024881680278114481607047000000204A
:100CF000032010B500F08CF80F2000F005F800F08C
:100D00003DF8002010BD000010B5002201462D2046
:100D100088B000F05DF82D2000F04CF81348016811
:100D200041F480710160006805A900F480700690AC
:100D3000684600F0CBFB00F0E9FB0D4940000022C3
:100D40000C4CB0FBF1F10C4840F2E7330460C0E911
:100D50000332491EC0E9011200F090FE10B10120DB
:100D600008B010BD044800F033FFF9E740380240F6
:100D700040420F00002000408C0700200C4882B049
:100D8000016841F080510160006800F080500090DF
:100D90000748001D016841F480410160006800229D
:100DA0000F2100F480400090901E02B000F010B8B7
:100DB00040380240002809DB410900F01F02890089
:100DC000012001F1E0219040C1F8000170470000CE
:100DD0000E4BF0B41B680D46C3F30223C3F10706A4
:100DE000042E00D90426191D072901D2002300E092
:100DF000DB1E012404FA06F19C40491E2940641EB2
:100E0000994014402143F0BC03F058BE0CED00E0C3
:100E1000064900F0070210B54FF6FF040868044BBE
:100E2000204040EA02201843086010BD0CED00E0AD
:100E30000000FA051848F8B5016841F080510160DA
:100E40000068164C00F080500090206840F480301C
:100E50002060FFF73FFF4FF47A76054605E000BFBC
:100E6000FFF738FF401BB0420FD86068C003F7D5CA
:100E7000206840F400302060FFF72CFF054606E0B4
:100E8000FFF728FF401BB04201D90320F8BD60687E
:100E90008003F5D50020F8BD4038024000700040C6
:100EA0002DE9F84F04460078DFF824944FF000064F
:100EB0003746C0070ED0D9F8001021F40001C9F858
:100EC0000010D9F80010626B1143C9F80010606B74
:100ED00000B90126FE4D2068843500030ED5E16B74
:100EE000286820F4401008432860E06BB0F5801FAC
:100EF00001D010B102E0012600E0012720684FF484
:100F0000800BC0020CD5216C286820F440000843F7
:100F10002860206C584501D1012601E000B9012765
:100F20002068C10100D50126800666D5E848383022
:100F3000016841F0805101600068DFF898A300F07B
:100F400080500090DAF8001041F48071CAF8001067
:100F5000FFF7C0FE804605E0FFF7BCFEA0EB0800EF
:100F600064287DD8DAF80000C005F5D5DFF8608385
:100F700008F16808D8F8000010F440702AD0218EDB
:100F800001F44071814225D0D8F80010D8F8002033
:100F900021F4407142F48032C8F80020D8F80020D3
:100FA00022F48032C8F80020C8F80010D8F80000F9
:100FB000C0070FD0FFF78EFE824607E0FFF78AFEDC
:100FC000A0EB0A0141F288308142CAD8D8F800006B
:100FD0008007F3D5206BC0F3012103297ED0D9F817
:100FE000001021F4F811C9F80010228ED8F8001072
:100FF000C2F30B021143C8F800102078C00607D5D1
:10100000286820F0807028602868A16B0843286059
:101010002188AF488830490405D5626E016821F403
:101020004031114301602188090405D5A26E016891
:1010300021F44021114301602168C90305D5E26E06
:10104000016821F44011114301602168890305D52D
:10105000226F016821F4400111430160217800E012
:1010600016E1490605D5626C016821F003011143C0
:1010700001602178090605D5A26C016821F00C01F8
:10108000114301602188C90505D5E26C016821F092
:101090003001114301602188890505D5226D016861
:1010A00021F0C001114301602188490505D5626D19
:1010B000016821F44071114301602188090505D5BB
:1010C000A26D016821F44061114301602188C904C7
:1010D00007D5E26D016821F4405100E04AE0114378
:1010E00001602188890405D5226E016821F4404100
:1010F000114301602168490205D5A26F016821F002
:1011000080611143016021684FF0006A890209D5AE
:10111000E26F016821F0006111430160E16F514508
:1011200000D1012721680A0700D50127490305D509
:10113000626F016821F0407111430160216809026A
:1011400006D5D4F88020016821F080511143016058
:10115000DFF88491012E02D0206880017ED5D9F875
:1011600000004E4620F08060C9F80000FFF7B2FD95
:1011700080460FE0594AD9F80030104023F4F812A5
:101180000243C9F8002030E7FFF7A4FDA0EB0800F8
:1011900064287DD830680001F6D421784C487C3032
:1011A000C90712D0616B81B9237A62680168D0F8EF
:1011B00000C09201C1F3014142EA0142CCF3036154
:1011C00042EA016141EA0371016021680A0303D523
:1011D000E26BB2F5801F04D0C9021AD5216C5945C3
:1011E00017D16368016894F80CC002689B01C1F3D1
:1011F000014143EA0141C2F3027241EA0C6141EA52
:10120000027101602968626A21F01F01521E1143B8
:1012100029602168C90110D5238A62680168D0F865
:1012200000C09201C1F3036142EA034242EA016253
:10123000CCF3027142EA01710160216889010CD589
:101240006168228A237B94F808C0890141EA02413F
:1012500041EA036141EA0C71016000E011E031688C
:10126000B04641F080613160FFF734FD064604E08E
:10127000FFF730FD801B64280AD8D8F80000000171
:10128000F6D56FB3D9F800004E4620F0805000E04C
:101290007BE0C9F80000FFF71DFD074605E000BF31
:1012A000FFF718FDC01B64286FD83068C04380006A
:1012B000F6D50748216880300A0301D5E26B1AB1E0
:1012C000C90225D5216C19BB63690168277E08E036
:1012D000083802400070004000380240FFFCFF0F59
:1012E0005AE00268C1F301419B0143EA0143C2F3A2
:1012F000027143EA076242EA0171016029686FF0F6
:10130000FF03A26A21F4F85103EB02221143296082
:101310002168890212D5E16F51450FD1238C626992
:10132000016807689201C1F3036142EA034242EA9D
:101330000162C7F3027142EA017101602178090775
:1013400016D561690268D0F800C08B01277FC2F30F
:101350000362CCF3014143EA014141EA026141EAFF
:10136000077101602868E16A20F440300843286072
:10137000306840F080503060FFF7ACFC044607E076
:10138000FFF7A8FC001B642802D90320BDE8F88FF2
:101390003068C0438000F3D40020F7E72DE9F04720
:1013A00005000F4663D0444E306800F00F00B8428D
:1013B00009D2306820F00F0038433060306800F008
:1013C0000F00B84253D128683C4C810712D5400722
:1013D00003D5206840F4E05020602878000703D54A
:1013E000206840F460402060A968206820F0F00088
:1013F000084320602878C0072AD030496868083937
:10140000012810D00968022810D0890700292EDA97
:10141000216821F0030101432160FFF75BFC804656
:1014200041F288390DE009688903EFE78901EDE7AA
:10143000FFF750FCA0EB0801494502D90320BDE8A5
:10144000F0876868216801F00C01B1EB800FEFD1E3
:10145000306800F00F00B8420BD9306820F00F0060
:1014600038433060306800F00F00B84201D00120EE
:10147000E5E72878400705D5E968206820F4E050C2
:10148000084320602878000706D52869216821F4E0
:10149000604141EAC000206000F058F82168084A25
:1014A000C1F30311515CC840064908600648006852
:1014B000FFF72AFC0020C2E7003C02400838024047
:1014C000607400080C000020040000200D4A0F2367
:1014D00030B503604FF4E0540B4B156805F003057D
:1014E0004560156805F0F0058560156805F4E05560
:1014F000C560126804EAD2020261186800F00F00A9
:10150000086030BD08380240003C024004490548EC
:1015100009680068044AC1F38221515CC8407047E1
:10152000083802400C000020707400080449054887
:1015300009680068044AC1F34231515CC8407047F1
:10154000083802400C00002070740008154910B5DE
:101550001548096811F00C0213D04110042A0FD06D
:10156000082A0ED10F4C241F2268236802F03F0284
:101570005B0207D52068C0F38810A0FB010106E0DC
:10158000084610BD2168C1F38811A1FB00010023AA
:10159000FEF79AFE2168C1F30141491C4900B0FBE6
:1015A000F1F010BD083802400024F4002DE9F84F96
:1015B00004004FF000076ED02078DFF868A3AAF18E
:1015C0000408C007A8F104054CD0DAF80010504612
:1015D000C1F38101012908D00068C0F3810002280D
:1015E0000AD1D8F80000400206D52868800339D512
:1015F00060680028DFD035E06068B0F5803F0BD030
:1016000010B1B0F5A02F11D0286820F480302860E8
:10161000286820F4802002E0286840F480302860A8
:10162000606890B1FFF756FB06460AE0286840F470
:1016300080202860F0E700BFFFF74CFB801B642888
:1016400072D828688003F7D50CE0FFF743FB064605
:1016500005E000BFFFF73EFB801B6428F0D8286838
:101660008003F7D42078800742D5DAF8001050467E
:1016700011F00C0F08D00068C0F3810002280BD1D4
:10168000D8F80000400207D42868800718D5E06821
:10169000012800D114E041E1E0680028286817D053
:1016A00040F001002860FFF715FB064605E000BF8B
:1016B000FFF710FB801B0228C2D828688007F7D5E7
:1016C0002069296821F0F80141EAC00028600FE094
:1016D00020F001002860FFF7FDFA064605E000BF94
:1016E000FFF7F8FA801B02281ED828688007F7D475
:1016F0002078000729D58B4861696C300029814624
:10170000016812D041F001010160FFF7E3FA0646DB
:1017100005E000BFFFF7DEFA801B022804D8D9F8E5
:1017200000008007F6D510E089E021F0010101609A
:10173000FFF7D0FA064604E0FFF7CCFA801B022838
:101740007DD8D9F800008007F6D4207840076BD503
:10175000DFF8D09109F13809D9F80000C0000BD4A6
:10176000D9F8001041F08051C9F80010D9F80000F4
:10177000012700F0805000906B480168C90512D421
:101780000168834641F480710160FFF7A3FA0646C1
:1017900005E000BFFFF79EFA801B64284FD8DBF8F6
:1017A0000000C005F6D55F4EA068683601280AD053
:1017B00008B1052811D0306820F001003060306891
:1017C00020F0040002E0306840F001003060A068C2
:1017D000A0B1FFF77FFA83460CE0306840F00400C8
:1017E0003060F0E7FFF776FAA0EB0B0141F28830AA
:1017F000814266D830688007F4D50EE0FFF76AFAB8
:10180000834607E0FFF766FAA0EB0B0141F2883050
:10181000814256D830688007F4D42FB1D9F800102F
:1018200021F08051C9F80010A069C8B3DAF800109F
:10183000C1F3810102294BD00228286800E040E072
:1018400020F08070286003D0FFF744FA04463BE0A4
:10185000FFF740FA064604E0FFF73CFA801B022837
:101860002FD828688001F7D4D4E90962D4E90701A8
:101870002E4B570894F82C20084303EB074343EA08
:101880008611084340EA026040F00050C8F80000AA
:10189000286840F080702860FFF71CFA044606E0D4
:1018A0003EE000BFFFF716FA001B022809D828689F
:1018B0008001F7D534E000BFFFF70CFA001B0228C7
:1018C00002D90320BDE8F88F28688001F4D427E00E
:1018D0000128D8F8000021D0E16900F480028A4292
:1018E0001CD1216A00F03F028A4217D1626A47F692
:1018F000C0710140B1EB821F10D1A16A4FF0FF32DD
:1019000000F4403302EB5101B3EB014F06D194F8E0
:101910002C1000F07060B0EB016F01D00120D1E716
:101920000020CFE708380240007000400000FFFFB1
:1019300070477047704700002DE9F04390F83C2055
:10194000012A42D0012280F83C2051F80C4BDFF8EC
:1019500080804FF0000991E8680051E9022723F4E4
:101960004073B1F80CC03B43CF6923F48063134349
:10197000026823F40063234323F4805343EA0503FE
:1019800023F4005343EA060323F4804343EA0703A6
:101990000C3923F47023424543EA0C4302D00D4C2A
:1019A000A2420CD18D8C23F47006D1E9073446EAAB
:1019B000055121F08071194321F0007323435364D2
:1019C00080F83C900020BDE8F0830220FBE7000097
:1019D0000000014000040140F0B590F83C20012ACD
:1019E0003BD01F4E012480F83C40022280F83D206D
:1019F00002681C4D5368B242D2F808C001D0AA4216
:101A000003D14F6823F470033B430F6823F0700346
:101A10001F4357600268B24213D0B2F1804F10D01A
:101A2000114B9A420DD0114B9A420AD0104B9A4258
:101A300007D0AA4205D00F4B9A4202D00E4B9A42D1
:101A400004D189682CF0800319439160002180F84B
:101A50003D4080F83C100846F0BD0220F0BD00007B
:101A60000000014000040140000400400008004064
:101A7000000C0040004001400018004010B5040078
:101A800003D094F83D0010B107E0012010BD002004
:101A900084F83C00204600F023F8022084F83D0042
:101AA0002068211D02F08AF9012084F8480084F89A
:101AB0003E0084F83F0084F8400084F8410084F838
:101AC000420084F8430084F8440084F8450084F818
:101AD000460084F8470084F83D00002010BD000057
:101AE00030B587B0044614216846FEF745FC3248FD
:101AF000216881420FD13148016841F00101016044
:101B000000680022052100F0010005901920FFF770
:101B10005FF919204BE02A48B1F1804F39D0294AAA
:101B2000914246D1016841F002010160006800F075
:101B30000200059022481038016841F0010101605F
:101B4000016801F001010591016841F002010160A5
:101B5000006802240025694600F002000590C020BC
:101B60000494CDE900041848CDE90245FEF77CFF56
:101B700003206946CDE900041448CDE902450494E8
:101B8000FEF772FF002205211D20FFF721F91D201D
:101B90000DE0016841F001010160006800220521AB
:101BA00000F0010005901C20FFF712F91C20FFF740
:101BB00001F907B030BD0000000001404438024088
:101BC000403802400004004000000240000402408F
:101BD00090F83D10012901D001207047174A0221D9
:101BE00080F83D100168CB6843F00103CB600068CA
:101BF000904214D0B0F1804F11D0114988420ED0DC
:101C0000104988420BD01049884208D00F498842B9
:101C100005D00F49884202D00E49884207D1816819
:101C20000D4A1140062906D0B1F5803F03D0016866
:101C300041F00101016000207047000000000140F8
:101C40000004004000080040000C00400004014077
:101C500000400140001800400700010070B5044634
:101C600090F83C000025012817D0334B012684F85A
:101C70003C60022084F83D0022689068184020F4FF
:101C80007F4090600868502838D00DDC20284FD065
:101C900005DC90B3102811D14AE0022070BD302835
:101CA00046D040280AD13BE060282FD070280DD0C4
:101CB000B0F5805F03D0B0F5005F12D0012584F845
:101CC0003D60002084F83C00284670BD4A682068CA
:101CD000D1E9021302F0E5F82068816841F077014C
:101CE00009E04A682068D1E9021302F0DAF82068B6
:101CF000816841F480418160E1E719E0CA68496880
:101D0000206802F015FA2068502106E0CA68496888
:101D1000206802F05FFA2068602102F0CBF8CEE77D
:101D2000CA684968206802F003FA20684021F4E795
:101D3000226801461046F0E788FFFEFF2DE9F05FBC
:101D4000DFF8FC938246007FFE4F01250828A7F1AB
:101D50002006A9F1040BA7F1400806F1100446D1B2
:101D600009F1100204F1B000002111709BF800206D
:101D7000016822B3012A7DD1096CD03801600C21A1
:101D8000D03000F01DFC04F1B000B0F85010C06C71
:101D900089B2FEF78DFF09F10401087099F800106F
:101DA000814252D0A4F12001D8F800000968814294
:101DB00022D24FF6FF72101A401C08441DE00B6C33
:101DC000C8F800300B6A23F420430B6201680B6AE9
:101DD00043F400530B628BF80050B0F85010C06C05
:101DE00089B2FEF765FF89F8000008B13D603EE06A
:101DF0004FF0FF3038603AE0081ADFF844C3206043
:101E00000CF1080C9CF80000A8B3CE4900201C225D
:101E100030602431081FFEF788FACA482168203054
:101E20000346C1615FF00000216853F82020401C88
:101E3000C0B2082811442160F6D3C8083060C148F8
:101E40003968103002681144016000208BF80000EE
:101E5000BC480C21A03000F011FBBA48A03001684A
:101E60000A6A22F420420A620068016A01629AF852
:101E70001C0001E0AEE002E0042821D0ADE0DFF874
:101E8000C0E2B0490EF10C0E236820319EF800002C
:101E9000421CD2B241F82030082A8EF80020CED160
:101EA0005FF00000226851F82030401CC0B20828C2
:101EB0001A442260F6D3D00830608CF80050BEE798
:101EC000A04800219E4AF430103251709BF8011056
:101ED00039B301297ED10068C16B9A48303841601E
:101EE000082100F5927000F06BFB9648F430B0F8D2
:101EF0005010C06C89B2FEF7DBFE9149091D487095
:101F000099F80110814253D08E49D8F80400303935
:101F10004968814224D24FF6FF72101A401C0844CF
:101F20001FE00168D1F83CC0C8F804C00B6A23F474
:101F300020630B6201680B6A43F400730B628BF839
:101F40000150B0F85010C06C89B2FEF7B1FE89F8AC
:101F5000010008B17D6040E04FF0FF3078603CE068
:101F6000081ADFF8DCE160600EF1080E9EF801004F
:101F700088B3744900201C2270604431081FFEF7AA
:101F8000D4F9704960682031C863002001EB8002F9
:101F9000401CC0B2136A082862681A446260F5D314
:101FA000D008706067487968103042681144416019
:101FB00000208BF8010063480821F43000F05EFA3D
:101FC0006048F43001680A6A22F420620A620068FC
:101FD000016A01E0B2E005E001629AF81C00012804
:101FE00023D0A7E0564857490C3063682031427827
:101FF00002F1010C01EB82020CF0FF0CBCF1080FA6
:10200000136280F801C0CDD15FF0000001EB8002C7
:10201000401CC0B2136A082862681A446260F5D393
:10202000D00870608EF80150BCE7454A0021464850
:10203000103291709BF8021029B301297ED10068FB
:10204000416B40483038816000213F4800F0B8FAC9
:102050003D48B0F85010C06C89B2FEF729FE3849EF
:10206000091D887099F80210814253D03549D8F87B
:10207000080030398968814224D24FF6FF72101A65
:10208000401C08441FE00168D1F834C0C8F808C0FB
:102090000B6A23F00A030B6201680B6A43F0020328
:1020A0000B628BF80250B0F85010C06C89B2FEF78A
:1020B000FFFD89F8020008B1BD603BE04FF0FF3042
:1020C000B86037E0081ADFF878E0A0600EF1080E7B
:1020D0009EF8020098B31B4900201C22B0606431B6
:1020E000081FFEF722F91749A0682031C8650020B3
:1020F00001EB8002401CC0B2136C0828A2681A448D
:10210000A260F5D3D008B0600E48B968103082687C
:102110001144816000208BF8020001460A4800F05B
:10212000ADF9094801680A6A22F00A020A620068E9
:10213000016A01629AF81C00022807E070E032E0B0
:10214000E801002078480020C049002068D1674A93
:1021500000216548D1709BF80310E9B301295FD1D4
:1021600082460068816B6248C16004215E4800F0CD
:1021700027FABAF85010DAF84C0089B2FEF798FD49
:102180005A490C39C87099F80310814276D05849E1
:10219000D8F80C00C968814248D24FF6FF72101A75
:1021A000401C084443E0514A5149121FA368503172
:1021B000907800F1010C01EB80000CF0FF0CBCF1F9
:1021C000080F036482F802C09ED1002001EB800258
:1021D000401CC0B2136C00E009E0A26808281A4451
:1021E000A260F3D3D008B0608EF802508CE701688B
:1021F0008C6BC8F80C400B6A23F0A0030B620168DB
:102200000B6A43F020030B628BF80350B0F85010B8
:10221000C06C89B2FEF74CFD89F8030010B1FD6077
:10222000BDE8F09F4FF0FF30F860F9E7081ADFF8DB
:10223000BC90E060A9F1080999F8030080B32C492B
:1022400000201C22F060B431081FFEF76EF8284908
:10225000E0685031C8670020E36801EB8002401C51
:10226000C0B2126E08281A44E260F5D3D008F060BC
:102270001F48F9684030C2681144C16000208BF8E3
:1022800003001948042100F0F9F8DAF800100A6A8E
:1022900022F0A0020A62DAF80000016A0162BFE7D8
:1022A000FFE71249124A091FE3685032C87800F16B
:1022B000010802EB800C08F0FF000828CCF8603021
:1022C000C870D5D15FF0000002EB8001401CC0B2A5
:1022D0000B6E0828E1681944E160F5D3C808F06086
:1022E00089F80350C4E70000144A0020F8010020D8
:1022F000484800202DE9F041054690F83C000026B2
:102300000C46012810D0012085F83C0072B1042A47
:102310001CD0082A2CD00C2A51D00126002085F888
:102320003C003046BDE8F0810220FBE7E368286806
:10233000D4E9001201F00EFF2868816921F00C0138
:10234000816128688169A26811430FE0E368286809
:10235000D4E9001201F050FF2868816921F440613E
:10236000816128688169A26841EA02218161D5E71B
:10237000D4E900232868217B076A4FF4206C090701
:1023800027F4807707620CEA0222C769D0F820C0E0
:1023900027F003071F432CF4206C27F0F00342EAD8
:1023A0000C0243EA1161C16102622868C16921F02F
:1023B0000C01C1612868A268C169114329E028683D
:1023C000D4E90032E168076A4FF6FF7C4FF4204EF3
:1023D00027F4805707620CEA0131C769D0F820C0A2
:1023E0000EEA033327F4407747EA02222CF4204C0C
:1023F00022F470421143C16143EA0C03036228686E
:10240000C16921F44061C1612868A168C26942EADA
:102410000121C16182E710B5040003D094F83D00AA
:1024200010B107E0012010BD002084F83C002046D8
:1024300000F022F8022084F83D002068211D01F000
:10244000BDFC012084F8480084F83E0084F83F0079
:1024500084F8400084F8410084F8420084F8430086
:1024600084F8440084F8450084F8460084F8470066
:1024700084F83D00002010BD7047000030B50446D0
:102480004FF0000579B1042912D0082915D00C2984
:1024900018D0102919D094F8430000BF94F84720B1
:1024A000012817D114E094F83E0094F84420F7E78F
:1024B00094F83F0094F84520F2E794F8400094F82F
:1024C0004620EDE794F84100E8E794F84200E5E79C
:1024D000012A01D0012030BD4FF0020079B104295A
:1024E00016D008291DD00C294FD0102950D084F8BF
:1024F00043000C2984F847004DD0012543E084F8BF
:102500003E0084F844002068C26842F0020210E0F5
:1025100084F83F0084F845002068C26842F0040255
:1025200007E084F8400084F846002068C26842F062
:102530000802C2602068012201F0A6FC1849206848
:10254000884214D0B0F1804F11D0164988420ED085
:10255000154988420BD01549884208D01449884251
:1025600005D01449884202D01349884207D18168B6
:10257000124A1140062906D0B1F5803F03D0016808
:1025800041F001010160284630BD84F84100B0E708
:1025900084F84200ADE72068C26842F01002C8E744
:1025A000000001400004004000080040000C004012
:1025B00000040140004001400018004007000100F5
:1025C00070B50D0004464FF0000607D0042D0AD068
:1025D000082D0DD00C2D10D0012635E02068C168E3
:1025E00021F002010DE02068C16821F0040108E03B
:1025F0002068C16821F0080103E02068C16821F06B
:102600001001C16020680022294601F03DFC2068CD
:1026100041F21112016A114207D1016A921011426E
:1026200003D1016821F0010101604FF001006DB19B
:10263000042D10D0082D13D00C2D16D0102D17D02E
:1026400084F8430084F84700304670BD84F83E00AB
:1026500084F84400F8E784F83F0084F84500F3E785
:1026600084F8400084F84600EEE784F84100E9E78A
:1026700084F84200E6E770B5044600680025016969
:10268000C943890715D4C168C943890711D4EA1E13
:10269000026101212177206880698007204602D0ED
:1026A000FFF74CFB04E000F0E7F8204600F0A9F942
:1026B000257720680169C943490717D4C168C94310
:1026C000490713D402216FF00402026121772068C8
:1026D000806910F4407F204602D0FFF72FFB04E012
:1026E00000F0CAF8204600F08CF9257720680169CF
:1026F000C943090716D4C168C943090712D4042184
:102700006FF00802026121772068C06980072046C7
:1027100002D0FFF713FB04E000F0AEF8204600F013
:1027200070F9257720680169C943C90617D4C168C3
:10273000C943C90613D408216FF010020261217742
:102740002068C06910F4407F204602D0FFF7F6FAF7
:1027500004E000F091F8204600F053F92577206856
:102760000169C943C90708D1C168C943C90704D170
:10277000891E0161204600F055FA20680169C943AD
:10278000090609D4C168C943090605D46FF0800160
:1027900001612046FFF7CDF820680169C943C905EA
:1027A00009D4C168C943090605D46FF48071016179
:1027B0002046FFF7BDF820680169C943490609D4DE
:1027C000C168C943490605D46FF040010161204644
:1027D00000F032FA20680169C94389060BD4C16848
:1027E000C943890607D46FF0200101612046BDE886
:1027F0007040FFF79FB870BD30B587B00446142114
:102800006846FDF7B9FD24680021184D0220164ADC
:102810000123AC4211D1146844F010041460126812
:1028200002F0100205924FF4D4420092CDE901016A
:10283000CDE903130E48694612E0B4F1804F11D17F
:10284000146844F001041460126802F00102059259
:102850000F220092CDE90101CDE903130548694635
:10286000FEF702F907B030BD3038024000000140E9
:102870000010024000000240704770B5044690F816
:102880003C0000260D4601280BD0012084F83C00B6
:102890000C2A4AD007DC82B1042A20D0082A06D1AB
:1028A00031E0022070BD102A53D0142A63D00126D3
:1028B000002084F83C00304670BD206801F002FB27
:1028C0002068816941F0080181612068816921F0F7
:1028D0000401816120682A698169114311E020683F
:1028E00001F02AFB2068816941F400618161206860
:1028F000816921F48061816120682969826942EAE5
:1029000001218161D4E7206801F052FB2068C16990
:1029100041F00801C1612068C16921F00401C16171
:1029200020682A69C169114311E0206801F07CFB2D
:102930002068C16941F40061C1612068C16921F466
:102940008061C16120682969C26942EA0121C161CF
:10295000AEE7206801F094FB2068416D41F008016A
:1029600041652068416D21F00401416520682A69B4
:10297000416D114311E0206801F0AEFB2068416D0C
:1029800041F4006141652068416D21F48061416539
:1029900020682969426D42EA0121416588E710B546
:1029A000040003D094F83D0010B107E0012010BDF1
:1029B000002084F83C00204600F022F8022084F831
:1029C0003D002068211D01F0F9F9012084F848003C
:1029D00084F83E0084F83F0084F8400084F8410009
:1029E00084F8420084F8430084F8440084F84500E9
:1029F00084F8460084F8470084F83D00002010BDAC
:102A00007047704710B504464FF0020269B10429BF
:102A100012D0082917D00C291CD0102921D094F8E5
:102A20004300012824D0012010BD94F83E00012865
:102A3000F9D184F83E201DE094F83F000128F2D13E
:102A400084F83F2016E094F840000128EBD184F888
:102A500040200FE094F841000128E4D184F841209F
:102A600008E094F842000128DDD184F8422001E01A
:102A700084F843200122206801F006FA17492068F3
:102A8000174A884201D0904203D1436C43F400437B
:102A900043642068884213D0B0F1804F10D01149B0
:102AA00088420DD0104988420AD01049884207D088
:102AB000904205D00E49884202D00E49884207D183
:102AC00081680D4A1140062906D0B1F5803F03D038
:102AD000016841F001010160002010BD00000140CB
:102AE000000401400004004000080040000C0040C9
:102AF00000400140001800400700010030B50446C6
:102B00004FF002024FF0000569B1042916D00829E0
:102B100053D00C295CD0102961D094F843000128CF
:102B200064D0012030BD94F83E000128F9D184F82A
:102B30003E202068C26842F0020209E094F83F009B
:102B40000128EED184F83F202068C26842F00402D8
:102B5000C2602068012201F097F92A4920682A4AB8
:102B6000884201D0904203D1436C43F40043436454
:102B70002068884213D0B0F1804F10D0234988429A
:102B80000DD0234988420AD02249884207D090427A
:102B900005D02149884202D02049884207D1816866
:102BA0001F4A1140062906D0B1F5803F03D00168C5
:102BB00041F001010160284630BD94F84000012831
:102BC000AFD184F840202068C26842F00802BFE715
:102BD00094F841000128A4D184F8412008E094F839
:102BE000420001289DD184F8422003E084F843206C
:102BF0000C2901D00125DEE72068C26842F01002EE
:102C0000A6E700000000014000040140000400406D
:102C100000080040000C0040004001400018004047
:102C20000700010000680349884201D1FEF758B847
:102C30007047000000200040704770477047014611
:102C4000806FC96F084370472DE9F0410268044660
:102C5000002540F60F06D06911689368304205D10F
:102C600083067DD58B067BD5616E11E1944F03F011
:102C700001060F40374373D0C70709D0CF0507D5EA
:102C800001271762D4F8802042F00102C4F88020A6
:102C900082070AD5DA0708D0276802223A62D4F8F8
:102CA000802042F00402C4F8802042070AD5DA07E7
:102CB00008D0236804221A62D4F8802042F002026D
:102CC000C4F8802002070CD501F02002324308D05E
:102CD000236808221A62D4F8802042F00802C4F85F
:102CE000802002050BD54A0109D523684FF4006204
:102CF0001A62D4F8802042F02002C4F88020D4F870
:102D00008020002A36D0800605D5880603D5616E5E
:102D100009B1204688472168D4F8800089684906AF
:102D200002D410F0280F27D0204601F0E3FB2068E2
:102D3000806840061BD52068083050E8001F21F04D
:102D4000400140E80012002AF5D1206F78B15D49BA
:102D50000165206FFDF775FE00280BD0206F00E0A5
:102D600010E0016D00E02046BDE8F0410847204634
:102D7000FFF764FFBDE8F0812046FFF75FFFC4F86E
:102D80008050F7E7266E2023012E7CD1C6067AD527
:102D9000CE0678D51020106220688068400641D5A4
:102DA000216F086840680004000CE3D0B4F8582094
:102DB0008242DFD9A4F85A00C869B0F5807F2AD0D2
:102DC000206850E8001F21F4807140E80012002ABA
:102DD000F6D12068083050E8001F21F0010140E8DA
:102DE0000012002AF5D12068083050E8001F21F0B9
:102DF000400140E80012002AF5D1E367256621680A
:102E000051E8000F20F0100041E80002002AF6D13E
:102E1000206FFDF7CDFDB4F85800B4F85A10401AF1
:102E200081B22BE0B4F85800B4F85A10B4F85A2024
:102E3000401A81B2002A9DD000299BD0226852E816
:102E4000000F20F4907042E80006002EF6D12068B2
:102E500000F1080050E8002F22F0010240E80026AF
:102E6000002EF4D1E36725666566206850E8002FE0
:102E700022F0100240E80023002BF6D12046FFF795
:102E8000DCFE77E7FFE7020606D50A0604D5A16E49
:102E900000297FF468AF6DE74006F2D54806F0D50B
:102EA0002046016851E8002F22F0400241E800244A
:102EB000002CF6D18367856600F09CF95AE7000084
:102EC00020010004E144000810B5040002D0A06F06
:102ED00010B107E0012010BD002084F874002046E6
:102EE00000F026F82420A0672068016821F0010185
:102EF0000160204601F0C2FB0128ECD0606A10B1ED
:102F0000204601F069FA2068416821F4904141604F
:102F10002068816821F02A0181602068016841F001
:102F2000010101602046BDE8104001F0B9BA00007F
:102F30002DE9F04786B0044614216846FDF71CFAD7
:102F40007849002324680220774E1039754A0325FA
:102F5000DFF8D8A10827B4424FF4406920D11468A3
:102F600044F400241460126802F4002205920A68F6
:102F700042F004020A60096801ACCDF8009001F04B
:102F80000401CDE9047184E8290069465046FDF743
:102F90006BFD00220A213420FDF71AFF342023E0C4
:102FA000634EB44225D1146844F080441460126822
:102FB00002F0804205920A6842F010020A60096835
:102FC00002AC01F0100105914FF4C071CDE9001081
:102FD00084E8A80057486946FDF746FD0022052110
:102FE0005220FDF7F5FE5220FDF7E4FE06B0BDE8E5
:102FF000F0874C4EDFF840C1361D64454FF0070C9A
:1030000021D1326842F010023260326802F01002C0
:1030100005920A6842F001020A60096802AA01F0FA
:10302000010105914FF4C061CDE9001082E828103C
:1030300042486946FDF718FD002205212520FDF7CD
:10304000C7FE2520D0E7DFF8F880444520D114687A
:1030500044F400341460126802F4003205920A68E5
:1030600042F008020A60096802AC01F0080105910B
:103070006021CDE9001084E8281032486946FDF748
:10308000F3FC002205212620FDF7A2FE2620ABE757
:10309000DFF8B480444520D1146844F480241460DF
:1030A000126802F4802205920A6842F002020A6065
:1030B000096801ACCDF8009001F00201CDE904C12E
:1030C00084E8290021486946FDF7CEFC002205214D
:1030D0002720FDF77DFE272086E71D4A944285D1F3
:1030E000326842F020023260326802F0200205921B
:1030F0000A6842F004020A60096802AA01F00401A9
:103100000591C021CDE9001082E8A800694650462B
:10311000FDF7AAFC002205214720FDF759FE4720B4
:1031200062E7000040380240004C004000080240C6
:1031300000780040001002400010014000000240F2
:1031400000440040000C02400048004000040240DF
:103150000014014030B4C36F202B1DD1C9B1C2B1DE
:1031600090F87430012B17D0012480F874400023AC
:10317000036603685B681B0208D5046854E8003FD7
:1031800043F0806344E80035002DF6D130BC01F0F7
:103190008DBB012030BC70470220FBE730B50068D2
:1031A000114988420CD1114841880A0408D40246CA
:1031B0004FF000034C04127806D50A2A01D0438050
:1031C00030BD41F400410DE00D2A09D0084DC1F396
:1031D0000D04491C89B2C7292A554180EFD830BD5A
:1031E00041F48041418030BD001001408C0000203E
:1031F000A04600207047FEE770B5114D4FF4805493
:10320000002221462846FDF760FD012000F08EFCDB
:10321000002228466100FDF758FD022001F0DCFE87
:10322000012221462846FDF750FD022001F0D4FE80
:1032300021462846BDE870400022FDF746BD00004B
:10324000000C0240114810B586B0016841F0080139
:103250000160006802220E4C4FF4405100F008005B
:1032600005900120CDE90202CDE900106946204613
:10327000FDF7FAFB012220465103FDF726FD01224E
:1032800020461103FDF721FD06B010BD3038024085
:10329000000C024070B5114D4FF4805400222146BD
:1032A0002846FDF712FD012000F040FC01222846CF
:1032B0005103FDF70AFD022001F08EFE0122214696
:1032C0002846FDF702FD022001F086FE2146284631
:1032D000BDE870400022FDF7F8BC0000000C024081
:1032E0002DE9F04700248046204600F01FFC174FD0
:1032F00000254FF480564FF40059314600223846DD
:10330000FDF7E3FC022001F067FE0122314638465A
:10331000FDF7DBFC60064946040E3846FDF7C8FCA5
:1033200008B1641CE4B2012001F056FE6D1CEDB240
:10333000082DE2D3B8F1000F04D0FFF75DFF20465F
:10334000BDE8F087FFF7A6FFF9E70000000C024098
:103350002DE9F0410546012000F0E8FB174F4FF43E
:103360008056002231463846FDF7AFFC00244FF46A
:103370000058280601D5012200E0002241463846C7
:10338000FDF7A3FC6806050E022001F025FE0122D0
:1033900031463846FDF799FC022001F01DFE00225F
:1033A00031463846FDF791FC022001F015FE641C01
:1033B000E4B2082CDDD3BDE8F0810000000C02402F
:1033C00070B5012000F0B2FB01220F4D54032846D6
:1033D0002146FDF77AFC0122284616033146FDF707
:1033E00074FC042001F0F8FD002221462846FDF778
:1033F0006CFC042001F0F0FD31462846BDE8704029
:103400000022FDF762BC0000000C024070B50120F4
:1034100000F08CFB0F4D4FF48054002221462846CB
:10342000FDF753FC6600284600223146FDF74DFCAF
:10343000042001F0D1FD012221462846FDF745FC7C
:10344000012231462846FDF740FCBDE870400420CB
:1034500001F0C2BD000C02402DE9F04100242046DD
:1034600000F064FB0122144D560328463146FDF757
:103470002CFC012001F0B0FD01222846170339463B
:10348000FDF723FC012001F0A7FD08E0641CE4B275
:10349000FA2C04D9FFF7BAFF0120BDE8F0813146CC
:1034A0002846FDF705FC0028F0D1002239462846C1
:1034B000FDF70BFC0020F0E7000C02407047000015
:1034C0002DE9F04F87B014216846FCF755FF4548B9
:1034D000016841F010010160016801F010010591DF
:1034E000016841F004010160016801F004010591E7
:1034F000016841F080010160016801F080010591DF
:10350000016841F001010160016801F001010591CC
:10351000016841F002010160016801F002010591BA
:10352000016841F008010160006842F20307DFF81A
:10353000B890002200F00800394605904846FDF793
:10354000C4FBDFF8A8A04FF4605801224146504662
:10355000FDF7BBFB0024DFF898B0022569467C200C
:103560008DE831005846FDF77FFA01266946CDE91E
:1035700002544846CDE90076FDF776FA4EF2F8009F
:103580001C4F8DE8310069463846FDF76DFA40F270
:103590009F7069468DE831005046FDF765FACDE928
:1035A0000254CDE9008669465046FDF75DFA0326D0
:1035B000694630028DE871003846FDF755FACDE9CD
:1035C0000064CDE9025669465846FDF74DFA4FF4BE
:1035D000C15069468DE831000748FDF745FA07B04C
:1035E000BDE8F08F3038024000080240000C024075
:1035F00000100240000402400000024010B59AB0E2
:1036000000241C21009407A80194029403940494BC
:1036100005940694FCF7B0FE2C210EA8FCF7ACFE36
:10362000364845F25F423449C0E90014C0E902421D
:10363000046144618461FEF721FA08B1FDF7B6F92F
:103640004FF4805000902D486946FEF707FB08B103
:10365000FDF7ACF92948FFF7A2F908B1FDF7A6F983
:10366000264804A9049405940694FEF7B5F908B118
:10367000FDF79CF96020CDE907042048002207A946
:1036800009940A940B940C940D94FFF7F6F808B182
:10369000FDF78CF91948042207A9FFF7EEF808B1E5
:1036A000FDF784F91548082207A9FFF7E6F808B1E5
:1036B000FDF77CF911480C2207A9FFF7DEF808B1E5
:1036C000FDF774F94FF400500E940F940103109419
:1036D000CDE9124011941494CDE9154107480EA983
:1036E00017941894FEF728F908B1FDF75FF903481D
:1036F000FFF782F81AB010BD0000014098040020C6
:1037000010B58EB000241C21009407A801940294E7
:103710000394049405940694FCF72EFE294845F280
:103720005F414FF08042C0E90024C0E902410461DA
:103730008461FEF7A3F908B1FDF738F94FF4805022
:10374000009020486946FEF789FA08B1FDF72EF986
:103750001C48FFF724F908B1FDF728F9194804A916
:1037600004940694FEF738F908B1FDF71FF96020BC
:10377000CDE907041348002207A909940B94FFF729
:103780007CF808B1FDF712F90E48042207A9FFF7EB
:1037900074F808B1FDF70AF90A48082207A9FFF7EB
:1037A0006CF808B1FDF702F906480C2207A9FFF7EB
:1037B00064F808B1FDF7FAF80248FFF71DF80EB0FB
:1037C00010BD0000E404002010B58CB02F48002488
:1037D0002D49D7224FF6FF7300940194029403946D
:1037E0000494059406940794089409940A9480E834
:1037F0001600C0E903348461FEF740F908B1FDF713
:10380000D5F84FF48050009020486946FEF726FA1C
:1038100008B1FDF7CBF81D48FEF7FDFD08B1FDF737
:10382000C5F81A4804A904940694FEF7D5F808B11F
:10383000FDF7BCF8012008210022CDE90740CDE9C1
:103840000941124807A9FEF755FD08B1FDF7AEF88A
:103850000E48042207A9FEF74DFD08B1FDF7A6F8B2
:103860000A48082207A9FEF745FD08B1FDF79EF8B2
:1038700006480C2207A9FEF73DFD002801D0FDF700
:1038800095F80CB010BD0000000400403005002089
:103890000D48002110B50B4C0C224FF4E1330460AD
:1038A000C0E90131C160C0E904128161C1610162F6
:1038B0004162FFF709FB002803D0BDE81040FDF787
:1038C00075B810BD007800407C0500200D4800212F
:1038D00010B50B4C0C224FF4E1330460C0E9013108
:1038E000C160C0E904128161C16101624162FFF7F8
:1038F000EBFA002803D0BDE81040FDF757B810BD23
:1039000000440040000600200D48002110B50B4C7B
:103910000C224FF4E1330460C0E90131C160C0E919
:1039200004128161C16101624162FFF7CDFA002892
:1039300003D0BDE81040FDF739B810BD0048004085
:10394000840600200D48002110B50B4C0C224FF4CA
:10395000E1330460C0E90131C160C0E90412816152
:10396000C16101624162FFF7AFFA002803D0BDE8F0
:103970001040FDF71BB810BD0014014008070020DF
:10398000FEE7FEE730B587B014216846FCF7F4FC8B
:103990001A48016841F004010160006800F0040069
:1039A0000590FFF74FFC164D4FF4006400222146AE
:1039B0002846FDF78AF9022100940120CDE9010192
:1039C000284603916946FDF74FF80121002000F0D9
:1039D00036F8002000F016F800F07F0040F01001EB
:1039E000002000F02CF88421FE2000F028F80121AE
:1039F000002000F024F807B030BD0000303802404D
:103A0000000C024010B50446FFF7DAFCE020FFF797
:103A10009FFCFFF721FD2046FFF79AFCFFF71CFDF6
:103A2000FFF7CEFCE120FFF793FCFFF715FD002028
:103A3000FFF756FC0446FFF7E9FC204610BD70B5C1
:103A40000D460446FFF7BCFCE020FFF781FCFFF7C2
:103A500003FD2046FFF77CFCFFF7FEFC2846FFF73E
:103A600077FCFFF7F9FCFFF7D1FCBDE870400A20B6
:103A700001F0A4BA70B5050A0446C9B1012926D0DF
:103A8000022933D0032940D004294DD1002116202A
:103A9000FFF7D5FF00211720FFF7D1FF1820E1B273
:103AA000FFF7CDFF19202946BDE87040FFF7C7BFDB
:103AB00000210620FFF7C3FF00210720FFF7BFFF0B
:103AC0000820E1B2FFF7BBFF09202946ECE70021FF
:103AD0000A20FFF7B4FF00210B20FFF7B0FF0C20F6
:103AE000E1B2FFF7ACFF0D202946DDE700210E20F3
:103AF000FFF7A5FF00210F20FFF7A1FF1020E1B283
:103B0000FFF79DFF11202946CEE700211220FFF785
:103B100096FF00211320FFF792FF1420E1B2FFF778
:103B20008EFF15202946BFE770BD000010B586B096
:103B3000044614216846FCF71FFC0D4B012C4FF482
:103B400000504FF002010CD0002C08D10022009050
:103B5000CDE90121039169461846FCF785FF06B0BF
:103B600010BD0122CDE90221CDE90002F3E70000FA
:103B7000000C024010B503F02BF901F0A9FB01F095
:103B8000DDFC0448006803F015FABDE8104003F0BE
:103B900043B9000074000020054920201CB5002313
:103BA0008022CDE90001064802A103F02DFB1CBDD7
:103BB0007400002053746172745F7461736B000051
:103BC000753B0008502010B572B680F31188BFF322
:103BD0004F8FBFF36F8F62B603F078FB18B10449C3
:103BE0004FF080500860002080F3118810BD000065
:103BF00004ED00E030B5B3B0302121A8FCF7BCFBE8
:103C000014212DA8FCF7B8FB84216846FCF7B4FB0F
:103C10002748016841F080510160006800F0805041
:103C200032902448016841F440410160006800245A
:103C30000DF1A40C00F44040329002252195102192
:103C40000822D823CDE927548CE82C0001202C959C
:103C5000CDE9240121A8FDF7A9FC08B172B6FEE761
:103C6000FDF7E8F808B172B6FEE74FF480522F94E2
:103C70004FF4A0510F20CDE93012CDE92D050721D9
:103C80002DA8FDF78BFB08B172B6FEE74FF4DE50AE
:103C900011941294149413941694179400906846F7
:103CA000FDF7FEF8002801D072B6FEE733B030BD54
:103CB00040380240007000400248016841F4700141
:103CC0000160704788ED00E00148FEF7D4BC0000B9
:103CD000980400200148FEF7CEBC0000E404002058
:103CE0000148FEF7C8BC00003005002010B50A4CA2
:103CF0002068C068C043C00709D1084800698047F0
:103D000022680021642051622168C862E0606FF07F
:103D100001002168086110BDEC470020F000002080
:103D200006480068C168C943C90703D104490A8825
:103D3000521C0A806FF00101016170475446002057
:103D40007C00002070B5154C2068C068C043C007D7
:103D50001ED1134D0023134918460A5C521CD2B2DF
:103D6000032A0A5401D345F82030FF2A00D30B540C
:103D7000401CC0B20428F0D30B480178491CC9B2DA
:103D80000170642904D9037001210848FCF795FFEC
:103D900021686FF00100086170BD0000C844002078
:103DA00058480020F8010020700000200008024060
:103DB0000148FEF760BC00008C070020F0B5274BDF
:103DC0004FF0804E264D02689842264E264F274CD3
:103DD00009D0704507D0A84205D0B04203D0B84200
:103DE00001D0A04205D1D1F804C022F070024CEA03
:103DF000020298421BD0704519D0A84217D0B04299
:103E000015D0B84213D0A04211D0194DA8420ED0FF
:103E1000184DA8420BD0184DA84208D0174DA84203
:103E200005D0174DA84202D0164DA84203D1CD6847
:103E300022F440722A434D6922F080022A43026034
:103E400098428A68C2620A68826201D0A04201D1A7
:103E50000969016301214161F0BD000000000140DA
:103E60000004004000080040000C00400004014035
:103E7000004001400044014000480140001800405B
:103E8000001C00400020004010B5046A012301F02E
:103E90001F018B409C4304628A40016A1143016206
:103EA00010BD42EA032283680A4323F47F410A4398
:103EB00082607047826822F070020A4342F0070174
:103EC00081607047F0B5026ADFF860C0184F22F0D9
:103ED0000102DFF860E00262066A4268836926F048
:103EE00002060D68B8428C6803EA0C0323F0030352
:103EF00044EA060445EA030501D0704505D1CB68C4
:103F000024F00804234323F00404B84201D0704590
:103F100005D122F44076D1E9053233431A43426099
:103F20008561496841630462F0BD00008FFFFEFFB8
:103F30000000014000040140F0B5026A194E1A4C1D
:103F400022F01002DFF864E00262056A43688269C9
:103F500025F02005D1F808C0A0420F6802EA060249
:103F600022F4407245EA0C1542EA072201D070455E
:103F700006D1CE6825F0800545EA061525F04005F6
:103F8000A04201D0704507D1D1E9054623F4406332
:103F900043EA840343EA860343608261496881639C
:103FA0000562F0BDFF8FFFFE0000014000040140EC
:103FB000F0B5026A194F1A4E22F48072DFF864E0FD
:103FC0000262056A4368C26925F40075D1F808C029
:103FD000B0420C6802EA070222F0030245EA0C250F
:103FE00044EA020401D0704506D1CF6825F400628E
:103FF00042EA072222F48065B04201D0704507D121
:1040000023F44052D1E9053642EA031242EA06138C
:104010004360C4614968C1630562F0BD8FFFFEFF64
:104020000000014000040140F0B5026A124B114F3C
:1040300022F4805298420262046A4268C36924F4FE
:1040400000548E680D6803EA070323F4407344EAC2
:10405000063443EA052302D0084DA84204D14D6935
:1040600022F4804242EA85124260C36149680164D9
:104070000462F0BDFF8FFFFE00000140000401401C
:10408000F0B5026ADFF844C022F480320262056AA9
:104090004268446D25F400350E8960450C4F0B686D
:1040A00004EA070445EA064543EA040302D0094C42
:1040B000A04204D14C6922F4803242EA04224260D8
:1040C0004365496881650562F0BD0000000001405C
:1040D0008FFFFEFF00040140F0B5026ADFF844C024
:1040E00022F480120262046A4268436D24F40014D0
:1040F0000E8960450C4F0D6803EA070344EA065435
:1041000043EA052302D0094DA84204D14D6922F4A7
:10411000802242EA8522426043654968C1650462A3
:10412000F0BD000000000140FF8FFFFE00040140D1
:1041300010B5036A046A23F00A0324F00104046240
:1041400084690B4324F0F00141EA021181610362AA
:1041500010BD000070B5046A174D24F0010404621C
:10416000A8428469056A14D0B0F1804F11D0134E73
:10417000B0420ED0124EB0420BD0124EB04208D018
:10418000114EB04205D0114EB04202D0104EB04296
:1041900003D124F00304144301E044F001041A079E
:1041A00024F0F00325F00A0401F00A01214343EA58
:1041B00012628261016270BD000001400004004093
:1041C00000080040000C0040000401400040014095
:1041D0000018004010B5036A23F0100303628369DE
:1041E000046A23F4704324F0A00443EA023282619B
:1041F00044EA0111016210BD70B5056AA0244FF6B2
:10420000FF7606EA033325F01005056204EA011182
:104210008469056A24F4407425F0A00544EA02226A
:10422000294322F4704213438361016270BD000090
:10423000104A38B5136843F0040313601268002372
:104240000D4C02F0040200920C4AC2E902301361E4
:104250001046C2E90041FDF711FC002206211E2094
:10426000FCF7B6FD1E20FCF7A5FDBDE8384003486D
:10427000FDF7AEBC4038024000080040EC4700208B
:10428000114838B5016841F008010160006840F24A
:10429000E73200210D4C00F0080000900C48D723B5
:1042A000C0E902120161C0E90043FDF7E7FB00220B
:1042B00032201146FCF78CFD3220FCF77BFDBDE877
:1042C00038400348FDF784BC40380240000C0040F1
:1042D000544600202DE9F041364800252DED048B91
:1042E0000668F069C04380065FD4716A3248C9B27B
:1042F0005529427800D112B1012A02D055E001229D
:1043000042702C4C0378203C5A1CD2B2E154022A51
:10431000027003D00B2A804605D046E0552944D0D0
:104320004570057041E000210846225C401C0A28C7
:104330001144C9B2F9DBA07A884232D1B4F9040041
:10434000FCF706F99FED1D8B53EC182BFCF71FF8BB
:104350009FED1C9B53EC192BFCF719F8FCF709F99E
:10436000144F143F7860B4F90600FCF7F1F853ECF1
:10437000182BFCF70CF853EC192BFCF708F8FCF79A
:10438000F8F8B860B4F90800FCF7E2F853EC182B21
:10439000FBF7FDFF53EC192BFBF7F9FFFCF7E9F8EE
:1043A000386088F8015088F80050F561BDEC048B46
:1043B000BDE8F081884A00201402002000000000BF
:1043C00000806640000000000000003F0148FEF74A
:1043D0003BBC00007C05002090F82410C90706D0E3
:1043E0000168836A4A6822F400321A434A6090F8EE
:1043F0002410890706D50168C36A4A6822F480320E
:104400001A434A6090F82410490706D50168036BE7
:104410004A6822F480221A434A6090F8241009075F
:1044200006D50168436B4A6822F400421A434A6089
:1044300090F82410C90606D50168836B8A6822F4B7
:1044400080521A438A6090F82410890606D50168C4
:10445000C36B8A6822F400521A438A6090F82410D1
:10446000490611D50168036C4A6822F480121A4388
:104470004A60016CB1F5801F06D10168436C4A683F
:1044800022F4C0021A434A6090F82410090606D5A7
:104490000168826C486820F400201043486070472F
:1044A00038B500250446C0F88050FCF713FC0346DD
:1044B0002068006800070BD56FF07E400090002256
:1044C00020464FF4001100F04DFA08B1032038BD2A
:1044D0002020A067E0672566002084F8745038BD6E
:1044E00010B5806B0021A0F85A10A0F85210FEF70A
:1044F000A5FB10BD016851E8002F22F4907241E83D
:104500000023002BF6D10168083151E8002F22F07A
:10451000010241E80023002BF5D1016E012908D1E9
:10452000026852E8001F21F0100142E80013002B3E
:10453000F6D100212022C26701664166704710B59E
:10454000C16FB0F85C202229016804D0886940F06E
:104550000800886110BD496A436D11401980416DA2
:10456000891C4165B0F85A10491EA0F85A10B0F8DD
:104570005A100029EED1026852E8001F21F4907110
:1045800042E80013002BF6D10168083151E8002FF2
:1045900022F0010241E80023002BF5D12022C2675E
:1045A0000021026E4166012A02D0FEF7F7FD10BD20
:1045B0000166026852E8001F21F0100142E8001372
:1045C000002BF6D10168CA69D243D20601D4102269
:1045D0000A62B0F85810FEF730FB10BD10B5C16F7D
:1045E000B0F85C202229016804D0886940F00800F6
:1045F000886110BD496A436D11401970416D491CB5
:104600004165B0F85A10491EA0F85A10B0F85A1077
:104610000029EED1026852E8001F21F4907142E8AF
:104620000013002BF6D10168083151E8002F22F069
:10463000010241E80023002BF5D12022C2670021AE
:10464000026E4166012A02D0FEF7A8FD10BD016688
:10465000026852E8001F21F0100142E80013002B0D
:10466000F6D10168CA69D243D20601D410220A6287
:10467000B0F85810FEF7E1FA10BD00002DE9F04146
:1046800004460368C2698168D4E90450DFF8F0C1C8
:104690007C4E29431F68002510437B4A014307EAEB
:1046A0000C070F431F604FF400402168E7684B6818
:1046B00023F440533B434B602768A369216AD7F832
:1046C00008C019432CF430630B43BB602168B1422E
:1046D0000AD1116811F0030152D001297CD00229BE
:1046E00071D003296ED184E0684B99420AD11168D8
:1046F00011F00C0167D0042965D0082975D00C2968
:1047000060D176E0624B99420AD1116811F0300114
:1047100059D010296BD0202967D0302952D168E0B8
:104720005C4B99420AD1116811F0C0014BD040296D
:104730005DD0802959D0C02944D15AE0564B9942C6
:104740000DD1116811F440713DD0B1F5807F4ED08C
:10475000B1F5007F49D0B1F5407F33D149E04F4BEF
:1047600099420FD1116811F4406109D0B1F5806F01
:104770003DD0B1F5006F38D0B1F5406F22D138E0AF
:10478000012120E0464B99420DD1116811F44051AE
:1047900019D0B1F5805F2AD0B1F5005F25D0B1F511
:1047A000405F0FD125E03F4B99420BD1116811F4C6
:1047B000404108D0B1F5804F19D0814215D0B1F5F4
:1047C000404F16D01021E369374A4FF6EF76834207
:1047D0002ED1092949D201E009E006E0DFE801F025
:1047E0000B0E11451345454516000221EBE7042148
:1047F000E9E70821E7E7FCF789FE06E0FCF796FE0B
:1048000003E0104602E0FCF7A1FE78B361684000C7
:1048100000EB5100B0FBF1F0A0F11001B14224D83F
:104820004FF6F0732168C0F342021840104320E0B5
:1048300009291AD2DFE801F005080B190D19191919
:104840001000FCF763FE06E0FCF770FE03E0104684
:1048500002E0FCF77BFE48B1616800EB5100B0FB61
:10486000F1F0A0F11001B14201D9012502E0216867
:1048700080B2C86000206066A0662846BDE8F0816E
:10488000F369FFEF001001409038024000440040FF
:1048900000480040004C004000500040001401401F
:1048A00000780040007C00400024F40030B58368AC
:1048B000002441654FF48055A0F85820AB42A0F881
:1048C0005A204FF0FF01446604D102697ABB40F2DE
:1048D000FF112CE04FF07F023BB3B3F1805F29D092
:1048E000A0F85C402221C0F88040C167016808310F
:1048F00051E8002F42F0010241E80023002BF5D1DE
:104900008168A94201D10169D9B11449416601699F
:1049100080F87440B9B1026852E8001F41F4907108
:1049200042E80013002BF6D116E0036933B9A0F872
:104930005C10D7E7016909B13F21F8E7A0F85C20D6
:10494000D0E70749E2E7016851E8002F42F0200272
:1049500041E80023002BF6D1002030BDDD450008E2
:104960003F4500082DE9F0479A4617460E46044693
:10497000089D4FF000094FF020084CE0681C4AD019
:10498000FCF7A8F9A0EB0A00A8422AD84DB320688A
:10499000016849073FD5C069C04300053BD4216881
:1049A0004FF400600862216851E8000F20F4D070D5
:1049B00041E80002002AF6D12068083050E8001FC4
:1049C00021F0010140E80012002AF5D1C4F87880F6
:1049D00084F87490C4F87C80C4F880800320BDE81B
:1049E000F087206850E8001F21F4D07140E80012E1
:1049F000002AF6D12068083050E8001F21F001019C
:104A000040E80012002AF5D1C4F8788084F8749048
:104A1000C4F87C80E2E72068C06936EA000004D070
:104A20000020B842AAD00020D9E70120F9E7000011
:104A300070B50D4D00240D48FEF706F902E0641C28
:104A4000AC4204D80948FEF7FAF82028F7D1002430
:104A500002E0641CAC4206D8054901220348FEF777
:104A600079FB0028F5D170BDFFFF010068470020E9
:104A70008C0000200148FEF7E7B800000006002087
:104A80000148FEF7E1B80000840600200148FEF767
:104A9000DBB8000008070020FEE700000FB4054B5C
:104AA00010B503A9044A029800F028F810BC5DF87C
:104AB00014FB0000ED4F00089000002009070028BB
:104AC0004FEA116104DB00F1E02080F80014704728
:104AD00000F00F0000F1E02080F8141D704702E0A4
:104AE00008C8121F08C1002AFAD170477047002079
:104AF00001E001C1121F002AFBD170472DE9FF4FD1
:104B00008DB00F460546002606E025280BD0DDE9CE
:104B10000F1290476D1C761C28780028F5D111B033
:104B20003046BDE8F08F0024A246A1460122E949A3
:104B300000E0044315F8013F203B02FA03F008426D
:104B4000F7D128782A2810D06FF02F022878A0F10A
:104B50003001092914D80AEB8A0102EB410144F023
:104B6000020400EB010A6D1CF0E701CF5FEA000AC6
:104B700003D544F40054CAF1000A44F002046D1C49
:104B800028782E2817D115F8010F44F004042A289C
:104B90000ED06FF02F022878A0F1300109290AD831
:104BA00009EB890102EB410100EB01096D1CF2E701
:104BB00057F8049B6D1C28786C280FD006DC4C2815
:104BC00017D068280DD06A2814D104E0742810D0BA
:104BD0007A280FD10DE044F400140AE044F4801464
:104BE00001E044F440146978814202D104F5801454
:104BF0006D1C6D1C28786E281ED00CDC632830D00C
:104C000004DC00288BD0582811D19FE0642867D09D
:104C100069280CD164E073282DD004DC6F2872D091
:104C2000702804D194E075286ED078286DD0DDE925
:104C30000F129047761C4BE1C4F30250022806D0B5
:104C4000032809D0042801CF09D0066040E101CF34
:104C5000F117C0E900613BE101CF068038E1067041
:104C600036E117F8040B8DF8000000208DF80100E4
:104C7000EB46012003E057F804BB4FF0FF3061071B
:104C80004FF0000102D40DE008F1010188464945CA
:104C90000FDA8045F8DB1BF808100029F4D108E092
:104CA00008F1010188468142FADB1BF8081000294F
:104CB000F6D1DDE90F23AAEB08008146214600F07A
:104CC00031F9304400EB080604E0DDE90F121BF86F
:104CD000010B9047B8F10108F7D221464846F2E0AF
:104CE0000A21C4F302524FF0000B0891022A04D0AB
:104CF00001CFC117032A09D00AE0FF1D27F00707DB
:104D0000F7E8020108E02CE01EE01FE000B2C11746
:104D1000042A01D140B2C117021E71F1000206DA65
:104D20000023D0EB030063EB01012D2202E02205FA
:104D300004D52B228DF82420012203E0E20701D0C4
:104D40002022F7E7904653E00A210BE0102109E00A
:104D500010214FF0000B44F004044FF008090891B3
:104D600003E008214FF0000B0891C4F30252022A1D
:104D700004D001CF0021032A06D006E0FF1D27F052
:104D80000707F7E8020103E080B2042A00D1C0B2AD
:104D90004FF0000822072BD52A78702A07D0DDF8BB
:104DA00020C08CF0100C5CEA0B0C05D00EE0402209
:104DB0008DF82420012208E050EA010306D03023B8
:104DC0008DF824308DF8252002229046089B83F030
:104DD000080353EA0B030BD150EA010201D1620729
:104DE00006D530228DF824204FF00108A9F10109E1
:104DF0002A78582A04D038A20B9208AA0A920BE00B
:104E00003AA2F9E75B46089AFBF75EFA0B9B9B5CBC
:104E10000A9A521E0A92137050EA0102F2D10A98BD
:104E2000ADEB000000F1200B600702D524F48034C4
:104E300001E04FF00109D94502DDA9EB0B0000E0CC
:104E4000002000EB0B0141440890AAEB010AE003AB
:104E500006D4DDE90F232146504600F063F80644EE
:104E60004FF0000908E009A911F80900DDE90F1267
:104E7000904709F10109761CC145F4DBE0030CD52C
:104E8000DDE90F232146504600F04CF8064404E0CB
:104E9000DDE90F1230209047761C0899481E0890D3
:104EA0000029F5DC08E00A980A990078491C0A9163
:104EB000DDE90F129047761CBBF10001ABF1010B4D
:104EC000F1DC21465046DDE90F2300F019F80644D5
:104ED0006D1C21E609280100303132333435363774
:104EE0003839616263646566000000003031323336
:104EF00034353637383941424344454600000000D6
:104F00002DE9F041044600251E461746880404D4C6
:104F100005E039462020B0476D1C641EF9D52846AF
:104F2000BDE8F0812DE9F041044600251E4690467B
:104F3000C80301D5302700E02027880404D505E008
:104F400041463846B0476D1C641EF9D52846BDE879
:104F5000F081000002494861014602A0FFF79EBDB2
:104F60004445002025640000114838B5016841F02F
:104F700020010160006840F2DB5200210D4C00F07E
:104F8000200000900C48D723C0E902120161C0E95B
:104F90000043FCF773FD002209213720FBF718FFBF
:104FA0003720FBF707FFBDE838400348FCF710BE89
:104FB0004038024000140040C844002030B50023AF
:104FC00004464FF47A7504E0284600F005F85B1CAF
:104FD0009BB2A342F8D330BD034900220A600A689D
:104FE0008242FCD370470000241400400349CA6980
:104FF0005206FCD5C2B28A62704700000010014020
:105000000C480D49DFED0D0A90ED000A90ED031AF2
:1050100030EE010A10EE100A884202DD30EE600A1E
:10502000704710EE100A06498842F9D930EE200A7E
:1050300070470000744A0020000034430000B4436D
:10504000000034C370B53B4C00203B4D3B493C4A0B
:105050003C4B2668F6B3B1FBF6F692ED001A93EDE1
:10506000000AB8EEC11AB8EEC00A00EE906AF8EE77
:10507000600A60EE810A20EE800ABDEEC00A85ED6E
:10508000040A314E656835B3B1FBF5F592ED011AAE
:1050900093ED010AB8EEC11AB8EEC00A00EE905ABC
:1050A000F8EE600A60EE810A20EE800ABDEEC00ACA
:1050B00086ED040A254EA56895B3B1FBF5F5D2ED52
:1050C000020A93ED021AF8EEE00A00EE105AB8EE6A
:1050D000400A01E025E026E0B8EEC11A20EE200AE1
:1050E00020EE010ABDEEC00A86ED040A184DE46800
:1050F000ECB1B1FBF4F092ED031A93ED030AB8EEB4
:10510000C11AB8EEC00A00EE900AF8EE600A60EE2E
:10511000810A20EE800ABDEEC00A85ED040A70BD4A
:1051200003E02861ADE73061C4E73061DEE7286164
:10513000F5E700005848002014450020A086010033
:1051400004020020784800202C450020444500201F
:105150005C45002010B50B4C0021094B0C2223604C
:10516000C4E90101E16020462161C4E90521FDF7A0
:10517000ABFE2068016841F02001016010BD000015
:10518000004C0040884A002030B5D0E904329FED41
:105190002A0AD21A4260D0ED000A91ED052A8468ED
:1051A000F4EEC20A151BF1EE10FA01EE105AF8EEF9
:1051B000C11A0ADC02EE903A91ED061AF8EEE22AE4
:1051C000F4EEC12AF1EE10FA02DD002A14DB17E03A
:1051D000B1EE422AF4EEC20AF1EE10FA0AD302EE60
:1051E000103AB1EE411AB8EEC22AB4EEC12AF1EE7D
:1051F00010FA01D2002A03DD00EE102AB8EEC00A30
:1052000091ED001AC3686542D1ED012A21EE211A01
:1052100091ED022AD11801EB450102EE801A00EE51
:10522000101AB8EEC00A02EE001A31EE200A80ED24
:10523000000AC0E9022430BD00000000FBF758FD61
:10524000FEF7D8FCFEF73CF9FEF7D8F9FEF758FA5E
:10525000FEF7BAFAFEF71CFBFEF738FBFEF754FB2D
:10526000FEF770FBFFF70CF8FFF77EFE00F080FD05
:1052700013480021FDF742FC11480421FDF73EFCD4
:105280000F480821FDF73AFC0D480C21FDF736FCCC
:105290000C480021FDF732FC0A480421FDF72EFCE2
:1052A00008480821FDF72AFC06480C21FDF726FCDA
:1052B000FEF772FCFEF702F900F07AF9FEE7000053
:1052C000E4040020980400200A2001F0FFFDFBE721
:1052D00005490A201CB500238022CDE900010648BB
:1052E00002A101F091FF1CBD780000206D61696E84
:1052F0005F7461736B000000C952000812480021FE
:1053000010B5FDF77FFB10480421FDF77BFB0E482D
:105310000821FDF777FB0C480C21FDF773FB0B48C8
:105320000021FDF76FFB09480421FDF76BFB0748DF
:105330000821FDF767FB05480C21FDF763FBBDE87D
:10534000104000F03BB9000098040020E404002065
:1053500000B599B018216846FBF70EF812481822DC
:105360006946FAF7E2FF182106A8FBF705F80E4890
:10537000182206A91830FAF7D8FF18210CA8FAF756
:10538000FBFF094818220CA93030FAF7CEFF18218C
:1053900012A8FAF7F1FF0448182212A94830FAF7C8
:1053A000C4FF19B000BD00001445002070B51C4AB0
:1053B00000294FF080434FF0000445F2780516DBDA
:1053C000A94200DD2946012808D0022809D0032877
:1053D0000AD0042801D11C64996370BD94631164E0
:1053E00070BD5463D16370BDDC63596370BD45F219
:1053F0007806F14200DB4D42012808D0022809D08E
:1054000003280AD00428F1D19C631D6470BD146484
:10541000956370BDD463556370BD5C63DD6370BD1F
:10542000000001402DED028B82B001F049FFDFF852
:10543000E090DFF8E080384C384D394E394F9FED21
:10544000328ADFED328A0090FFF7FCFDF0EE480A69
:10545000B0EE680A00F0DCFB99ED000AFDEEC00A30
:10546000C4ED050AC5ED050A99ED010ABDEEC00AB5
:1054700086ED050A87ED050A98F80110491CC9B2A6
:1054800088F80110642906D90021274888F80110FE
:105490000221FBF712FC25492048FFF775FE24493D
:1054A0001D48FFF771FE23491E48FFF76DFE224994
:1054B0001B48FFF769FE95ED000A0120BDEEC01AFA
:1054C00011EE101AFFF772FF94ED000A0220BDEEF4
:1054D000C01A11EE101AFFF769FF97ED000A0320BA
:1054E000BDEEC01A11EE101AFFF760FF96ED000A2C
:1054F0000420BDEEC01A11EE101AFFF757FF052168
:10550000684601F00BFD9FE7000096430000000095
:1055100018020020FC0100202C450020144500202A
:105520005C450020444500200008024074450020EE
:1055300090450020AC450020C845002005490820C2
:105540001CB500238201CDE90001064802A101F04B
:105550005BFE1CBD000200206D6F746F725F746192
:10556000736B00002554000800B500F007F80248EE
:1055700080ED030A00BD0000744A002030EEC00A2E
:1055800008499FED091A10EE100A884202DD30EE3C
:10559000410A704710EE100A04498842F9D930EEEA
:1055A000010A7047000034430000B443000034C3D4
:1055B00010B501F057FD002010BD0000F0B49FEDC4
:1055C000412ADFED410A4448F1EE001A9FED3F1AEF
:1055D00080ED052AC0ED000AC0ED011AB6EE000A02
:1055E000DFED3B2A80ED021A80ED030A00F11C0179
:1055F000C0ED062A81ED052AC1ED000AC1ED011AB0
:1056000081ED021A81ED030A00F13802C1ED062A8C
:1056100082ED052AC2ED000AC2ED011A82ED021ADE
:1056200082ED030A00F15403C2ED062A83ED052A38
:10563000C3ED000AC3ED011A83ED021A83ED030ADC
:1056400000F17004C3ED062A84ED021ADFED244A4E
:1056500084ED030AC4ED050A9FED204AC4ED044A17
:10566000F2EE083A00F18C05C4EC023AB7EE005AAB
:105670009FED183AC5ED000A85ED013ADFED195AA4
:1056800085ED020A9FED186A85ED035ADFED176A72
:10569000C5ED055A00F1A80685ED046AC6ED006A5D
:1056A00086ED013A9FED127A86ED020ADFED117A5E
:1056B00086ED030A86ED057AC6ED047AF0BCFFF7A5
:1056C00047BE000000B8A1460000484200000000AC
:1056D000000048436F12833B74450020A69B443B67
:1056E000000048C20000A0420000A0C29A99993F61
:1056F0000000C8420000C8C290ED060AD0ED020AC0
:1057000070EE600AC0ED010AD1ED051A90ED001AA5
:1057100090ED040AB4EEE11AF1EE10FA05DBF5EEB5
:10572000C00AF1EE10FA0CD30FE0D1ED041AB4EE7A
:10573000E11AF1EE10FA04D8F5EEC00AF1EE10FA13
:1057400003DD30EE200A80ED040A90ED034A91ED6E
:10575000031A91ED000A30EEC44AF7EE003A20EE4B
:10576000200A73EEC13A24EE011A90ED053A91ED4C
:10577000012AD0ED042A03EE831AD1ED021A02EEBB
:10578000220A01EE810A80ED000AC0ED030A80EDD5
:10579000051A70472DE9F041184C0F460546666919
:1057A0002068001D01F0C2FA38B922680121A06901
:1057B00092F82C2091408843A061681C07D137B132
:1057C0002168BDE8F0410E48091D01F0F5BA2068D6
:1057D0003544B5424560216805D2A068091DBDE881
:1057E000F04101F0D1BA6068091D01F0CDFA206BDB
:1057F000854200D22563BDE8F08100001000002042
:10580000B40800202DE9F041054601F0E1FA2E4CE4
:105810002E4F2069401C2061206810B1E06940B320
:105820002DE025602069012829D1002606EB86009D
:1058300007EB800001F09AFA761C072EF6D3234876
:105840008C3001F093FA2148A03001F08FFA1F4804
:10585000B43001F08BFA1D48C83001F087FA1B48BC
:10586000DC3001F083FA19488C3060601430A0609D
:1058700005E0E86A2168C96A814200D825600120F4
:10588000E16A491CE162E96AA26988401043A061AB
:1058900001EB8100291D07EB800001F08DFA01F07A
:1058A000BBFAE06900280CD02068E96AC06A884227
:1058B00007D207494FF080500860BFF34F8FBFF306
:1058C0006F8FBDE8F081000010000020D807002095
:1058D00004ED00E010B5044690F8510068B10128CD
:1058E0000ED0022811D0502072B680F31188BFF379
:1058F0004F8FBFF36F8F62B6FEE7206B01F0A2FA05
:105900002046BDE8104001F09DBA10BD11484FF48B
:10591000705110B5420706D00E49C01D20F0070097
:10592000411AC1F570510C4C002301440839A4F10F
:10593000100221F00701C4E900030C1A11604B604A
:105940000B60C0E9001494604FF000415460D160D6
:1059500010BD0000C80800205C000020144E4FF06D
:105960008058144CDFF85090A6F1C80712E000BF31
:1059700001F02EFAF068C568281D01F0D7F92069FA
:10598000401E2061E068401EE06001F045FA2846B4
:10599000FFF7A0FFE0680028EAD138680128F9D9AC
:1059A000C9F80080BFF34F8FBFF36F8FF2E700009D
:1059B000A00800201000002004ED00E02DE9F047D1
:1059C0009A4681466FF00303DDE9098403EB820206
:1059D000089E206B104420F00707780709D050205C
:1059E00072B680F31188BFF34F8FBFF36F8F62B62B
:1059F000FEE74FF0000561B1002023180A5C83F830
:105A000034200A5C12B1401C1028F6D384F84350AD
:105A100001E084F83450072E00D30626E662201DEC
:105A2000C4E9116501F0ADF904F1180001F0A9F91C
:105A3000E564C6F10700A06184F850505246246125
:105A400049463846646200F0C9F8B8F1000F20609A
:105A500001D0C8F80040BDE8F087000030B511491A
:105A600000E011460A688242FBD34B685C1884420E
:105A700003D14468084623444B6043681D1895428F
:105A800009D1084C103C2468A24209D052681A443B
:105A900042600A6812680260814200D0086030BD2E
:105AA0000460F9E75C00002006484168096829B1F4
:105AB0004168C968C9684968016370474FF0FF31A0
:105AC000FAE70000100000200A484068401C4FF030
:105AD000500072B680F3118805D0BFF34F8FBFF32B
