:020000040800F2
:10000000885B0020A5020008E74B00082343000896
:10001000E54B0008D50F00085167000800000000FC
:10002000000000000000000000000000E1010008E6
:100030007F140008000000003D020008C1560008BF
:10004000BF020008BF020008BF020008BF0200088C
:10005000BF020008BF020008BF020008BF0200087C
:10006000BF020008BF020008BF020008BF0200086C
:10007000BF020008BF020008BF020008BF0200085C
:10008000BF020008BF020008BF020008BF0200084C
:10009000BF020008BF020008BF020008BF0200083C
:1000A000BF020008C5570008BF020008BF020008D1
:1000B000D1570008DD570008E9570008BF020008C3
:1000C000BF020008BF020008BF020008BF0200080C
:1000D000BF020008E96600082D67000839670008BC
:1000E000BF020008BF020008BF020008BF020008EC
:1000F000BF020008AD580008BF020008BF02000898
:10010000BF020008BF0200081D580008BF02000817
:100110008D5F0008BF020008BF02000841580008B8
:10012000BF020008BF020008BF020008BF020008AB
:10013000BF020008BF020008BF020008BF0200089B
:10014000BF020008BF020008BF020008BF0200088B
:10015000BF020008BF020008BF0200084567000890
:10016000BF020008BF020008BF020008BF0200086B
:10017000BF020008BF020008BF020008BF0200085B
:10018000BF020008BF02000885600008BF02000827
:10019000BF020008BF020008BF020008BF0200083B
:1001A000BF020008BF020008BF020008BF0200082B
:1001B000BF020008BF020008BF020008BF0200081B
:1001C000BF020008BF020008DFF810D000F092FB69
:1001D00000480047D5750008AFF30080885B002019
:1001E0002D4B19680868B0E8F04F80F30988BFF319
:1001F0006F8F4FF0000080F31188704700000000FF
:1002000008480068006880F308884FF0000080F319
:10021000148862B661B6BFF34F8FBFF36F8F00DFF4
:1002200000BF00BF08ED00E0DFF80C00016841F4FA
:1002300070010160704700BF88ED00E0EFF30980B6
:10024000BFF36F8F144B1A681EF0100F08BF20ED1C
:10025000108A20E9F04F106009B44FF0500072B6D8
:1002600080F31188BFF34F8FBFF36F8F62B609F031
:100270001BFC4FF0000080F3118809BC1968086866
:10028000B0E8F04F1EF0100F08BFB0EC108A80F3FA
:100290000988BFF36F8F704710000020EFF30580CF
:1002A000704700000648804706480047FEE7FEE723
:1002B000FEE7FEE7FEE7FEE7FEE7FEE7FEE7FEE716
:1002C000B5570008C90100082DE9F05F0546002078
:1002D00092469B4688460646814640241BE02846B7
:1002E00041464746224600F04EFA53465A46C01A47
:1002F000914110D311461846224600F035FA2D1AC6
:1003000067EB01084F4622460120002100F02CFA3D
:1003100017EB00094E41201EA4F10104DFDC484622
:1003200031462A464346BDE8F09F10B5431A934232
:1003300009D28318881803E010F8011D03F8011D85
:10034000521EF9D210BD40EA01039B0703D009E019
:1003500008C9121F08C0042AFAD203E011F8013BB1
:1003600000F8013B521EF9D210BDD2B201E000F8F4
:10037000012B491EFBD270470022F6E710B5134649
:100380000A4604461946FFF7F0FF204610BD2DE946
:10039000FE4F804681EA0300C00F0C46009021F01A
:1003A000004123F00045B8EB0200A94105D24046C8
:1003B000214690461C460B46024623F0004010435F
:1003C00047D0270DC7F30A00C3F30A510290401A21
:1003D000019040286BDAC3F3130040F4801B0098AF
:1003E000924620B10023D2EB030A63EB0B0B01987A
:1003F0005946C0F14002504600F0B6F906460D4697
:1004000050465946019A00F0CEF910EB08006141C0
:10041000002487EA115284EAE7731A4340D0009A15
:1004200062B3019A012A4FEA075215DC001B61EB07
:1004300002014FF0004202EA0752CDE90042001CDF
:1004400041F5801132462B4600F005FA03B0BDE8B5
:10045000F08F40462146F9E7001B61EB0201001CCA
:1004600041F5801300185B412018A2F5001747EBF7
:10047000030140EAD570B6196D4111E06D084FEAED
:10048000360645EAC0754FEA0752001B61EB0201D0
:10049000001C41F5801149084FEA30000019514114
:1004A00032462B4603B0BDE8F04F00F0C5B90098C6
:1004B000012240000023D0EB020263EBE0730098BE
:1004C00021464FEAE074B8EB000061EB0401E9E774
:1004D00083F000435BE781F0004158E72DE9FE4FD0
:1004E00081EA030404F0004421F0004100944FF03D
:1004F000000B23F0004350EA01045ED052EA0304EB
:100500005BD0C3F30A54C1F30A552C44A4F2F3346C
:100510000194A0FB0254C1F3130141F48011C3F311
:10052000130343F4801301FB024400FB034E840ACF
:10053000970A44EA815447EA8357A4FB0768029567
:100540008D0A05FB07854FEA932C04FB0C54270505
:10055000029D4FEA065847EA1637B5EB08056EEBE1
:10056000070C870E920E47EA811742EA8312A7FB17
:100570000201B6EB0B0164EB00042B0D43EA0C33D4
:100580005E1844EB1C50DA465146E7FB0201C5F306
:1005900013044FEA0B3343EA14534FEA0432019C2D
:1005A00043EA0603A4F10C040294009CCDE900B4D4
:1005B00000F051F903B0BDE8F08F00200146F9E7E3
:1005C0002DE9F04D81EA030404F0004B21F00045D1
:1005D00014464FF0000A23F0004150EA050220D0F3
:1005E00054EA01021DD0C5F30A570246C5F31303AE
:1005F000C1F31300C1F30A5640F4801543F480138D
:10060000A7EB0608101BD64608F2FD3873EB050071
:1006100002D308F1010801E092185B41B8F1000F24
:1006200003DA00200146BDE8F08D00204FF4801170
:10063000064684460EE0171B73EB050705D3121B15
:1006400063EB050306434CEA010C49084FEA30000E
:1006500092185B4150EA0107EDD152EA030012D033
:1006600082EA040083EA0501084305D0101BAB4170
:1006700006D20122002306E000224FF0004302E0F0
:100680006FF0010253101AEB06004CEB085110EB0F
:100690000A0041EB0B01BDE8F04D00F0CDB80EB5FE
:1006A000C10F80EAE0700844CA07002140F23343DA
:1006B0008DE80E000A460B4600F0CDF803B000BDF1
:1006C0000EB540F2334102910021CDE900110A46F6
:1006D0000B4600F0C0F803B000BD00F0004230F05F
:1006E00000400AD0C10D01F56071C0F3160042EA66
:1006F0000151C2084007114370470020014670476E
:1007000030B5041E71F1000404DB4FF00044404298
:1007100064EB0101141E73F1000405DB1C464FF06D
:100720000043524263EB0403994208BF904230BD3C
:1007300001F0004330B421F0004150EA010206D03C
:100740000A0DA2F56072C1F31301002A02DC30BC6D
:1007500000207047440F44EAC104C100E01830BCD7
:1007600000EBC25000F031B8202A04DB203A00FA36
:1007700002F1002070479140C2F1200320FA03F3F8
:10078000194390407047202A04DB203A21FA02F0F6
:100790000021704721FA02F3D040C2F120029140BB
:1007A000084319467047202A06DBCB17203A41FA46
:1007B00002F043EAE07306E041FA02F3D040C2F1EE
:1007C000200291400843194670470029A8BF70478E
:1007D000401C490008BF20F00100704710B4B0FA77
:1007E00080FC00FA0CF050EA010404BF10BC704712
:1007F00049B1CCF1200421FA04F411FA0CF118BF2C
:10080000012121430843A3EB0C01CB1D4FEA0061FA
:100810004FEA102042BF002010BC704700EBC350CD
:1008200010440029A4BF10BC7047401C490008BFF9
:1008300020F0010010BC704710B5141E73F10004C5
:1008400008DA401C41F1000192185B411A4301D1C2
:1008500020F0010010BD2DE9F04D92469B4611B1EC
:10086000B1FA81F202E0B0FA80F220329046FFF74E
:100870007BFF04460F4640EA0A0041EA0B0153465B
:100880005A46084313D0114653EA010019D0C8F163
:1008900040025046FFF777FF05460E465046594640
:1008A0004246FFF761FF084305D0012004E02046DF
:1008B0003946BDE8F08D0020054346EAE0762C433A
:1008C00037430A986305E40AA0EB08000022FD0AFA
:1008D00044EA47540A3002D500200146E9E7010501
:1008E00010196941DDE9084500196941BDE8F04D7D
:1008F000A2E70000064C074D06E0E06840F0010367
:1009000094E8070098471034AC42F6D3FFF760FC38
:10091000E8A0000808A1000870B58C1810F8015B69
:1009200015F0070301D110F8013B2A1106D110F888
:10093000012B03E010F8016B01F8016B5B1EF9D18C
:100940002B0705D40023521E0DD401F8013BFAE712
:1009500010F8013BCB1A921C03E013F8015B01F87D
:10096000015B521EF9D5A142D8D3002070BD000012
:10097000044830EE601A30EE200A80ED001A80ED57
:10098000010A7047C80D002070B5074E00240546C7
:1009900007E0012000F0A8FFD6F808010028FBD1ED
:1009A000641CAC42F5D370BD008040422DE9F04795
:1009B0002DED048B88B0DFED458A454C4648454E09
:1009C000C4ED038A0088C0F3C110032806D106F0E5
:1009D000DDFB042086ED010A07F0E2F93F491C2205
:1009E0006846FFF7A2FC3D489FED3D0A3D4F3E4D56
:1009F00080ED000A02E0052008F04AFFA868B8422E
:100A0000F9DD02E0022008F043FFA868B842F9DCF3
:100A1000DFF8DC809FED358A364F84ED038ADFF8FE
:100A2000D8A0DFF8D890B0EE089AD4ED079A1EE06F
:100A300006F09CFD06F03AF998F8021040460129AC
:100A400027D0417829B3C178012927D0007828B36D
:100A500006F09CFB86ED010A94ED070A84ED038AFB
:100A600030EE690A10EE100A052008F011FFA868A0
:100A7000B842DDD3A0465446A868B84213D994EDD5
:100A8000020A022086ED010AC8ED028A08F000FF82
:100A9000F2E706F07BFB30EE090ADBE706F076FBB7
:100AA00030EE490AD6E7022007F07AF900202075D7
:100AB00020781C22694640F0040020700748FFF7A8
:100AC00034FC08B0BDEC048BBDE8F0870000964311
:100AD000C80D0020F40D002064570020D4510020E0
:100AE0009A99D93F00002041A056002000004844B8
:100AF0001A020020000070C1385700200000AA42EE
:100B00002DE9F0436A491C222DED048B87B0B0EE2D
:100B1000408A6846FFF709FC664C0420F3EE048A1D
:100B2000C4ED038A07F03CF9634D01E006F0BEF81E
:100B3000287A0228FAD901E006F0B0F8287A0A28C3
:100B4000FAD200F049FA4FF4FA7000F0CDFE2868AE
:100B50005A4E10F4C07F6CD1DFF8549110F03F0F63
:100B6000574F4FF08048BBEE0E9A00F47C402CD0DB
:100B7000002007F015F984ED019A84ED009A94EDB8
:100B8000070ABDEEC00A00BFB8EEC01AD4ED070ACE
:100B900071EE600A10EE900AB842F5DB00F01CFA24
:100BA000B2EE0E0A05F0CAF94FEA080706F0EEFAAF
:100BB000D6ED000A30EEC00AB0EEC00A10EE100A00
:100BC000B842F3DCB1EE080A2CE090B3002007F045
:100BD000E7F884ED019A84ED009A94ED070ABDEEE2
:100BE000C00A00BFB8EEC01AD4ED070A71EE600A61
:100BF00010EE900AB842F5DB00F0EEF9BAEE0E0AFC
:100C000005F09CF94FEA080706F0C0FAD6ED000A95
:100C100030EEC00AB0EEC00A10EE100AB842F3DCA3
:100C2000B0EE080A89ED000A0420C4ED038A07F03B
:100C3000B7F89FED240A042084ED030A07F0B0F80A
:100C4000214F2249B8688842FDDB19481C226946B9
:100C5000FFF76BFB062005F0D8FF022084ED028A27
:100C600007F09EF8A8461A4D0DE000BF98F808005E
:100C70000A2808D306F08AFA86ED010A042084EDDA
:100C8000038A07F08DF8B868A842EFDC1149884262
:100C9000FDDB022007F084F884ED028A0E49B86873
:100CA0008842FDDA07B0BDEC048BBDE8F08300009C
:100CB000D4510020C80D002064570020F40D0020FE
:100CC0000000B04100002042A05600200000A041DA
:100CD0000000A0400000704100002041F0B57349C1
:100CE0001C222DED048B87B06846FFF71EFB704C6D
:100CF0006E48B3EE090AF2EE0E0A9FED6E1A80ED11
:100D0000000AC0ED020AF0EE001A84ED021A022079
:100D1000C4ED081A07F044F8674D6849A86888428E
:100D2000FDD39FED679A9FED670A4FF4967084EDAF
:100D3000080A84ED029AFFF727FE00F04DF9624E93
:100D400095ED000AD6ED020A06F066FF002094ED4C
:100D5000078A07F025F8FBEE0E8AC4ED018AC4ED80
:100D6000008A4FF0824100BF94ED070A38EE400A36
:100D700010EE100A8842F7DB00F02EF9B0EE498A37
:100D800084ED048A04F0EAF9052005F03EFF6420B2
:100D900006F086F8032005F038FF9FED4C0A05F0B9
:100DA000CDF84B4D4FF0804706F0F0F9D5ED000A35
:100DB00030EEC00AB0EEC00A10EE100AB842F3DC02
:100DC000307905F085FFE8B3012005F01EFF3220E1
:100DD00006F066F89FED3F9AB0EE490A05F0AEF8CE
:100DE0003D4F00BF06F0D2F9D5ED000A30EEC00A43
:100DF000B0EEC00A10EE100AB842F3DCB0EE490AB9
:100E000005F09CF806F0C2F9D5ED000A30EEC00AF4
:100E1000B0EEC00A10EE100AB842F3DC9FED2F0AC4
:100E200005F08CF84FF07E5706F0B0F9D5ED000ACA
:100E300030EEC00AB0EEC00A10EE100AB842F3DC81
:100E4000022000E004E005F0E0FE322006F028F881
:100E50009FED230A84ED040A06F0D6FC642006F018
:100E60001FF8002006F09CFFC4ED018AC4ED008A43
:100E70004FF4FA7000F038FD00F0AEF806F086F995
:100E800085ED010AB0EE480AFFF73AFE07481C223A
:100E90006946FFF74AFA00203075307840F00400C8
:100EA000307007B0BDEC048BF0BD00009C510020F9
:100EB000C80D002000008C42A0560020000088C110
:100EC000000070426666E63F38570020000033435A
:100ED000F40D002000000243000020410000F04219
:100EE0000000A04230B51E491C2204462DED028BA5
:100EF00087B06846FFF719FA1B4D19489FED198A0C
:100F00009FED1A0A85ED028A80ED000A022006F0A4
:100F100047FF1748174A81689142FDD3164885ED6F
:100F2000028A9142FDD88142FDDB022C07D1814229
:100F3000FDDC9142FDD39142FDD88142FDDB0848A2
:100F40001C226946FFF7F1F90C4800210175017870
:100F500041F00401017007B0BDEC028B30BD000010
:100F60009C51002000003442C80D0020000048427F
:100F7000A0560020000020C100002041385700206A
:100F800010B5114C02202DED028BB0EE408A9FED82
:100F90000F0A84ED020A06F003FF94ED070A00BF72
:100FA000D4ED070A70EEC00AF4EEC80AF1EE10FAAA
:100FB000F6D3074800210175017841F00401017062
:100FC000BDEC028B10BD0000C80D002000002042C7
:100FD00038570020FEE70000002010B506F0E0FEC4
:100FE00004489FED030A80ED010A80ED000A10BD60
:100FF00000000000C80D00202DE9F04FDFF8FC8351
:10100000FF4C2DED048B81B0DFEDFE8ADFF8F8A3F5
:10101000012798F8001008F1070904F11800009062
:1010200071B999F8001088F80070207906F0D0F8AE
:1010300000EB8001009814220AEB8101FFF775F99B
:10104000EE4EDFF8C8B3761EF14DB0EE048A30786C
:10105000012802D000287DD09AE0022006F0A0FEF0
:10106000A089FFF72DFB9FEDEB1B53EC112BFFF736
:1010700035FA95ED070A41EC190BB0EEC00A10EEF7
:10108000100AFFF72AFB53EC192BFFF739FB5ED848
:1010900000203070E08880050CD5E0480088C0F35F
:1010A000C110032806D1DE48D4ED020A90ED000AF3
:1010B00006F0B2FD06F06AF8D4ED070A06F0B6FDB8
:1010C000B0EEC00A10EE100A58450BDDD4ED070A49
:1010D00094ED020A06F0AAFDB0EEC00A10EE100A66
:1010E000584514DCB0EE000A85ED080A2069FFF7C8
:1010F000F4FA9FEDCC1B53EC112BFFF7EFF9FFF740
:1011000017FB00EE100A00BF85ED020A40E085EDF6
:10111000088AE088400503D5B3EE0E0A85ED020A81
:101120002069FFF7DAFA9FEDC11B53EC112BFFF793
:10113000D5F99FEDC01B53EC112BFFF7E1FA03D259
:101140009FEDBE0AE0E705E094ED040ADCE785EDDB
:10115000088AF9E7207D06F0E9FA05F0E5FDB8B167
:10116000B748C0ED008A207840F00400207005F0F8
:101170009DFD2079132802D1322005F091FE2079BF
:101180001A2837D05FF0640005F08AFE05F086FD6E
:101190002078410778D520F004019848217098F80C
:1011A0000010801D085CFF286FD005F0EFFFD4ED24
:1011B000070A06F03BFDB0EEC00A10EE100A5845D3
:1011C00046DBD4ED070A94ED020A06F02FFDB0EEDF
:1011D000C00A10EE100A58453ADBE088DFF864B226
:1011E000400536D5207995ED078A2C2807D02D2883
:1011F00005D00DE0C820C7E7022008F049FB95EDB7
:10120000070A914930EE480A10EE100A8842F3DBD3
:1012100094ED070A03208BED000A06F0C1FD4FF0A4
:10122000804B02E0022008F033FB05F0AFFFD4ED65
:10123000070A30EEC00AB0EEC00A10EE100A584598
:10124000F0DCFFF7C9FE142005F02AFE06F0DCFAF8
:1012500061E005F09BFFD4ED070A06F0E7FCB0EE75
:10126000C00A10EE100A7949884275DA012006F0AA
:1012700097FD05F08BFFD4ED070A06F0D7FCB0EE22
:10128000408A4FF0814B40E099E08EE005F07EFF10
:10129000D4ED070A06F0CAFCB0EE408A05F076FFEE
:1012A000D4ED070A06F0C2FCB0EEC00A10EE100A38
:1012B000FFF713FA9FED661B53EC112BFFF70BF9A9
:1012C0009FED651B53EC112BFFF708F99FED641B95
:1012D00053EC112BFFF774F9FFF72AFA09EE100A05
:1012E00018EE100AFFF7F9F99FED5F1B53EC112B75
:1012F000FFF766F9FFF71CFA00EE900AB0EE490A14
:10130000FFF736FB022008F0C3FAB0EEC80A10EE71
:10131000100A5845BADC0220377006F041FD0099EA
:101320001422201DFFF701F898F80000431C19F85B
:10133000001088F80030207905F04AFF00EB8001AA
:10134000009814220AEB8101FEF7EFFFC5ED078A32
:10135000C5ED068A33E0FFE795ED078A02E002203B
:1013600008F096FA95ED070A414930EE480A10EE6A
:10137000100A8842F3DB94ED070A03208BED000A84
:1013800006F00EFD4FF0804B02E0022008F080FADC
:1013900005F0FCFED4ED070A30EEC00AB0EEC00A3C
:1013A00010EE100A5845F0DCB5E7C5ED028AFFF7EC
:1013B00013FE377098F80110491C88F80110207846
:1013C00080061AD5377098F800100846401C19F8A6
:1013D000011088F80000207905F0FAFE00EB80018A
:1013E000009814220AEB8101FEF79FFF0E2084F87B
:1013F0002800207820F0200020703BE02902002007
:101400003857002000000000240400200000204184
:10141000C80D0020666666666666E63F6457002073
:10142000A05600209A9999999999E93F00000000E7
:101430000000E03F00000000000044400000A04227
:10144000C00D0020F40D00200000C04000007042DC
:1014500000000000008066400000000000005540D1
:101460000000000000807640666666666666F63FAD
:101470000000704101B0BDEC048BBDE8F08F7047F7
:1014800070B5C1493D22C148FEF74FFFBE4D0C214A
:10149000BF4EBE4C95F83D00B21584F83D0095F85E
:1014A0003E0084F83E0095F83F0084F83F0095F830
:1014B000400084F8400095F8410084F8410095F818
:1014C000420084F8420095F8430084F8430095F800
:1014D000440084F8440095F8450084F8450095F8E8
:1014E000460084F8460095F8470084F8470095F8D0
:1014F000480084F848002046E664C4E914214034DA
:1015000002F052F86069403C00287CD004287BD06F
:1015100008282068016A78D021F4204101622068FF
:10152000016A01623D22994897495C30FEF7FDFE51
:10153000964C082195F83D205C34880184F83D20C4
:1015400095F83E2084F83E2095F83F2084F83F200F
:1015500095F8402084F8402095F8412084F84120F7
:1015600095F8422084F8422095F8432084F84320DF
:1015700095F8442084F8442095F8452084F84520C7
:1015800095F8462084F8462095F8472084F84720AF
:1015900095F8482084F84820E664C4E91401204600
:1015A000403402F001F86069403C00287ED00428F5
:1015B0007DD008282068016A7AD021F42041016298
:1015C0002068016A01623D2270486F49B830FEF719
:1015D000ACFE6E4C00216F4E95F83D00B8340222EF
:1015E00084F83D0095F83E0084F83E0095F83F00F1
:1015F00084F83F0095F8400084F8400095F84100D9
:1016000084F8410002E087E08BE08FE095F842002B
:1016100084F8420095F8430084F8430095F84400AC
:1016200084F8440095F8450084F8450095F8460094
:1016300084F8460095F8470084F8470095F848007C
:1016400084F848002046E664C4E91421403401F0DF
:10165000ABFF6069403C00287BD004287ED008287E
:101660002068016A6CD021F4204101622068016A7F
:1016700001623D2244494848FEF757FE464C04218A
:1016800095F83D20012084F83D2095F83E2084F80F
:101690003E2095F83F2084F83F2095F8402084F8BC
:1016A000402095F8412084F8412002E041E048E0E4
:1016B0004CE095F8422084F8422095F8432084F8C5
:1016C000432095F8442084F8442095F8452084F878
:1016D000452095F8462084F8462095F8472084F860
:1016E000472095F8482084F84820E664C4E91401AE
:1016F0002046403401F058FF6069403C98B304280C
:101700003AD008282068016A3BD021F420410162C8
:101710002068016A016270BD2068016A21F00A0137
:10172000FCE62068016A21F0A001F7E621F42061BF
:10173000F4E62068016A21F00A0140E709E00DE0C3
:1017400012E02068016A21F0A00138E721F420614D
:1017500035E72068016A21F00A0186E72068016AFE
:1017600021F0A00181E702E021F420617DE72068FB
:10177000016A21F00A01CAE72068016A21F0A0018C
:10178000C5E721F42061C2E7E810002018550020C9
:1017900000040240001002402C56002072B6FEE702
:1017A00010B51B4919482DED028BB0EE408A91ED22
:1017B000010A184980ED020A91ED000A164980EDF0
:1017C000060A06F05FFB10EE100A1449DFED140A5A
:1017D000884202DBB0EE600A06E010EE100A114902
:1017E000884201D39FED100AB0EEC81A0F48C1EE2F
:1017F000201A21EE800A78EE400A38EE000AC0ED89
:10180000000A80ED010ABDEC028B10BDF0510020F2
:1018100064570020C00D00209C5100200000484269
:1018200000004842000048C2000048C2C80D002025
:101830002DE9F041876D044600F09EF9064694F8C4
:1018400035000025022806D080206065012084F83C
:101850003450BDE8F0812068016821F01601016074
:101860002068416921F080014161206C08B9A06CB9
:1018700020B12068016821F008010160206801683A
:1018800021F0010101600CE000F076F9801B0528D1
:1018900007D920216165032084F8350084F834508D
:1018A000D7E720680068C007EED194F85C203F209D
:1018B00001219040B86084F83510002084F834503D
:1018C000C7E790F83510022903D080214165012037
:1018D0007047052180F835100068016821F001018A
:1018E000016000207047000070B5044600F044F924
:1018F0000546601C02D004480078044400F03CF91E
:10190000401BA042FAD370BD000000202DE9F84F23
:10191000DFF80CB2012403254FF00F0A00220BF16F
:10192000040E00BF0B6804FA02F63340B34278D1CC
:101930000F7907F00307012F01D0022F1AD1876812
:101940004FEA4209D1F80CC005FA09F827EA08075E
:101950000CFA09FC4CEA070CC0F808C0476891F87B
:1019600004C0B743CCF3001C0CFA02FC4CEA070C91
:10197000C0F804C00E79F643B6070BD0C6684FEA2C
:10198000420C8F6805FA0CF826EA080607FA0CF7ED
:101990003743C7600E7906F00306022E12D1D6082F
:1019A0004FEA427800EB860600960F69D6F8209041
:1019B0004FEAD8660AFA06FCB74029EA0C06374314
:1019C000009E37620F7906684FEA420C07F0030762
:1019D00005FA0CF807FA0CF726EA08063743076001
:1019E0004E6816F4403F1CD04E4E376847F480478F
:1019F0003760366822F00308970706F480460096A1
:101A0000494E3F0F4644B146D6F80868DFF81C81BE
:101A10000AFA07FC404526EA0C0603D14FF0000CF9
:101A200041E076E0DFF808C1604502D14FF0010CDB
:101A300039E0DFF800C1604502D14FF0020C32E01E
:101A4000DFF8F4C0604502D14FF0030C2BE0DFF863
:101A5000ECC0604502D14FF0040C24E0DFF8E0C098
:101A6000604502D14FF0050C1DE0DFF8D8C060459D
:101A700002D14FF0060C16E0DFF8CCC0604502D171
:101A80004FF0070C0FE0DFF8C4C0604502D14FF003
:101A9000080C08E0DFF8B8C0604502D14FF0090C2F
:101AA00001E04FF00A0C0CFA07FC4CEA060CC9F8EE
:101AB00008C84F68DBF80060FF0226EA030600D57D
:101AC0001E437746CBF80060D1F804C0DEF8006012
:101AD0005FEA8C2C26EA030600D51E43DFF840C0DF
:101AE0003E60ACF1040C4F68DCF80060BF0326EAEE
:101AF000030600D51E430A4FCCF80060083FD1F81A
:101B000004C03E685FEACC3C26EA030600D51E43CB
:101B10003E60521C102AFFF405AFBDE8F88F0000AC
:101B2000083C0140443802400030014000000240BF
:101B30000004024000080240000C02400010024075
:101B40000014024000180240001C02400020024025
:101B5000002402400069084000D00120704742691B
:101B600021EA02030A4043EA0241816170470AB157
:101B7000816170470904FBE70148806870470000F5
:101B8000000000200248816802781144816070479B
:101B900000000020032010B500F08CF80F2000F0AA
:101BA00005F800F03DF8002010BD000010B500223F
:101BB00001462D2088B000F05DF82D2000F04CF893
:101BC0001348016841F480710160006805A900F4C0
:101BD00080700690684600F0CBFB00F0E9FB0D49F1
:101BE000400000220C4CB0FBF1F10C4840F2E7330E
:101BF0000460C0E90332491EC0E9011200F090FE02
:101C000010B1012008B010BD044800F033FFF9E71F
:101C10004038024040420F000020004044130020A2
:101C20000C4882B0016841F080510160006800F00A
:101C3000805000900748001D016841F48041016018
:101C4000006800220F2100F480400090901E02B036
:101C500000F010B840380240002809DB410900F0CC
:101C60001F028900012001F1E0219040C1F800012C
:101C7000704700000E4BF0B41B680D46C3F30223FF
:101C8000C3F10706042E00D90426191D072901D225
:101C9000002300E0DB1E012404FA06F19C40491EEB
:101CA0002940641E994014402143F0BC04F062BDF9
:101CB0000CED00E0064900F0070210B54FF6FF04F6
:101CC0000868044B204040EA02201843086010BD19
:101CD0000CED00E00000FA051848F8B5016841F085
:101CE000805101600068164C00F080500090206820
:101CF00040F480302060FFF73FFF4FF47A760546CE
:101D000005E000BFFFF738FF401BB0420FD8606806
:101D1000C003F7D5206840F400302060FFF72CFFA7
:101D2000054606E0FFF728FF401BB04201D903201B
:101D3000F8BD60688003F5D50020F8BD403802404A
:101D4000007000402DE9F84F04460078DFF8249435
:101D50004FF000063746C0070ED0D9F8001021F426
:101D60000001C9F80010D9F80010626B1143C9F8DE
:101D70000010606B00B90126FE4D20688435000319
:101D80000ED5E16B286820F4401008432860E06B12
:101D9000B0F5801F01D010B102E0012600E001275C
:101DA00020684FF4800BC0020CD5216C286820F409
:101DB000400008432860206C584501D1012601E00D
:101DC00000B901272068C10100D50126800666D52B
:101DD000E8483830016841F0805101600068DFF860
:101DE00098A300F080500090DAF8001041F4807160
:101DF000CAF80010FFF7C0FE804605E0FFF7BCFE02
:101E0000A0EB080064287DD8DAF80000C005F5D5FD
:101E1000DFF8608308F16808D8F8000010F440701B
:101E20002AD0218E01F44071814225D0D8F80010CB
:101E3000D8F8002021F4407142F48032C8F8002024
:101E4000D8F8002022F48032C8F80020C8F800102A
:101E5000D8F80000C0070FD0FFF78EFE824607E0DB
:101E6000FFF78AFEA0EB0A0141F288308142CAD80E
:101E7000D8F800008007F3D5206BC0F301210329B7
:101E80007ED0D9F8001021F4F811C9F80010228E84
:101E9000D8F80010C2F30B021143C8F800102078E4
:101EA000C00607D5286820F0807028602868A16BDC
:101EB000084328602188AF488830490405D5626E00
:101EC000016821F44031114301602188090405D5DE
:101ED000A26E016821F44021114301602168C90309
:101EE00005D5E26E016821F44011114301602168BB
:101EF000890305D5226F016821F440011143016077
:101F0000217800E016E1490605D5626C016821F0F0
:101F10000301114301602178090605D5A26C01680F
:101F200021F00C01114301602188C90505D5E26C3F
:101F3000016821F03001114301602188890505D530
:101F4000226D016821F0C00111430160218849051B
:101F500005D5626D016821F440711143016021884B
:101F6000090505D5A26D016821F4406111430160A6
:101F70002188C90407D5E26D016821F4405100E0D1
:101F80004AE0114301602188890405D5226E016869
:101F900021F44041114301602168490205D5A26F37
:101FA000016821F080611143016021684FF0006AEF
:101FB000890209D5E26F016821F0006111430160D7
:101FC000E16F514500D1012721680A0700D501279B
:101FD000490305D5626F016821F04071114301602A
:101FE0002168090206D5D4F88020016821F08051CB
:101FF00011430160DFF88491012E02D02068800136
:102000007ED5D9F800004E4620F08060C9F8000067
:10201000FFF7B2FD80460FE0594AD9F80030104072
:1020200023F4F8120243C9F8002030E7FFF7A4FDBB
:10203000A0EB080064287DD830680001F6D4217830
:102040004C487C30C90712D0616B81B9237A626831
:102050000168D0F800C09201C1F3014142EA014297
:10206000CCF3036142EA016141EA03710160216836
:102070000A0303D5E26BB2F5801F04D0C9021AD55A
:10208000216C594517D16368016894F80CC0026847
:102090009B01C1F3014143EA0141C2F3027241EAEB
:1020A0000C6141EA027101602968626A21F01F0136
:1020B000521E114329602168C90110D5238A626824
:1020C0000168D0F800C09201C1F3036142EA034203
:1020D00042EA0162CCF3027142EA017101602168B7
:1020E00089010CD56168228A237B94F808C0890194
:1020F00041EA024141EA036141EA0C71016000E0FA
:1021000011E03168B04641F080613160FFF734FD85
:10211000064604E0FFF730FD801B64280AD8D8F893
:1021200000000001F6D56FB3D9F800004E4620F04C
:10213000805000E07BE0C9F80000FFF71DFD074676
:1021400005E000BFFFF718FDC01B64286FD830689A
:10215000C0438000F6D50748216880300A0301D5C6
:10216000E26B1AB1C90225D5216C19BB63690168FC
:10217000277E08E008380240007000400038024026
:10218000FFFCFF0F5AE00268C1F301419B0143EAE3
:102190000143C2F3027143EA076242EA017101603E
:1021A00029686FF0FF03A26A21F4F85103EB0222C1
:1021B000114329602168890212D5E16F51450FD181
:1021C000238C6269016807689201C1F3036142EAE6
:1021D000034242EA0162C7F3027142EA01710160FF
:1021E0002178090716D561690268D0F800C08B0113
:1021F000277FC2F30362CCF3014143EA014141EA84
:10220000026141EA077101602868E16A20F4403008
:1022100008432860306840F080503060FFF7ACFC25
:10222000044607E0FFF7A8FC001B642802D903203E
:10223000BDE8F88F3068C0438000F3D40020F7E792
:102240002DE9F04705000F4663D0444E306800F09A
:102250000F00B84209D2306820F00F0038433060D8
:10226000306800F00F00B84253D128683C4C810719
:1022700012D5400703D5206840F4E050206028784C
:10228000000703D5206840F460402060A9682068FA
:1022900020F0F000084320602878C0072AD0304999
:1022A00068680839012810D00968022810D0890709
:1022B00000292EDA216821F0030101432160FFF794
:1022C0005BFC804641F288390DE009688903EFE73D
:1022D0008901EDE7FFF750FCA0EB0801494502D961
:1022E0000320BDE8F0876868216801F00C01B1EBBC
:1022F000800FEFD1306800F00F00B8420BD9306882
:1023000020F00F0038433060306800F00F00B84212
:1023100001D00120E5E72878400705D5E968206865
:1023200020F4E050084320602878000706D528698B
:10233000216821F4604141EAC000206000F058F8B3
:102340002168084AC1F30311515CC840064908607E
:1023500006480068FFF72AFC0020C2E7003C024064
:10236000083802402C9F00080C00002004000020C8
:102370000D4A0F2330B503604FF4E0540B4B156842
:1023800005F003054560156805F0F00585601568E2
:1023900005F4E055C560126804EAD20202611868CB
:1023A00000F00F00086030BD08380240003C0240D9
:1023B0000449054809680068044AC1F38221515C58
:1023C000C8407047083802400C0000203C9F0008BD
:1023D0000449054809680068044AC1F34231515C68
:1023E000C8407047083802400C0000203C9F00089D
:1023F000154910B51548096811F00C0213D04110A9
:10240000042A0FD0082A0ED10F4C241F22682368FB
:1024100002F03F025B0207D52068C0F38810A0FBE2
:10242000010106E0084610BD2168C1F38811A1FB37
:1024300000010023FDF748FF2168C1F30141491C59
:102440004900B0FBF1F010BD083802400024F40050
:102450002DE9F84F04004FF000076ED02078DFF828
:1024600068A3AAF10408C007A8F104054CD0DAF863
:1024700000105046C1F38101012908D00068C0F363
:10248000810002280AD1D8F80000400206D5286849
:10249000800339D560680028DFD035E06068B0F58A
:1024A000803F0BD010B1B0F5A02F11D0286820F4D8
:1024B00080302860286820F4802002E0286840F4FA
:1024C00080302860606890B1FFF756FB06460AE04E
:1024D000286840F480202860F0E700BFFFF74CFB3D
:1024E000801B642872D828688003F7D50CE0FFF7BA
:1024F00043FB064605E000BFFFF73EFB801B642858
:10250000F0D828688003F7D42078800742D5DAF81D
:102510000010504611F00C0F08D00068C0F3810085
:1025200002280BD1D8F80000400207D428688007A1
:1025300018D5E068012800D114E041E1E0680028E6
:10254000286817D040F001002860FFF715FB064609
:1025500005E000BFFFF710FB801B0228C2D82868E7
:102560008007F7D52069296821F0F80141EAC00009
:1025700028600FE020F001002860FFF7FDFA064612
:1025800005E000BFFFF7F8FA801B02281ED8286874
:102590008007F7D42078000729D58B4861696C3013
:1025A00000298146016812D041F001010160FFF766
:1025B000E3FA064605E000BFFFF7DEFA801B0228BB
:1025C00004D8D9F800008007F6D510E089E021F0A2
:1025D00001010160FFF7D0FA064604E0FFF7CCFAEC
:1025E000801B02287DD8D9F800008007F6D4207817
:1025F00040076BD5DFF8D09109F13809D9F8000010
:10260000C0000BD4D9F8001041F08051C9F8001077
:10261000D9F80000012700F0805000906B48016855
:10262000C90512D40168834641F480710160FFF747
:10263000A3FA064605E000BFFFF79EFA801B642858
:102640004FD8DBF80000C005F6D55F4EA0686836AD
:1026500001280AD008B1052811D0306820F0010007
:102660003060306820F0040002E0306840F0010083
:102670003060A068A0B1FFF77FFA83460CE03068B5
:1026800040F004003060F0E7FFF776FAA0EB0B01B2
:1026900041F28830814266D830688007F4D50EE078
:1026A000FFF76AFA834607E0FFF766FAA0EB0B0133
:1026B00041F28830814256D830688007F4D42FB177
:1026C000D9F8001021F08051C9F80010A069C8B3F2
:1026D000DAF80010C1F3810102294BD002282868E2
:1026E00000E040E020F08070286003D0FFF744FA5B
:1026F00004463BE0FFF740FA064604E0FFF73CFAE9
:10270000801B02282FD828688001F7D4D4E90962F9
:10271000D4E907012E4B570894F82C20084303EB0B
:10272000074343EA8611084340EA026040F0005044
:10273000C8F80000286840F080702860FFF71CFA95
:10274000044606E03EE000BFFFF716FA001B022831
:1027500009D828688001F7D534E000BFFFF70CFAEC
:10276000001B022802D90320BDE8F88F28688001E9
:10277000F4D427E00128D8F8000021D0E16900F462
:1027800080028A421CD1216A00F03F028A4217D19E
:10279000626A47F6C0710140B1EB821F10D1A16A95
:1027A0004FF0FF3200F4403302EB5101B3EB014F25
:1027B00006D194F82C1000F07060B0EB016F01D0DE
:1027C0000120D1E70020CFE7083802400070004028
:1027D0000000FFFF70477047704700002DE9F0438D
:1027E00090F83C20012A42D0012280F83C2051F888
:1027F0000C4BDFF880804FF0000991E8680051E948
:10280000022723F44073B1F80CC03B43CF6923F493
:1028100080631343026823F40063234323F480534B
:1028200043EA050323F4005343EA060323F48043F9
:1028300043EA07030C3923F47023424543EA0C436F
:1028400002D00D4CA2420CD18D8C23F47006D1E93C
:10285000073446EA055121F08071194321F00073D5
:102860002343536480F83C900020BDE8F0830220AD
:10287000FBE700000000014000040140F0B590F8C3
:102880003C20012A3BD01F4E012480F83C4002220C
:1028900080F83D2002681C4D5368B242D2F808C04F
:1028A00001D0AA4203D14F6823F470033B430F6861
:1028B00023F070031F4357600268B24213D0B2F195
:1028C000804F10D0114B9A420DD0114B9A420AD032
:1028D000104B9A4207D0AA4205D00F4B9A4202D021
:1028E0000E4B9A4204D189682CF080031943916001
:1028F000002180F83D4080F83C100846F0BD0220E1
:10290000F0BD000000000140000401400004004050
:1029100000080040000C004000400140001800404A
:1029200010B5040003D094F83D0010B107E0012079
:1029300010BD002084F83C00204600F023F802205F
:1029400084F83D002068211D02F0B6FF012084F8C4
:10295000480084F83E0084F83F0084F8400084F882
:10296000410084F8420084F8430084F8440084F86D
:10297000450084F8460084F8470084F83D000020B4
:1029800010BD000030B587B0044614216846FDF73D
:10299000F3FC3248216881420FD13148016841F08F
:1029A0000101016000680022052100F0010005908E
:1029B0001920FFF75FF919204BE02A48B1F1804F49
:1029C00039D0294A914246D1016841F002010160A3
:1029D000006800F00200059022481038016841F0BC
:1029E00001010160016801F001010591016841F0F8
:1029F00002010160006802240025694600F002001F
:102A00000590C0200494CDE900041848CDE90245A2
:102A1000FEF77CFF03206946CDE900041448CDE9A8
:102A200002450494FEF772FF002205211D20FFF7E6
:102A300021F91D200DE0016841F0010101600068ED
:102A40000022052100F0010005901C20FFF712F97B
:102A50001C20FFF701F907B030BD00000000014065
:102A60004438024040380240000400400000024068
:102A70000004024090F83D10012901D00120704768
:102A8000174A022180F83D100168CB6843F001032A
:102A9000CB600068904214D0B0F1804F11D0114942
:102AA00088420ED0104988420BD01049884208D085
:102AB0000F49884205D00F49884202D00E4988420A
:102AC00007D181680D4A1140062906D0B1F5803F33
:102AD00003D0016841F0010101600020704700004F
:102AE000000001400004004000080040000C0040CD
:102AF00000040140004001400018004007000100B0
:102B000070B5044690F83C000025012817D0334BDF
:102B1000012684F83C60022084F83D002268906819
:102B2000184020F47F4090600868502838D00DDCB1
:102B300020284FD005DC90B3102811D14AE00220A4
:102B400070BD302846D040280AD13BE060282FD005
:102B500070280DD0B0F5805F03D0B0F5005F12D0C3
:102B6000012584F83D60002084F83C00284670BDB3
:102B70004A682068D1E9021302F011FF20688168D9
:102B800041F0770109E04A682068D1E9021302F0B8
:102B900006FF2068816841F480418160E1E719E027
:102BA000CA684968206803F041F82068502106E0AF
:102BB000CA684968206803F08BF82068602102F039
:102BC000F7FECEE7CA684968206803F02FF820684E
:102BD0004021F4E7226801461046F0E788FFFEFF37
:102BE0002DE9F05F8346007FDFF8F8A30828FE4E4A
:102BF0004FF00107A6F13004A6F16008A6F14009E4
:102C000004F1400556D10AF11002002104F1C00080
:102C10001170A2F1140102680B78416D1BB3012BF6
:102C20007ED1126CE0380260E03000F05FFD04F10C
:102C3000C000B0F85010C06C89B2FEF78BFF0AF1EB
:102C4000040108709AF8001081426AD0A4F12001B2
:102C5000D8F80000096881424BD24FF6FF72101A73
:102C6000401C084446E0D2F840C0C8F800C011B388
:102C7000042924D00829116A25D021F420411162A9
:102C8000416D19B3042926D0082901680A6A27D0A2
:102C900042F400520A62D349091F0F70B0F8501075
:102CA000C06C89B2FEF756FF8AF80000D8B1CE4852
:102CB0002038076092E0116A21F00A01DFE7116A0B
:102CC00021F0A001DBE721F42061D8E701680A6A5E
:102CD00042F00202DEE701680A6A42F02002D9E708
:102CE00042F40072D6E7C0494FF0FF302039086047
:102CF00074E0081ABB4A20600832107858B30020EC
:102D0000C9F80000B8481C22291D1030FDF70DFB42
:102D10002068E8615FF0000055F82020401C01E0C9
:102D2000FAE040E02168C0B2082811442160F3D3E2
:102D3000C908C9F80010AC4840F6B8321038A0F104
:102D400010010368096819440160914222DB32686E
:102D50000021521C25E0DFF88CC223680CF10C0C1A
:102D60009CF80000411CC9B245F8203008298CF8B5
:102D70000010E0D15FF00000216855F82030401CC1
:102D8000C0B2082819442160F6D3C908C9F8001058
:102D90001770D0E740F6B832D14204DC3268002127
:102DA000521E3260016000208E49091F08708E4853
:102DB0009030416D00F0F8FB8B489030416D91B13F
:102DC000042917D000680829016A18D021F420418D
:102DD0000162854890300068016A01629BF81C001E
:102DE00004280FD006E1804890300068016A21F085
:102DF0000A01EDE70068016A21F0A001E8E721F48B
:102E00002061E5E778480021764AEC3010325170B5
:102E1000A2F11401497839B301297DD10068C16B51
:102E200071485038416000F59E70416D00F05EFCC5
:102E30006D48EC30B0F85010C06C89B2FEF78AFED5
:102E40006849091D48709AF80110814265D06649A9
:102E5000D8F804005039496881424CD24FF6FF72CD
:102E6000101A401C084447E00168CB6BC8F80430D6
:102E7000426D12B3042A24D0082A0A6A25D022F40B
:102E800020420A62416D19B3042926D0082901683D
:102E90000A6A27D042F400520A625249091F4F7051
:102EA000B0F85010C06C89B2FEF754FE8AF80100E9
:102EB000D8B14D48203847609CE00A6A22F00A02E7
:102EC000DFE70A6A22F0A002DBE722F42062D8E7FB
:102ED00001680A6A42F00202DEE701680A6A42F00B
:102EE0002002D9E742F40072D6E73F494FF0FF30A5
:102EF000203948607EE0081ADFF8E8C060600CF115
:102F0000080C9CF8010070B3374900201C22C9F856
:102F100004003431081F01E008E14CE0FDF705FA38
:102F20006068E8635FF0000005EB8001401CC0B200
:102F30000A6A0828616811446160F5D3C908C9F8B4
:102F40000410294840F6B8321038A0F11001436847
:102F5000496819444160914224DB72680021521C87
:102F60007260416027E0FFE71E4A63680C325078C8
:102F7000014605EB8000491CC9B203620829517063
:102F8000DFD1002005EB8001401CC0B20A6A08288E
:102F9000616811446160F5D3C908C9F804108CF860
:102FA0000170CEE740F6B832D14204DC71680022ED
:102FB000491E7160426000200A49091F48700A4892
:102FC000EC30416D00F0F0FA0748EC30416DB1B1E2
:102FD00004291AD000680829016A1BD021F4204175
:102FE000016203E0EC01002088540020FE480068E4
:102FF000016A01629BF81C0001280ED0FDE0FA482E
:103000000068016A21F00A01EAE70068016A21F01C
:10301000A001E5E721F42061E2E7F348F34A5C30E0
:1030200000219170A2F11401897829B301297DD181
:103030000068416BEE48816000F5CC70416D00F096
:1030400055FBE9485C30B0F85010C06C89B2FEF70F
:1030500081FDE6490C3988709AF80210814266D0E9
:10306000E348D8F80810806888424CD24FF6FF72C7
:10307000511A491C084447E001684B6BC8F80830F6
:10308000426D12B3042A24D0082A0A6A25D022F4F9
:1030900020420A62416D19B3042926D0082901682B
:1030A0000A6A27D042F400520A62D04914398F705C
:1030B000B0F85010C06C89B2FEF74CFD8AF80200DF
:1030C000D8B1CB483030876097E00A6A22F00A0214
:1030D000DFE70A6A22F0A002DBE722F42062D8E7E9
:1030E00001680A6A42F00202DEE701680A6A42F0F9
:1030F0002002D9E742F40072D6E7BD494FF0FF3015
:103100003031886079E0401ADFF8E0C2A060ACF1AD
:10311000080C9CF8020060B3B34900201C22C9F8D7
:1031200008009839081FFDF700F901E0D4E049E0F4
:10313000A068E8655FF0000005EB8001401CC0B2AC
:103140000A6C0828A1681144A160F5D3C908C9F820
:103150000810A74840F6B8324030A0F1100183684B
:10316000896819448160914222DBB2680021521CB7
:1031700026E09E4AA368121F9078014605EB800066
:10318000491CC9B2036408299170E2D15FF00000C4
:1031900005EB8001401CC0B20A6C0828A1681144EC
:1031A000A160F5D3C908C9F808108CF80270D0E7FF
:1031B000026840F6B831CA4204DCB2680021521EEF
:1031C000B2608160002089491439887086485C307B
:1031D000416D00F0E9F984485C30416DE9B30429A0
:1031E0004AD000680829016A4BD021F420410162CD
:1031F0007D485C300068016A01629BF81C0002286F
:103200006AD17A4A4FF0000B7748A2F11401B83026
:1032100082F803B0C97871B301295DD10068816B70
:103220007348C16000F5FA70416D00F05FFA6E48B6
:10323000B830B0F85010C06C89B2FEF78BFC6B4907
:103240000C39C8709AF8031081427DD06849D8F8CB
:103250000C00C96881425FD200E005E04FF6FF72C2
:10326000101A401C084458E05F485C300068016A4E
:1032700021F00A01BBE707E00068016A21F0A00124
:10328000B5E721F42061B2E701688B6BC8F80C3018
:10329000426D1AB3042A25D0082A0A6A26D022F4DD
:1032A00020420A62416D21B3042927D00829016810
:1032B0000A6A28D042F400520A624C491439CF708D
:1032C000B0F85010C06C89B2FEF744FC8AF80300D5
:1032D000E0B147483030C760BDE8F09F0A6A22F08D
:1032E0000A02DEE70A6A22F0A002DAE722F420628C
:1032F000D7E701680A6A42F00202DDE701680A6A5C
:1033000042F02002D8E742F40072D5E738494FF086
:10331000FF303031C860DFE7081A3449E06008390F
:10332000C87840B330491C224F46C9F80CB07839F0
:10333000081FFCF7FAFFE068E867002005EB800152
:10334000401CC0B2096E00E03EE0E268082811446B
:10335000E160F3D3C808F860254840F6B832403041
:10336000A0F11001C368C9681944C160914222DB11
:10337000F268521C25E01D4AE368121FD07800F164
:10338000010805EB800C08F0FF000828CCF860303D
:10339000D070E1D15FF0000005EB8002401CC0B2AC
:1033A000136E0828E2681A44E260F5D3D208C9F81F
:1033B0000C20CF70D0E740F6B832D14204DCF2687E
:1033C000521EF260C0F80CB00849074C1439B834EA
:1033D000204681F803B0616D00F0E6F8606D98B1A9
:1033E000042816D0082805E074550020FC010020B0
:1033F000385400202068016A10D021F42041016275
:103400002068016A016267E72068016A21F00A0109
:10341000F5E72068016A21F0A001F0E721F42061BE
:10342000EDE72DE9F041054690F83C0000260C46FA
:10343000012810D0012085F83C0072B1042A1CD06C
:10344000082A2CD00C2A51D00126002085F83C00F7
:103450003046BDE8F0810220FBE7E3682868D4E944
:10346000001202F0F5FB2868816921F00C018161EE
:1034700028688169A26811430FE0E3682868D4E9ED
:10348000001202F037FC2868816921F440618161F3
:1034900028688169A26841EA02218161D5E7D4E9FF
:1034A00000232868217B076A4FF4206C090727F462
:1034B000807707620CEA0222C769D0F820C027F0A3
:1034C00003071F432CF4206C27F0F00342EA0C02A0
:1034D00043EA1161C16102622868C16921F00C01EF
:1034E000C1612868A268C169114329E02868D4E94C
:1034F0000032E168076A4FF6FF7C4FF4204E27F454
:10350000805707620CEA0131C769D0F820C00EEA83
:10351000033327F4407747EA02222CF4204C22F4AC
:1035200070421143C16143EA0C0303622868C16918
:1035300021F44061C1612868A168C26942EA0121A1
:10354000C16182E710B5040003D094F83D0010B1CA
:1035500007E0012010BD002084F83C00204600F068
:1035600022F8022084F83D002068211D02F0A4F911
:10357000012084F8480084F83E0084F83F0084F875
:10358000400084F8410084F8420084F8430084F845
:10359000440084F8450084F8460084F8470084F825
:1035A0003D00002010BD704730B504464FF00005C7
:1035B00079B1042912D0082915D00C2918D0102966
:1035C00019D094F8430000BF94F84720012817D180
:1035D00014E094F83E0094F84420F7E794F83F0094
:1035E00094F84520F2E794F8400094F84620EDE77F
:1035F00094F84100E8E794F84200E5E7012A01D099
:10360000012030BD4FF0020079B1042916D00829FD
:103610001DD00C294FD0102950D084F843000C291C
:1036200084F847004DD0012543E084F83E0084F83B
:1036300044002068C26842F0020210E084F83F00B3
:1036400084F845002068C26842F0040207E084F86C
:10365000400084F846002068C26842F00802C26058
:103660002068012202F08EF918492068884214D09F
:10367000B0F1804F11D0164988420ED015498842CA
:103680000BD01549884208D01449884205D0144906
:10369000884202D01349884207D18168124A1140FA
:1036A000062906D0B1F5803F03D0016841F0010141
:1036B0000160284630BD84F84100B0E784F842003C
:1036C000ADE72068C26842F01002C8E70000014080
:1036D0000004004000080040000C004000040140CD
:1036E00000400140001800400700010070B50D00C7
:1036F00004464FF0000607D0042D0AD0082D0DD047
:103700000C2D10D0012635E02068C16821F002019F
:103710000DE02068C16821F0040108E02068C1685C
:1037200021F0080103E02068C16821F01001C160A8
:1037300020680022294602F025F9206841F2111282
:10374000016A114207D1016A9210114203D1016846
:1037500021F0010101604FF001006DB1042D10D086
:10376000082D13D00C2D16D0102D17D084F843003F
:1037700084F84700304670BD84F83E0084F8440069
:10378000F8E784F83F0084F84500F3E784F8400048
:1037900084F84600EEE784F84100E9E784F8420047
:1037A000E6E770B50446006800250169C94389074A
:1037B00015D4C168C943890711D4EA1E02610121E9
:1037C0002177206880698007204602D0FFF708FA39
:1037D00004E000F0E7F8204600F0A9F9257720681A
:1037E0000169C943490717D4C168C943490713D4BC
:1037F00002216FF00402026121772068806910F4D1
:10380000407F204602D0FFF7EBF904E000F0CAF851
:10381000204600F08CF9257720680169C943090723
:1038200016D4C168C943090712D404216FF00802F5
:10383000026121772068C0698007204602D0FFF727
:10384000CFF904E000F0AEF8204600F070F92577DB
:1038500020680169C943C90617D4C168C943C906AC
:1038600013D408216FF01002026121772068C0692B
:1038700010F4407F204602D0FFF7B2F904E000F0D8
:1038800091F8204600F053F9257720680169C94373
:10389000C90708D1C168C943C90704D1891E01619C
:1038A000204600F055FA20680169C943090609D489
:1038B000C168C943090605D46FF080010161204643
:1038C000FEF789FF20680169C943C90509D4C168A9
:1038D000C943090605D46FF4807101612046FEF7E3
:1038E00079FF20680169C943490609D4C168C94301
:1038F000490605D46FF040010161204600F032FA1C
:1039000020680169C94389060BD4C168C943890687
:1039100007D46FF0200101612046BDE87040FEF73A
:103920005BBF70BD30B587B0044614216846FCF714
:1039300023FD24680021184D0220164A0123AC42C1
:1039400011D1146844F010041460126802F01002DF
:1039500005924FF4D4420092CDE90101CDE9031361
:103960000E48694612E0B4F1804F11D1146844F05A
:1039700001041460126802F0010205920F22009205
:10398000CDE90101CDE9031305486946FDF7BEFF06
:1039900007B030BD30380240000001400010024046
:1039A00000000240704770B5044690F83C000026C5
:1039B0000D4601280BD0012084F83C000C2A4AD087
:1039C00007DC82B1042A20D0082A06D131E0022087
:1039D00070BD102A53D0142A63D00126002084F829
:1039E0003C00304670BD206801F0EAFF2068816924
:1039F00041F0080181612068816921F00401816141
:103A000020682A698169114311E0206802F012F8E8
:103A10002068816941F4006181612068816921F435
:103A20008061816120682969826942EA012181619E
:103A3000D4E7206802F03AF82068C16941F0080133
:103A4000C1612068C16921F00401C16120682A694F
:103A5000C169114311E0206802F064F82068C1696F
:103A600041F40061C1612068C16921F48061C161D4
:103A700020682969C26942EA0121C161AEE7206874
:103A800002F07CF82068416D41F008014165206832
:103A9000416D21F00401416520682A69416D11439F
:103AA00011E0206802F096F82068416D41F4006151
:103AB00041652068416D21F4806141652068296974
:103AC000426D42EA0121416588E710B5040003D048
:103AD00094F83D0010B107E0012010BD002084F8EB
:103AE0003C00204600F022F8022084F83D002068C7
:103AF000211D01F0E1FE012084F8480084F83E0019
:103B000084F83F0084F8400084F8410084F84200C3
:103B100084F8430084F8440084F8450084F84600A3
:103B200084F8470084F83D00002010BD70477047BE
:103B300010B504464FF0020269B1042912D00829D9
:103B400017D00C291CD0102921D094F8430001284B
:103B500024D0012010BD94F83E000128F9D184F84A
:103B60003E201DE094F83F000128F2D184F83F2068
:103B700016E094F840000128EBD184F840200FE0D3
:103B800094F841000128E4D184F8412008E094F839
:103B900042000128DDD184F8422001E084F843206E
:103BA0000122206801F0EEFE17492068174A88427A
:103BB00001D0904203D1436C43F400434364206836
:103BC000884213D0B0F1804F10D0114988420DD0F7
:103BD000104988420AD01049884207D0904205D047
:103BE0000E49884202D00E49884207D181680D4AA9
:103BF0001140062906D0B1F5803F03D0016841F09D
:103C000001010160002010BD0000014000040140DE
:103C10000004004000080040000C0040004001404B
:103C2000001800400700010030B504464FF00202C2
:103C30004FF0000569B1042916D0082953D00C298A
:103C40005CD0102961D094F84300012864D0012091
:103C500030BD94F83E000128F9D184F83E20206858
:103C6000C26842F0020209E094F83F000128EED158
:103C700084F83F202068C26842F00402C2602068D5
:103C8000012201F07FFE2A4920682A4A884201D099
:103C9000904203D1436C43F400434364206888425C
:103CA00013D0B0F1804F10D0234988420DD0234962
:103CB00088420AD02249884207D0904205D0214943
:103CC000884202D02049884207D181681F4A1140AA
:103CD000062906D0B1F5803F03D0016841F001010B
:103CE0000160284630BD94F840000128AFD184F827
:103CF00040202068C26842F00802BFE794F8410003
:103D00000128A4D184F8412008E094F84200012859
:103D10009DD184F8422003E084F843200C2901D08F
:103D20000125DEE72068C26842F01002A6E7000025
:103D30000000014000040140000400400008004071
:103D4000000C004000400140001800400700010046
:103D500000680349884201D1FDF714BF7047000095
:103D6000002000407047704770470146806FC96F60
:103D7000084370472DE9F04102680446002540F6EB
:103D80000F06D06911689368304205D183067DD54E
:103D90008B067BD5616E11E1944F03F001060F4055
:103DA000374373D0C70709D0CF0507D5012717625E
:103DB000D4F8802042F00102C4F8802082070AD59E
:103DC000DA0708D0276802223A62D4F8802042F04D
:103DD0000402C4F8802042070AD5DA0708D0236815
:103DE00004221A62D4F8802042F00202C4F8802033
:103DF00002070CD501F02002324308D023680822C4
:103E00001A62D4F8802042F00802C4F8802002052B
:103E10000BD54A0109D523684FF400621A62D4F821
:103E2000802042F02002C4F88020D4F88020002AAC
:103E300036D0800605D5880603D5616E09B12046C7
:103E400088472168D4F880008968490602D410F0B8
:103E5000280F27D0204602F0A9F920688068400684
:103E60001BD52068083050E8001F21F0400140E8D1
:103E70000012002AF5D1206F78B15D490165206FED
:103E8000FDF71FFD00280BD0206F00E010E0016D52
:103E900000E02046BDE8F04108472046FFF764FFF8
:103EA000BDE8F0812046FFF75FFFC4F88050F7E7D8
:103EB000266E2023012E7CD1C6067AD5CE0678D573
:103EC0001020106220688068400641D5216F086884
:103ED00040680004000CE3D0B4F858208242DFD9D7
:103EE000A4F85A00C869B0F5807F2AD0206850E84D
:103EF000001F21F4807140E80012002AF6D12068EA
:103F0000083050E8001F21F0010140E80012002AAB
:103F1000F5D12068083050E8001F21F0400140E84A
:103F20000012002AF5D1E3672566216851E8000FE9
:103F300020F0100041E80002002AF6D1206FFDF7C2
:103F400077FCB4F85800B4F85A10401A81B22BE04C
:103F5000B4F85800B4F85A10B4F85A20401A81B294
:103F6000002A9DD000299BD0226852E8000F20F43F
:103F7000907042E80006002EF6D1206800F108009B
:103F800050E8002F22F0010240E80026002EF4D174
:103F9000E36725666566206850E8002F22F010026E
:103FA00040E80023002BF6D12046FFF7DCFE77E740
:103FB000FFE7020606D50A0604D5A16E00297FF4A4
:103FC00068AF6DE74006F2D54806F0D52046016897
:103FD00051E8002F22F0400241E80024002CF6D1E5
:103FE0008367856600F09CF95AE700002001000411
:103FF0009961000810B5040002D0A06F10B107E06D
:10400000012010BD002084F87400204600F026F83E
:104010002420A0672068016821F00101016020468A
:1040200002F088F90128ECD0606A10B1204602F055
:104030002FF82068416821F4904141602068816830
:1040400021F02A0181602068016841F001010160CE
:104050002046BDE8104002F07FB800002DE9F0478F
:1040600086B0044614216846FCF786F97849002397
:1040700024680220774E1039754A0325DFF8D8A14D
:104080000827B4424FF4406920D1146844F4002456
:104090001460126802F4002205920A6842F00402D9
:1040A0000A60096801ACCDF8009001F00401CDE987
:1040B000047184E8290069465046FDF727FC002278
:1040C0000A213420FDF7D6FD342023E0634EB442AC
:1040D00025D1146844F080441460126802F08042D4
:1040E00005920A6842F010020A60096802AC01F009
:1040F000100105914FF4C071CDE9001084E8A800CB
:1041000057486946FDF702FC002205215220FDF7C1
:10411000B1FD5220FDF7A0FD06B0BDE8F0874C4E82
:10412000DFF840C1361D64454FF0070C21D13268DD
:1041300042F010023260326802F0100205920A6802
:1041400042F001020A60096802AA01F0010105912A
:104150004FF4C061CDE9001082E82810424869465A
:10416000FDF7D4FB002205212520FDF783FD252046
:10417000D0E7DFF8F880444520D1146844F40034D7
:104180001460126802F4003205920A6842F00802D4
:104190000A60096802AC01F0080105916021CDE9CF
:1041A000001084E8281032486946FDF7AFFB002272
:1041B00005212620FDF75EFD2620ABE7DFF8B48061
:1041C000444520D1146844F480241460126802F439
:1041D000802205920A6842F002020A60096801AC76
:1041E000CDF8009001F00201CDE904C184E8290076
:1041F00021486946FDF78AFB002205212720FDF7AB
:1042000039FD272086E71D4A944285D1326842F065
:1042100020023260326802F0200205920A6842F001
:1042200004020A60096802AA01F004010591C02194
:10423000CDE9001082E8A80069465046FDF766FB0C
:10424000002205214720FDF715FD472062E7000009
:1042500040380240004C0040000802400078004016
:1042600000100240001001400000024000440040E5
:10427000000C0240004800400004024000140140CD
:1042800030B4C36F202B1DD1C9B1C2B190F87430C6
:10429000012B17D0012480F87440002303660368C3
:1042A0005B681B0208D5046854E8003F43F0806354
:1042B00044E80035002DF6D130BC02F053B901209E
:1042C00030BC70470220FBE730B5006811498842D6
:1042D0000CD1114841880A0408D402464FF000036B
:1042E0004C04127806D50A2A01D0438030BD41F42F
:1042F00000410DE00D2A09D0084DC1F30D04491C01
:1043000089B2C7292A554180EFD830BD41F4804198
:10431000418030BD001001409000002090520020EC
:104320007047FEE770B5114D4FF4805400222146CE
:104330002846FDF71CFC012000F05EFE0022284606
:104340006100FDF714FC022002F0B8FD01222146B5
:104350002846FDF70CFC022002F0B0FD214628465D
:10436000BDE870400022FDF702BC0000000C0240D6
:10437000114810B586B0016841F00801016000687D
:1043800002220E4C4FF4405100F00800059001202D
:10439000CDE90202CDE9001069462046FDF7B6FAE4
:1043A000012220465103FDF7E2FB012220461103C2
:1043B000FDF7DDFB06B010BD30380240000C0240B6
:1043C00070B5114D4FF48054002221462846FDF768
:1043D000CEFB012000F010FE012228465103FDF71C
:1043E000C6FB022002F06AFD012221462846FDF7A5
:1043F000BEFB022002F062FD21462846BDE8704067
:104400000022FDF7B4BB0000000C02402DE9F0478C
:1044100000248046204600F0EFFD174F00254FF4A2
:1044200080564FF40059314600223846FDF79FFB75
:10443000022002F043FD012231463846FDF797FB8A
:1044400060064946040E3846FDF784FB08B1641C3B
:10445000E4B2012002F032FD6D1CEDB2082DE2D372
:10446000B8F1000F04D0FFF75DFF2046BDE8F087EC
:10447000FFF7A6FFF9E70000000C02402DE9F0412C
:104480000546012000F0B8FD174F4FF4805600227A
:1044900031463846FDF76BFB00244FF400582806E0
:1044A00001D5012200E0002241463846FDF75FFBBE
:1044B0006806050E022002F001FD01223146384651
:1044C000FDF755FB022002F0F9FC00223146384688
:1044D000FDF74DFB022002F0F1FC641CE4B2082C55
:1044E000DDD3BDE8F0810000000C024070B5012072
:1044F00000F082FD01220F4D540328462146FDF7AE
:1045000036FB0122284616033146FDF730FB042016
:1045100002F0D4FC002221462846FDF728FB0420A7
:1045200002F0CCFC31462846BDE870400022FDF781
:104530001EBB0000000C024070B5012000F05CFDC5
:104540000F4D4FF48054002221462846FDF70FFB03
:104550006600284600223146FDF709FB042002F0E0
:10456000ADFC012221462846FDF701FB0122314620
:104570002846FDF7FCFABDE87040042002F09EBC1E
:10458000000C02402DE9F0410024204600F034FDEB
:104590000122144D560328463146FDF7E8FA012062
:1045A00002F08CFC0122284617033946FDF7DFFA9A
:1045B000012002F083FC08E0641CE4B2FA2C04D968
:1045C000FFF7BAFF0120BDE8F08131462846FDF72C
:1045D000C1FA0028F0D1002239462846FDF7C7FA73
:1045E0000020F0E7000C02402DE9F043DFED480A1F
:1045F000002601253446B0EE600A3246334613E009
:10460000076805FA03FC17EA0C0F0BD003F1010C45
:1046100004F1010405FA0CF817EA080FE4B201D11D
:10462000761CF6B25B1CDBB28B42E9D3394B467287
:104630000472394DDB88DE0422D500231DE00668B4
:10464000CF1A05EB830CA7F10108B146DCED001A87
:1046500026FA08F606F0010C01EE10CA6244F607CD
:10466000B8EE411A52B201EE210A04D0BF1E29FA57
:1046700007F6F6073FD05B1CDBB28B42DFD33AE094
:104680009B044FF000031DD433E00668A1EB030C3C
:1046900005EB8C08374626FA03FC0CF0010601EE08
:1046A000106A58ED011A3244B8EE411A5FEACC7C28
:1046B00052B201EE210A03D05E1CF740FE071AD069
:1046C0005B1CDBB28B42E0D315E00668CF1A7F1E7D
:1046D00005EB830CFE4006F0010601EE106ADCEDEE
:1046E000001A5B1CB8EE411A3244DBB252B201EE42
:1046F000210A8B42E9D32CB100EE902AB8EEE01AE1
:10470000C0EE010A0548C0ED010ABDE8F0830000D3
:104710000000000038570020609F00086457002008
:10472000704700002DE9F04F87B014216846FBF771
:1047300023FE4548016841F010010160016801F065
:1047400010010591016841F004010160016801F068
:1047500004010591016841F080010160016801F0E8
:1047600080010591016841F001010160016801F0DB
:1047700001010591016841F002010160016801F049
:1047800002010591016841F008010160006842F2F0
:104790000307DFF8B890002200F0080039460590C2
:1047A0004846FDF7E4F9DFF8A8A04FF4605801226D
:1047B00041465046FDF7DBF90024DFF898B00225AA
:1047C00069467C208DE831005846FDF79FF80126A8
:1047D0006946CDE902544846CDE90076FDF796F8E2
:1047E0004EF2F8001C4F8DE8310069463846FDF75F
:1047F0008DF840F29F7069468DE831005046FDF714
:1048000085F8CDE90254CDE9008669465046FDF7AA
:104810007DF80326694630028DE871003846FDF7C1
:1048200075F8CDE90064CDE9025669465846FDF7B2
:104830006DF84FF4C15069468DE831000748FDF727
:1048400065F807B0BDE8F08F30380240000802403C
:10485000000C024000100240000402400000024030
:1048600010B59AB000241C21009407A8019402946A
:104870000394049405940694FBF77EFD2C210EA866
:10488000FBF77AFD364845F25F423449C0E900142F
:10489000C0E90242046144618461FEF741F808B155
:1048A000FCF77CFF4FF4805000902D486946FEF7DE
:1048B00027F908B1FCF772FF2948FFF706F908B19C
:1048C000FCF76CFF264804A9049405940694FDF7B0
:1048D000D5FF08B1FCF762FF6020CDE9070420484E
:1048E000002207A909940A940B940C940D94FFF7E5
:1048F0005AF808B1FCF752FF1948042207A9FFF73C
:1049000052F808B1FCF74AFF1548082207A9FFF73B
:104910004AF808B1FCF742FF11480C2207A9FFF73B
:1049200042F808B1FCF73AFF4FF400500E940F9490
:1049300001031094CDE9124011941494CDE915416E
:1049400007480EA917941894FDF748FF08B1FCF723
:1049500025FF0348FEF7E6FF1AB010BD0000014036
:104960005010002010B58EB000241C21009407A820
:10497000019402940394049405940694FBF7FCFCC0
:10498000294845F25F414FF08042C0E90024C0E968
:10499000024104618461FDF7C3FF08B1FCF7FEFE2C
:1049A0004FF48050009020486946FEF7A9F808B1FE
:1049B000FCF7F4FE1C48FFF788F808B1FCF7EEFEA0
:1049C000194804A904940694FDF758FF08B1FCF7B0
:1049D000E5FE6020CDE907041348002207A90994E9
:1049E0000B94FEF7E0FF08B1FCF7D8FE0E48042256
:1049F00007A9FEF7D8FF08B1FCF7D0FE0A48082245
:104A000007A9FEF7D0FF08B1FCF7C8FE06480C2244
:104A100007A9FEF7C8FF08B1FCF7C0FE0248FEF781
:104A200081FF0EB010BD00009C10002010B58CB0AE
:104A30002F4800242D49D7224FF6FF73009401948C
:104A4000029403940494059406940794089409949A
:104A50000A9480E81600C0E903348461FDF760FF22
:104A600008B1FCF79BFE4FF4805000902048694647
:104A7000FEF746F808B1FCF791FE1D48FEF762FD0F
:104A800008B1FCF78BFE1A4804A904940694FDF7BC
:104A9000F5FE08B1FCF782FE012008210022CDE9D5
:104AA0000740CDE90941124807A9FEF7BAFC08B151
:104AB000FCF774FE0E48042207A9FEF7B2FC08B109
:104AC000FCF76CFE0A48082207A9FEF7AAFC08B109
:104AD000FCF764FE06480C2207A9FEF7A2FC00289A
:104AE00001D0FCF75BFE0CB010BD000000040040DC
:104AF000E81000200D48002110B50B4C0C224FF49B
:104B0000E1330460C0E90131C160C0E90412816190
:104B1000C16101624162FFF76DFA002803D0BDE870
:104B20001040FCF73BBE10BD00780040341100205F
:104B30000D48002110B50B4C0C224FF4E1330460FA
:104B4000C0E90131C160C0E904128161C161016243
:104B50004162FFF74FFA002803D0BDE81040FCF790
:104B60001DBE10BD00440040B81100200D480021BA
:104B700010B50B4C0C224FF4E1330460C0E9013155
:104B8000C160C0E904128161C16101624162FFF745
:104B900031FA002803D0BDE81040FCF7FFBD10BD7E
:104BA000004800403C1200200D48002110B50B4C7D
:104BB0000C224FF4E1330460C0E90131C160C0E967
:104BC00004128161C16101624162FFF713FA00289A
:104BD00003D0BDE81040FCF7E1BD10BD001401405A
:104BE000C0120020FEE7FEE72DE9F04F85491C22A8
:104BF0002DED048B87B06846FBF797FB824C94ED54
:104C0000078A02F001FE022003F0CAF8DFED7F8A76
:104C10009FED7F9A8548C4ED028ADFF8F8A190EDF8
:104C2000060ADFF8F49177488AED000A7B4F80EDA1
:104C3000009A99F804007A4EDFF8E8B11228DFF8FC
:104C4000E88102D0112875D0A8E0794D6878002855
:104C5000FCD0FCF7C1F902F029F89FED768A032019
:104C600087ED008A03F09CF802F090FAD7ED000A75
:104C700030EEC00AB0EEC00A10EE100AB042F3DC0B
:104C8000042087ED018A03F08BF8F3EE049AC4ED5B
:104C9000039ADBF808105846B1EE008A4145FDDC66
:104CA000AB463D460746B868404518DC01F0F6FFC4
:104CB0009BF800105846012907D04078012809D0F8
:104CC00099ED020A85ED010AEDE795ED010A30EE56
:104CD000480AF7E795ED010A30EE080AF2E74FF0CF
:104CE00040418842FDD24FF448784046FCF7FCFD35
:104CF00001F0D4FFFCF770F94F49B8688842FDD243
:104D0000C4ED039A4046FCF7EFFD9FED4C0A0320EB
:104D100085ED000A03F044F802F038FAD5ED000AF8
:104D200030EEC00AB0EEC00A10EE100AB042F3DC5A
:104D300034E0FFE7424900BF94ED070A30EE480A2D
:104D4000B0EEC00A10EE100A8842F5DB03209FED9A
:104D50003D8A87ED008A03F023F800BF02F016FABF
:104D6000D7ED000A30EEC00AB0EEC00A10EE100A0D
:104D7000B042F3DC042087ED018A03F011F8B3EEB2
:104D80000E0A84ED030ADBF8080041468842FDDC88
:104D900084ED030A8842FDDDFCF71EF923485546E1
:104DA00090ED080A17488AED000A80ED009A02206B
:104DB000C4ED028A02F0F4FF234994ED070A00BF14
:104DC000D4ED070A70EEC00AF0EEE00A10EE900A89
:104DD0008842F5DB0B481C226946FBF7A6FA9FEDDB
:104DE0001B0A002185ED000A89F8141099F80010BB
:104DF00041F0040189F8001007B0BDEC048BBDE858
:104E0000F08F00009C510020C80D0020000070426F
:104E100000003442C00D002038570020F40D00205F
:104E20000000A040A056002000002041609F000824
:104E30001A0200200000B4C2000070C100005CC271
:104E4000000088420000B442000020420000000040
:104E500030B587B014216846FBF78EFA1A4801680E
:104E600041F004010160006800F004000590FFF7C4
:104E70007FFA164D4FF40064002221462846FCF7C5
:104E800076FE022100940120CDE90101284603911C
:104E90006946FCF73BFD0121002000F036F80020B8
:104EA00000F016F800F07F0040F01001002000F044
:104EB0002CF88421FE2000F028F80121002000F0C9
:104EC00024F807B030BD000030380240000C02402A
:104ED00010B50446FFF70AFBE020FFF7CFFAFFF713
:104EE00051FB2046FFF7CAFAFFF74CFBFFF7FEFA2B
:104EF000E120FFF7C3FAFFF745FB0020FFF786FA32
:104F00000446FFF719FB204610BD70B50D46044658
:104F1000FFF7ECFAE020FFF7B1FAFFF733FB20468A
:104F2000FFF7ACFAFFF72EFB2846FFF7A7FAFFF7CB
:104F300029FBFFF701FBBDE870400A2001F0B0BF7C
:104F400070B5050A0446C9B1012926D0022933D01B
:104F5000032940D004294DD100211620FFF7D5FFA9
:104F600000211720FFF7D1FF1820E1B2FFF7CDFF96
:104F700019202946BDE87040FFF7C7BF0021062071
:104F8000FFF7C3FF00210720FFF7BFFF0820E1B2B2
:104F9000FFF7BBFF09202946ECE700210A20FFF7B5
:104FA000B4FF00210B20FFF7B0FF0C20E1B2FFF7A8
:104FB000ACFF0D202946DDE700210E20FFF7A5FFFD
:104FC00000210F20FFF7A1FF1020E1B2FFF79DFFA6
:104FD00011202946CEE700211220FFF796FF00217D
:104FE0001320FFF792FF1420E1B2FFF78EFF152088
:104FF0002946BFE770BD000010B586B004461421F5
:105000006846FBF7B9F90D4B012C4FF400504FF0F7
:1050100002010CD0002C08D100220090CDE9012122
:10502000039169461846FCF771FC06B010BD0122D9
:10503000CDE90221CDE90002F3E70000000C0240B7
:10504000F0B587B038491C226846FBF76EF9374C3B
:105050003748354994ED041A90ED070A80ED021A9D
:10506000237E354A354D1A2B354EDFED320A02D0FC
:10507000142B26D046E0334BC0ED020AD0ED070AD0
:1050800070EEC00AF0EEE00A10EE907A9F42F5DB77
:10509000DFED2D0A9FED2D0AC0ED020AD2ED0B0ABD
:1050A000C5ED000A81ED000A02F070F8D4ED070AA0
:1050B00030EE600AB0EEC00A10EE100AB042F3DC27
:1050C00020E0234FC0ED020AD0ED070A70EEC00ABF
:1050D000F0EEE00A10EE903ABB42F5DB92ED050AE5
:1050E000DFED1C0A85ED000AC1ED000A02F04EF862
:1050F000D4ED070A30EE600AB0EEC00A10EE100AD6
:10510000B042F3DC08481C226946FBF70EF99FED1C
:10511000120A002085ED000A2075207840F0040076
:10512000207007B0F0BD00009C51002038570020CF
:10513000C80D00200000DC42609F0008C00D002068
:10514000000020410000DC420000704200002042CC
:105150000000704200008C4200000000642010B586
:10516000FCF7C2FB00F010F84FF4FA70FCF7BCFB40
:10517000BDE81040AFF30080012202482021FCF777
:10518000F6BC000000000240002202482021FCF78B
:10519000EEBC0000000002402DE9F04361491C22F2
:1051A0002DED028B87B0B0EE408A6846FBF7BDF864
:1051B0009FED5D0A5D4C022084ED020A02F0F0FDD5
:1051C00058485B4FB3EE090AF2EE0E0A80ED000A72
:1051D000C0ED020A5749B8688842FDD39FED560AD0
:1051E000DFF8588184ED020A554DD4ED078A03E0BB
:1051F00001F0CCFF88ED010A94ED070A30EE680A51
:1052000010EE100AA842F3DB042002F0C9FD9FED66
:105210004D0AFA2084ED030AFBF7B6FBFBF7DCFE30
:10522000494E97ED000AD6ED020A02F0F5FC002087
:10523000D4ED078A02F0B4FDBBEE0E0A434D84EDB7
:10524000010A84ED000A00BF94ED070A38EEC00A97
:1052500010EE100AA842F7DBFBF7BEFEFFF77EFF59
:10526000052001F0D2FC642001F01AFE032001F0B9
:10527000CCFC9FED370A00F061FEDFF8D89000BF4C
:1052800001F084FFD8ED000A30EEC00AB0EEC00A8B
:1052900010EE100A4845F3DC307901F019FD68B1D1
:1052A000012001F0B2FC322001F0FAFD00F0F6FD21
:1052B000022001F0AAFC322001F0F2FD062001F0EC
:1052C000A4FC642001F0ECFD02F09EFA9FED220A9E
:1052D000022084ED020A02F063FDB868A842FDDBFB
:1052E000A842FDDC9FED1D0A84ED020A94ED070A39
:1052F000D4ED070A70EEC00AF4EEC80AF1EE10FA17
:10530000F6D308481C226946FBF70FF800203075D9
:10531000307840F00400307007B0BDEC028BBDE87F
:10532000F08300009C51002000002042C80D0020A6
:10533000A05600200000A0C10000BE42F40D0020D5
:1053400000005C4200008C423857002000002041E1
:10535000000033430000A0400000824200001842D9
:105360002DE9F04102202DED028B88B002F018FDEE
:105370005C4C207907285CD05B491C226846FAF710
:10538000D4FF5948594EB3EE090AF2EE0E0A80EDE9
:10539000000AC0ED020A5649B0688842FDD388422F
:1053A000FDD351481C226946FAF7BFFFDFED518A51
:1053B000524F0420504D94ED020A87ED010AC5EDCD
:1053C000038A02F0EDFCC820FBF7DEFAFBF704FECF
:1053D000D4ED020A96ED000A02F01EFC002095EDC5
:1053E000078A02F0DDFCBBEE0E0A85ED010A85EDB1
:1053F000000A4FF0824100BF95ED070A38EE400ADF
:1054000010EE100A8842F7DBFBF7E6FD01F04EFCD8
:1054100040F2DC50FCF768FA01F040FC2079384992
:1054200001280DD009280ED00E280CD01B280DD035
:105430000EE000F06BF808B0BDEC028BBDE8F08127
:105440000420086004E00620486001E0082088602D
:1054500002F0DAF9FFF782FE052001F0D6FB6420A6
:1054600001F01EFD032001F0D0FB642001F018FDC7
:105470009FED240A00F062FD4FF0804801F086FEA7
:10548000D7ED000A30EEC00AB0EEC00A10EE100AE6
:105490004045F3DC207901F01BFC50B1012001F004
:1054A000B4FB322001F0FCFC00F0F8FC022001F01B
:1054B000ACFB062001F0A9FB02F0A6F9B7EE000A4A
:1054C000C5ED028A022085ED080A02F069FC0E494A
:1054D000B0688842FDD800202075207840F0040094
:1054E0002070A8E7385700209C510020A0560020CB
:1054F0000000A0C000004842C80D0020F40D0020AC
:105500008856002000003343000070C11A4870B56F
:105510001A4980688842FDDC01F038FE184C1A48B0
:10552000DFED180A84ED010AC0ED030A042002F041
:1055300037FC1648D0F808110029FBD1FBF74CFDC9
:105540009FED130A00F0FAFC124D00BF01F01EFEA1
:10555000D4ED000A30EEC00AB0EEC00A10EE100A18
:10556000A842F3DC02F050F90B48002101750178E4
:1055700041F00401017070BDA056002000002041E0
:10558000F40D002000002042C80D002000804042A1
:10559000000036430000A0403857002010B504F04A
:1055A000F9F802F093F802F021FB0448006804F0D7
:1055B000E3F9BDE8104004F011B9000078000020C4
:1055C000054920201CB500238022CDE900010648B2
:1055D00002A104F07FFB1CBD7800002053746172AF
:1055E000745F7461736B00009D55000830B52949E4
:1055F0001C222DED028B8FB06846FAF796FE2649E5
:105600001C2207A8FAF791FE254C22489FED250A97
:105610009FED228AD4ED070A80ED000A84ED028A0C
:1056200001F0B4FD2148DFED200A80ED010A1A489F
:10563000C0ED000A042084ED038A02F0B1FB1C4C8B
:105640001C4D02E0052004F023F9A068A842F9DB14
:1056500001F02CFB184D02E0052004F019F9A068B8
:10566000A842F9D30C481C2207A9FAF75EFE0948A4
:105670001C226946FAF759FE01F010FB0F48002181
:105680000175017841F0040101700FB0BDEC028B8F
:1056900030BD00009C510020D45100200000484340
:1056A000C80D0020000048423333B33FF40D002002
:1056B000A056002000004040000040C038570020A5
:1056C000502010B572B680F31188BFF34F8FBFF32F
:1056D0006F8F62B604F060FB18B104494FF0805040
:1056E0000860002080F3118810BD000004ED00E088
:1056F00030B5B3B0302121A8FAF73EFE14212DA811
:10570000FAF73AFE84216846FAF736FE2748016820
:1057100041F080510160006800F0805032902448D0
:10572000016841F440410160006800240DF1A40CBF
:1057300000F4404032900225219510210822D82300
:10574000CDE927548CE82C0001202C95CDE92401CB
:1057500021A8FCF77DFE08B172B6FEE7FCF7BCFAA3
:1057600008B172B6FEE74FF480522F944FF4A05167
:105770000F20CDE93012CDE92D0507212DA8FCF72A
:105780005FFD08B172B6FEE74FF4DE50119412943B
:10579000149413941694179400906846FCF7D2FA68
:1057A000002801D072B6FEE733B030BD4038024069
:1057B000007000400248016841F4700101607047C8
:1057C00088ED00E00148FDF7ECBF0000501000201C
:1057D0000148FDF7E6BF00009C1000200148FDF7DE
:1057E000E0BF0000E810002010B50A4C2068C06837
:1057F000C043C00709D108480069804722680021DA
:10580000642051622168C862E0606FF00100216885
:10581000086110BDDC530020F40000200648006839
:10582000C168C943C90703D104490A88521C0A80C8
:105830006FF0010101617047445200208000002098
:1058400070B5154C2068C068C043C0071ED1134D09
:105850000023134918460A5C521CD2B2032A0A5488
:1058600001D345F82030FF2A00D30B54401CC0B2AE
:105870000428F0D30B480178491CC9B2017064298F
:1058800004D9037001210848FCF769F921686FF019
:105890000100086170BD00008050002048540020C5
:1058A000FC01002070000020000802400148FDF7C4
:1058B00078BF000044130020F0B5274B4FF0804E16
:1058C000264D02689842264E264F274C09D0704537
:1058D00007D0A84205D0B04203D0B84201D0A042C0
:1058E00005D1D1F804C022F070024CEA02029842BD
:1058F0001BD0704519D0A84217D0B04215D0B8427D
:1059000013D0A04211D0194DA8420ED0184DA84274
:105910000BD0184DA84208D0174DA84205D0174DFE
:10592000A84202D0164DA84203D1CD6822F440729D
:105930002A434D6922F080022A43026098428A6815
:10594000C2620A68826201D0A04201D10969016382
:1059500001214161F0BD0000000001400004004051
:1059600000080040000C00400004014000400140DD
:10597000004401400048014000180040001C004065
:105980000020004010B5046A012301F01F018B4084
:105990009C4304628A40016A1143016210BD42EADD
:1059A000032283680A4323F47F410A4382607047DD
:1059B000826822F070020A4342F00701816070475A
:1059C000F0B5026ADFF860C0184F22F00102DFF87C
:1059D00060E00262066A4268836926F002060D688A
:1059E000B8428C6803EA0C0323F0030344EA06047C
:1059F00045EA030501D0704505D1CB6824F00804C1
:105A0000234323F00404B84201D0704505D122F4A9
:105A10004076D1E9053233431A43426085614968D3
:105A200041630462F0BD00008FFFFEFF00000140F3
:105A300000040140F0B5026A194E1A4C22F010021F
:105A4000DFF864E00262056A4368826925F0200598
:105A5000D1F808C0A0420F6802EA060222F44072A0
:105A600045EA0C1542EA072201D0704506D1CE68FE
:105A700025F0800545EA061525F04005A04201D035
:105A8000704507D1D1E9054623F4406343EA840316
:105A900043EA860343608261496881630562F0BD21
:105AA000FF8FFFFE0000014000040140F0B5026AD4
:105AB000194F1A4E22F48072DFF864E00262056A20
:105AC0004368C26925F40075D1F808C0B0420C687B
:105AD00002EA070222F0030245EA0C2544EA020426
