:020000040800F2
:10000000704F0020A5020008333F0008A737000802
:10001000313F0008B3090008155100080000000036
:10002000000000000000000000000000E1010008E6
:10003000B5090008000000003D02000875410008F5
:10004000BF020008BF020008BF020008BF0200088C
:10005000BF020008BF020008BF020008BF0200087C
:10006000BF020008BF020008BF020008BF0200086C
:10007000BF020008BF020008BF020008BF0200085C
:10008000BF020008BF020008BF020008BF0200084C
:10009000BF020008BF020008BF020008BF0200083C
:1000A000BF02000879420008BF020008BF02000832
:1000B00085420008914200089D420008BF020008E6
:1000C000BF020008BF020008BF020008BF0200080C
:1000D000BF020008AD500008F1500008FD500008B4
:1000E000BF020008BF020008BF020008BF020008EC
:1000F000BF02000861430008BF020008BF020008F9
:10010000BF020008BF020008D1420008BF02000879
:1001100051490008BF020008BF020008F54200086C
:10012000BF020008BF020008BF020008BF020008AB
:10013000BF020008BF020008BF020008BF0200089B
:10014000BF020008BF020008BF020008BF0200088B
:10015000BF020008BF020008BF02000809510008E2
:10016000BF020008BF020008BF020008BF0200086B
:10017000BF020008BF020008BF020008BF0200085B
:10018000BF020008BF020008494A0008BF02000879
:10019000BF020008BF020008BF020008BF0200083B
:1001A000BF020008BF020008BF020008BF0200082B
:1001B000BF020008BF020008BF020008BF0200081B
:1001C000BF020008BF020008DFF810D000F0B4FB47
:1001D00000480047415D0008AFF30080704F0020E9
:1001E0002D4B19680868B0E8F04F80F30988BFF319
:1001F0006F8F4FF0000080F31188704700000000FF
:1002000008480068006880F308884FF0000080F319
:10021000148862B661B6BFF34F8FBFF36F8F00DFF4
:1002200000BF00BF08ED00E0DFF80C00016841F4FA
:1002300070010160704700BF88ED00E0EFF30980B6
:10024000BFF36F8F144B1A681EF0100F08BF20ED1C
:10025000108A20E9F04F106009B44FF0500072B6D8
:1002600080F31188BFF34F8FBFF36F8F62B607F033
:1002700079FD4FF0000080F3118809BC1968086807
:10028000B0E8F04F1EF0100F08BFB0EC108A80F3FA
:100290000988BFF36F8F704710000020EFF30580CF
:1002A000704700000648804706480047FEE7FEE723
:1002B000FEE7FEE7FEE7FEE7FEE7FEE7FEE7FEE716
:1002C00069420008C90100082DE9F05F05460020D9
:1002D00092469B4688460646814640241BE02846B7
:1002E00041464746224600F058FA53465A46C01A3D
:1002F000914110D311461846224600F03FFA2D1ABC
:1003000067EB01084F4622460120002100F036FA33
:1003100017EB00094E41201EA4F10104DFDC484622
:1003200031462A464346BDE8F09F10B5431A934232
:1003300009D28318881803E010F8011D03F8011D85
:10034000521EF9D210BD40EA01039B0703D009E019
:1003500008C9121F08C0042AFAD203E011F8013BB1
:1003600000F8013B521EF9D210BDD2B201E000F8F4
:10037000012B491EFBD270470022F6E710B5134649
:100380000A4604461946FFF7F0FF204610BD2DE946
:10039000FE4F804681EA0300C00F0C46009021F01A
:1003A000004123F00045B8EB0200A94105D24046C8
:1003B000214690461C460B46024623F0004010435F
:1003C00047D0270DC7F30A00C3F30A510290401A21
:1003D000019040286BDAC3F3130040F4801B0098AF
:1003E000924620B10023D2EB030A63EB0B0B01987A
:1003F0005946C0F14002504600F0C0F906460D468D
:1004000050465946019A00F0D8F910EB08006141B6
:10041000002487EA115284EAE7731A4340D0009A15
:1004200062B3019A012A4FEA075215DC001B61EB07
:1004300002014FF0004202EA0752CDE90042001CDF
:1004400041F5801132462B4600F00FFA03B0BDE8AB
:10045000F08F40462146F9E7001B61EB0201001CCA
:1004600041F5801300185B412018A2F5001747EBF7
:10047000030140EAD570B6196D4111E06D084FEAED
:10048000360645EAC0754FEA0752001B61EB0201D0
:10049000001C41F5801149084FEA30000019514114
:1004A00032462B4603B0BDE8F04F00F0CFB90098BC
:1004B000012240000023D0EB020263EBE0730098BE
:1004C00021464FEAE074B8EB000061EB0401E9E774
:1004D00083F000435BE781F0004158E72DE9FE4FD0
:1004E00081EA030404F0004421F0004100944FF03D
:1004F000000B23F0004350EA01045ED052EA0304EB
:100500005BD0C3F30A54C1F30A552C44A4F2F3346C
:100510000194A0FB0254C1F3130141F48011C3F311
:10052000130343F4801301FB024400FB034E840ACF
:10053000970A44EA815447EA8357A4FB0768029567
:100540008D0A05FB07854FEA932C04FB0C54270505
:10055000029D4FEA065847EA1637B5EB08056EEBE1
:10056000070C870E920E47EA811742EA8312A7FB17
:100570000201B6EB0B0164EB00042B0D43EA0C33D4
:100580005E1844EB1C50DA465146E7FB0201C5F306
:1005900013044FEA0B3343EA14534FEA0432019C2D
:1005A00043EA0603A4F10C040294009CCDE900B4D4
:1005B00000F05BF903B0BDE8F08F00200146F9E7D9
:1005C0002DE9F04D81EA030404F0004B21F00045D1
:1005D00014464FF0000A23F0004150EA050220D0F3
:1005E00054EA01021DD0C5F30A570246C5F31303AE
:1005F000C1F31300C1F30A5640F4801543F480138D
:10060000A7EB0608101BD64608F2FD3873EB050071
:1006100002D308F1010801E092185B41B8F1000F24
:1006200003DA00200146BDE8F08D00204FF4801170
:10063000064684460EE0171B73EB050705D3121B15
:1006400063EB050306434CEA010C49084FEA30000E
:1006500092185B4150EA0107EDD152EA030012D033
:1006600082EA040083EA0501084305D0101BAB4170
:1006700006D20122002306E000224FF0004302E0F0
:100680006FF0010253101AEB06004CEB085110EB0F
:100690000A0041EB0B01BDE8F04D00F0D7B80EB5F4
:1006A000C10F80EAE0700844CA07002140F23343DA
:1006B0008DE80E000A460B4600F0D7F803B000BDE7
:1006C00000F0004230F000400AD0C10D01F5607129
:1006D000C0F3160042EA0151C208400711437047B7
:1006E000002001467047000030B5041E71F100047F
:1006F00004DB4FF00044404264EB0101141E73F12F
:10070000000405DB1C464FF00043524263EB040338
:10071000994208BF904230BD01F0004330B421F04F
:10072000004150EA010206D00A0DA2F56072C1F341
:100730001301002A02DC30BC00207047440F44EA59
:10074000C104C100E01830BC00EBC25000F047B853
:1007500030B50B46014600202022012409E021FA91
:1007600002F59D4205D303FA02F5491B04FA02F58E
:100770002844151EA2F10102F1DC30BD202A04DB61
:10078000203A00FA02F1002070479140C2F12003A4
:1007900020FA03F3194390407047202A04DB203AE3
:1007A00021FA02F00021704721FA02F3D040C2F191
:1007B00020029140084319467047202A06DBCB17D8
:1007C000203A41FA02F043EAE07306E041FA02F30C
:1007D000D040C2F1200291400843194670470029D9
:1007E000A8BF7047401C490008BF20F001007047B7
:1007F00010B4B0FA80FC00FA0CF050EA010404BF17
:1008000010BC704749B1CCF1200421FA04F411FA6C
:100810000CF118BF012121430843A3EB0C01CB1DB0
:100820004FEA00614FEA102042BF002010BC704721
:1008300000EBC35010440029A4BF10BC7047401CFB
:10084000490008BF20F0010010BC704710B5141E0D
:1008500073F1000408DA401C41F1000192185B4179
:100860001A4301D120F0010010BD2DE9F04D924650
:100870009B4611B1B1FA81F202E0B0FA80F2203267
:100880009046FFF77BFF04460F4640EA0A0041EA24
:100890000B0153465A46084313D0114653EA010050
:1008A00019D0C8F140025046FFF777FF05460E46C3
:1008B000504659464246FFF761FF084305D00120E4
:1008C00004E020463946BDE8F08D0020054346EAA5
:1008D000E0762C4337430A986305E40AA0EB08004E
:1008E0000022FD0A44EA47540A3002D5002001469E
:1008F000E9E7010510196941DDE908450019694179
:10090000BDE8F04DA2E7C1F30A52C1F3130140F272
:10091000FF3341F480119A4202DA00200146704709
:1009200040F233439A42A2F2334202DC5242FFF7D2
:1009300034BFFFF723BF0000064C074D06E0E06818
:1009400040F0010394E8070098471034AC42F6D316
:10095000FFF73EFC5C8200087C82000870B58C18B2
:1009600010F8015B15F0070301D110F8013B2A11C3
:1009700006D110F8012B03E010F8016B01F8016BB0
:100980005B1EF9D12B0705D40023521E0DD401F8AC
:10099000013BFAE710F8013BCB1A921C03E013F875
:1009A000015B01F8015B521EF9D5A142D8D30020AA
:1009B00070BDFEE77047000070B5C1493D22C148D7
:1009C000FFF7B3FCBE4D0C21BF4EBE4C95F83D0069
:1009D000B21584F83D0095F83E0084F83E0095F885
:1009E0003F0084F83F0095F8400084F8400095F8F7
:1009F000410084F8410095F8420084F8420095F8DF
:100A0000430084F8430095F8440084F8440095F8C6
:100A1000450084F8450095F8460084F8460095F8AE
:100A2000470084F8470095F8480084F848002046BD
:100A3000E664C4E91421403401F0F8FF6069403CE9
:100A400000287CD004287BD008282068016A78D050
:100A500021F4204101622068016A01623D22994827
:100A600097495C30FFF761FC964C082195F83D20D2
:100A70005C34880184F83D2095F83E2084F83E20BF
:100A800095F83F2084F83F2095F8402084F84020D6
:100A900095F8412084F8412095F8422084F84220BE
:100AA00095F8432084F8432095F8442084F84420A6
:100AB00095F8452084F8452095F8462084F846208E
:100AC00095F8472084F8472095F8482084F8482076
:100AD000E664C4E914012046403401F0A7FF6069D0
:100AE000403C00287ED004287DD008282068016A78
:100AF0007AD021F4204101622068016A01623D221E
:100B000070486F49B830FFF710FC6E4C00216F4EF3
:100B100095F83D00B834022284F83D0095F83E0077
:100B200084F83E0095F83F0084F83F0095F84000B7
:100B300084F8400095F8410084F8410002E087E025
:100B40008BE08FE095F8420084F8420095F843006E
:100B500084F8430095F8440084F8440095F8450073
:100B600084F8450095F8460084F8460095F847005B
:100B700084F8470095F8480084F848002046E66469
:100B8000C4E91421403401F051FF6069403C002861
:100B90007BD004287ED008282068016A6CD021F41C
:100BA000204101622068016A01623D2244494848AF
:100BB000FFF7BBFB464C042195F83D20012084F84B
:100BC0003D2095F83E2084F83E2095F83F2084F89B
:100BD0003F2095F8402084F8402095F8412084F883
:100BE000412002E041E048E04CE095F8422084F8E2
:100BF000422095F8432084F8432095F8442084F857
:100C0000442095F8452084F8452095F8462084F83E
:100C1000462095F8472084F8472095F8482084F826
:100C20004820E664C4E914012046403401F0FEFE89
:100C30006069403C98B304283AD008282068016ACB
:100C40003BD021F4204101622068016A016270BD3D
:100C50002068016A21F00A01FCE62068016A21F09F
:100C6000A001F7E621F42061F4E62068016A21F092
:100C70000A0140E709E00DE012E02068016A21F076
:100C8000A00138E721F4206135E72068016A21F0EE
:100C90000A0186E72068016A21F0A00181E702E0ED
:100CA00021F420617DE72068016A21F00A01CAE78A
:100CB0002068016A21F0A001C5E721F42061C2E7A4
:100CC000380500204C49002000040240001002407A
:100CD000604A002072B6FEE72DE9F041876D0446B8
:100CE00000F08CF9064694F835000025022806D05D
:100CF00080206065012084F83450BDE8F0812068D0
:100D0000016821F0160101602068416921F080012D
:100D10004161206C08B9A06C20B12068016821F005
:100D2000080101602068016821F0010101600CE008
:100D300000F064F9801B052807D920216165032094
:100D400084F8350084F83450D7E720680068C0077D
:100D5000EED194F85C203F2001219040B86084F8E7
:100D60003510002084F83450C7E790F83510022978
:100D700003D08021416501207047052180F835109E
:100D80000068016821F00101016000207047000047
:100D90002DE9F84FDFF80CB2012403254FF00F0ABC
:100DA00000220BF1040E00BF0B6804FA02F6334078
:100DB000B34278D10F7907F00307012F01D0022F3A
:100DC0001AD187684FEA4209D1F80CC005FA09F830
:100DD00027EA08070CFA09FC4CEA070CC0F808C01F
:100DE000476891F804C0B743CCF3001C0CFA02FC2E
:100DF0004CEA070CC0F804C00E79F643B6070BD0D6
:100E0000C6684FEA420C8F6805FA0CF826EA080615
:100E100007FA0CF73743C7600E7906F00306022E77
:100E200012D1D6084FEA427800EB860600960F6989
:100E3000D6F820904FEAD8660AFA06FCB74029EAAD
:100E40000C063743009E37620F7906684FEA420C62
:100E500007F0030705FA0CF807FA0CF726EA08066C
:100E6000374307604E6816F4403F1CD04E4E37683B
:100E700047F480473760366822F00308970706F486
:100E800080460096494E3F0F4644B146D6F8086862
:100E9000DFF81C810AFA07FC404526EA0C0603D15C
:100EA0004FF0000C41E076E0DFF808C1604502D168
:100EB0004FF0010C39E0DFF800C1604502D14FF07E
:100EC000020C32E0DFF8F4C0604502D14FF0030CB1
:100ED0002BE0DFF8ECC0604502D14FF0040C24E0B9
:100EE000DFF8E0C0604502D14FF0050C1DE0DFF8EF
:100EF000D8C0604502D14FF0060C16E0DFF8CCC038
:100F0000604502D14FF0070C0FE0DFF8C4C0604528
:100F100002D14FF0080C08E0DFF8B8C0604502D1FC
:100F20004FF0090C01E04FF00A0C0CFA07FC4CEAF8
:100F3000060CC9F808C84F68DBF80060FF0226EA13
:100F4000030600D51E437746CBF80060D1F804C0F5
:100F5000DEF800605FEA8C2C26EA030600D51E430B
:100F6000DFF840C03E60ACF1040C4F68DCF8006074
:100F7000BF0326EA030600D51E430A4FCCF80060E3
:100F8000083FD1F804C03E685FEACC3C26EA03067D
:100F900000D51E433E60521C102AFFF405AFBDE889
:100FA000F88F0000083C0140443802400030014006
:100FB000000002400004024000080240000C024011
:100FC000001002400014024000180240001C0240C1
:100FD00000200240002402400069084000D00120A7
:100FE0007047426921EA02030A4043EA02418161F3
:100FF00070470AB1816170470904FBE701488068C6
:101000007047000000000020024881680278114407
:101010008160704700000020032010B500F08CF8BC
:101020000F2000F005F800F03DF8002010BD000092
:1010300010B5002201462D2088B000F05DF82D206B
:1010400000F04CF81348016841F4807101600068B9
:1010500005A900F480700690684600F0CBFB00F014
:10106000E9FB0D49400000220C4CB0FBF1F10C48AB
:1010700040F2E7330460C0E90332491EC0E90112BF
:1010800000F090FE10B1012008B010BD044800F03F
:1010900033FFF9E74038024040420F000020004093
:1010A000940700200C4882B0016841F08051016033
:1010B000006800F0805000900748001D016841F46E
:1010C00080410160006800220F2100F48040009000
:1010D000901E02B000F010B840380240002809DB32
:1010E000410900F01F028900012001F1E021904038
:1010F000C1F80001704700000E4BF0B41B680D46AC
:10110000C3F30223C3F10706042E00D90426191DD8
:10111000072901D2002300E0DB1E012404FA06F1B6
:101120009C40491E2940641E994014402143F0BC54
:1011300004F002B80CED00E0064900F0070210B51B
:101140004FF6FF040868044B204040EA0220184391
:10115000086010BD0CED00E00000FA051848F8B575
:10116000016841F0805101600068164C00F0805029
:101170000090206840F480302060FFF73FFF4FF47C
:101180007A76054605E000BFFFF738FF401BB04206
:101190000FD86068C003F7D5206840F400302060A5
:1011A000FFF72CFF054606E0FFF728FF401BB04283
:1011B00001D90320F8BD60688003F5D50020F8BD93
:1011C00040380240007000402DE9F84F0446007896
:1011D000DFF824944FF000063746C0070ED0D9F848
:1011E000001021F40001C9F80010D9F80010626B5A
:1011F0001143C9F80010606B00B90126FE4D20684C
:10120000843500030ED5E16B286820F440100843B4
:101210002860E06BB0F5801F01D010B102E001261C
:1012200000E0012720684FF4800BC0020CD5216C30
:10123000286820F4400008432860206C584501D1FC
:10124000012601E000B901272068C10100D501266F
:10125000800666D5E8483830016841F08051016069
:101260000068DFF898A300F080500090DAF80010D2
:1012700041F48071CAF80010FFF7C0FE804605E017
:10128000FFF7BCFEA0EB080064287DD8DAF8000068
:10129000C005F5D5DFF8608308F16808D8F80000CC
:1012A00010F440702AD0218E01F44071814225D083
:1012B000D8F80010D8F8002021F4407142F48032B0
:1012C000C8F80020D8F8002022F48032C8F80020A6
:1012D000C8F80010D8F80000C0070FD0FFF78EFE46
:1012E000824607E0FFF78AFEA0EB0A0141F2883050
:1012F0008142CAD8D8F800008007F3D5206BC0F32C
:10130000012103297ED0D9F8001021F4F811C9F881
:101310000010228ED8F80010C2F30B021143C8F857
:1013200000102078C00607D5286820F0807028605B
:101330002868A16B084328602188AF488830490499
:1013400005D5626E016821F44031114301602188A6
:10135000090405D5A26E016821F440211143016002
:101360002168C90305D5E26E016821F440111143DB
:1013700001602168890305D5226F016821F44001CD
:1013800011430160217800E016E1490605D5626C41
:10139000016821F00301114301602178090605D598
:1013A000A26C016821F00C01114301602188C9057C
:1013B00005D5E26C016821F03001114301602188FC
:1013C000890505D5226D016821F0C0011143016036
:1013D0002188490505D5626D016821F440711143EA
:1013E00001602188090505D5A26D016821F44061DD
:1013F000114301602188C90407D5E26D016821F419
:10140000405100E04AE0114301602188890405D57C
:10141000226E016821F440411143016021684902B4
:1014200005D5A26F016821F0806111430160216838
:101430004FF0006A890209D5E26F016821F000616E
:1014400011430160E16F514500D1012721680A076E
:1014500000D50127490305D5626F016821F040716D
:10146000114301602168090206D5D4F88020016883
:1014700021F0805111430160DFF88491012E02D0E8
:10148000206880017ED5D9F800004E4620F08060AB
:10149000C9F80000FFF7B2FD80460FE0594AD9F8BD
:1014A0000030104023F4F8120243C9F8002030E75E
:1014B000FFF7A4FDA0EB080064287DD83068000188
:1014C000F6D421784C487C30C90712D0616B81B9C1
:1014D000237A62680168D0F800C09201C1F301412B
:1014E00042EA0142CCF3036142EA016141EA03713D
:1014F000016021680A0303D5E26BB2F5801F04D0B6
:10150000C9021AD5216C594517D16368016894F84E
:101510000CC002689B01C1F3014143EA0141C2F3DF
:10152000027241EA0C6141EA027101602968626A53
:1015300021F01F01521E114329602168C90110D5F5
:10154000238A62680168D0F800C09201C1F3036188
:1015500042EA034242EA0162CCF3027142EA0171BB
:101560000160216889010CD56168228A237B94F887
:1015700008C0890141EA024141EA036141EA0C7174
:10158000016000E011E03168B04641F080613160F7
:10159000FFF734FD064604E0FFF730FD801B6428AA
:1015A0000AD8D8F800000001F6D56FB3D9F80000CA
:1015B0004E4620F0805000E07BE0C9F80000FFF7C5
:1015C0001DFD074605E000BFFFF718FDC01B64289E
:1015D0006FD83068C0438000F6D507482168803056
:1015E0000A0301D5E26B1AB1C90225D5216C19BBDA
:1015F00063690168277E08E00838024000700040F7
:1016000000380240FFFCFF0F5AE00268C1F30141BD
:101610009B0143EA0143C2F3027143EA076242EAD3
:101620000171016029686FF0FF03A26A21F4F8518B
:1016300003EB0222114329602168890212D5E16F70
:1016400051450FD1238C6269016807689201C1F38B
:10165000036142EA034242EA0162C7F3027142EACD
:10166000017101602178090716D561690268D0F817
:1016700000C08B01277FC2F30362CCF3014143EA30
:10168000014141EA026141EA077101602868E16AAB
:1016900020F4403008432860306840F080503060CB
:1016A000FFF7ACFC044607E0FFF7A8FC001B64282A
:1016B00002D90320BDE8F88F3068C0438000F3D41E
:1016C0000020F7E72DE9F04705000F4663D0444EB0
:1016D000306800F00F00B84209D2306820F00F00E7
:1016E00038433060306800F00F00B84253D12868AA
:1016F0003C4C810712D5400703D5206840F4E050E8
:1017000020602878000703D5206840F460402060FE
:10171000A968206820F0F000084320602878C007FE
:101720002AD0304968680839012810D00968022891
:1017300010D0890700292EDA216821F00301014326
:101740002160FFF75BFC804641F288390DE00968B3
:101750008903EFE78901EDE7FFF750FCA0EB0801F3
:10176000494502D90320BDE8F0876868216801F087
:101770000C01B1EB800FEFD1306800F00F00B842E0
:101780000BD9306820F00F0038433060306800F02B
:101790000F00B84201D00120E5E72878400705D5C1
:1017A000E968206820F4E0500843206028780007AA
:1017B00006D52869216821F4604141EAC000206013
:1017C00000F058F82168084AC1F30311515CC84081
:1017D0000649086006480068FFF72AFC0020C2E7B7
:1017E000003C024008380240E08000080C00002065
:1017F000040000200D4A0F2330B503604FF4E0547D
:101800000B4B156805F003054560156805F0F005FC
:101810008560156805F4E055C560126804EAD202D7
:101820000261186800F00F00086030BD08380240FF
:10183000003C02400449054809680068044AC1F3B5
:101840008221515CC8407047083802400C000020DB
:10185000F08000080449054809680068044AC1F39B
:101860004231515CC8407047083802400C000020EB
:10187000F0800008154910B51548096811F00C02F0
:1018800013D04110042A0FD0082A0ED10F4C241F68
:101890002268236802F03F025B0207D52068C0F38C
:1018A0008810A0FB010106E0084610BD2168C1F3C5
:1018B0008811A1FB00010023FEF706FD2168C1F39A
:1018C0000141491C4900B0FBF1F010BD083802404D
:1018D0000024F4002DE9F84F04004FF000076ED00B
:1018E0002078DFF868A3AAF10408C007A8F104056E
:1018F0004CD0DAF800105046C1F38101012908D01C
:101900000068C0F3810002280AD1D8F80000400224
:1019100006D52868800339D560680028DFD035E017
:101920006068B0F5803F0BD010B1B0F5A02F11D09A
:10193000286820F480302860286820F4802002E0A5
:10194000286840F480302860606890B1FFF756FB4B
:1019500006460AE0286840F480202860F0E700BFCF
:10196000FFF74CFB801B642872D828688003F7D5EA
:101970000CE0FFF743FB064605E000BFFFF73EFB28
:10198000801B6428F0D828688003F7D4207880076B
:1019900042D5DAF80010504611F00C0F08D000685C
:1019A000C0F3810002280BD1D8F80000400207D410
:1019B0002868800718D5E068012800D114E041E1CB
:1019C000E0680028286817D040F001002860FFF781
:1019D00015FB064605E000BFFFF710FB801B022841
:1019E000C2D828688007F7D52069296821F0F80156
:1019F00041EAC00028600FE020F001002860FFF7F6
:101A0000FDFA064605E000BFFFF7F8FA801B022842
:101A10001ED828688007F7D42078000729D58B487E
:101A200061696C3000298146016812D041F00101E2
:101A30000160FFF7E3FA064605E000BFFFF7DEFAB4
:101A4000801B022804D8D9F800008007F6D510E0E2
:101A500089E021F001010160FFF7D0FA064604E0B9
:101A6000FFF7CCFA801B02287DD8D9F80000800748
:101A7000F6D4207840076BD5DFF8D09109F138090A
:101A8000D9F80000C0000BD4D9F8001041F0805103
:101A9000C9F80010D9F80000012700F0805000902C
:101AA0006B480168C90512D40168834641F480710E
:101AB0000160FFF7A3FA064605E000BFFFF79EFAB4
:101AC000801B64284FD8DBF80000C005F6D55F4EB8
:101AD000A068683601280AD008B1052811D03068FE
:101AE00020F001003060306820F0040002E030682F
:101AF00040F001003060A068A0B1FFF77FFA834694
:101B00000CE0306840F004003060F0E7FFF776FA50
:101B1000A0EB0B0141F28830814266D83068800723
:101B2000F4D50EE0FFF76AFA834607E0FFF766FA9E
:101B3000A0EB0B0141F28830814256D83068800713
:101B4000F4D42FB1D9F8001021F08051C9F8001059
:101B5000A069C8B3DAF80010C1F3810102294BD0A3
:101B60000228286800E040E020F08070286003D060
:101B7000FFF744FA04463BE0FFF740FA064604E06C
:101B8000FFF73CFA801B02282FD828688001F7D481
:101B9000D4E90962D4E907012E4B570894F82C20A8
:101BA000084303EB074343EA8611084340EA026017
:101BB00040F00050C8F80000286840F080702860AD
:101BC000FFF71CFA044606E03EE000BFFFF716FAF6
:101BD000001B022809D828688001F7D534E000BF2F
:101BE000FFF70CFA001B022802D90320BDE8F88F8A
:101BF00028688001F4D427E00128D8F8000021D01B
:101C0000E16900F480028A421CD1216A00F03F029F
:101C10008A4217D1626A47F6C0710140B1EB821F58
:101C200010D1A16A4FF0FF3200F4403302EB5101B2
:101C3000B3EB014F06D194F82C1000F07060B0EBBC
:101C4000016F01D00120D1E70020CFE70838024022
:101C5000007000400000FFFF7047704770470000B1
:101C60002DE9F04390F83C20012A42D0012280F86F
:101C70003C2051F80C4BDFF880804FF0000991E8D0
:101C8000680051E9022723F44073B1F80CC03B43CC
:101C9000CF6923F480631343026823F40063234372
:101CA00023F4805343EA050323F4005343EA060375
:101CB00023F4804343EA07030C3923F4702342459D
:101CC00043EA0C4302D00D4CA2420CD18D8C23F47C
:101CD0007006D1E9073446EA055121F080711943B5
:101CE00021F000732343536480F83C900020BDE84A
:101CF000F0830220FBE700000000014000040140E7
:101D0000F0B590F83C20012A3BD01F4E012480F80A
:101D10003C40022280F83D2002681C4D5368B242CC
:101D2000D2F808C001D0AA4203D14F6823F470034F
:101D30003B430F6823F070031F4357600268B242B1
:101D400013D0B2F1804F10D0114B9A420DD0114BED
:101D50009A420AD0104B9A4207D0AA4205D00F4BA4
:101D60009A4202D00E4B9A4204D189682CF080032B
:101D700019439160002180F83D4080F83C100846EE
:101D8000F0BD0220F0BD0000000001400004014051
:101D90000004004000080040000C004000400140EA
:101DA0000018004010B5040003D094F83D0010B1B5
:101DB00007E0012010BD002084F83C00204600F020
:101DC00023F8022084F83D002068211D02F0CEFA9D
:101DD000012084F8480084F83E0084F83F0084F82D
:101DE000400084F8410084F8420084F8430084F8FD
:101DF000440084F8450084F8460084F8470084F8DD
:101E00003D00002010BD000030B587B0044614210D
:101E10006846FEF7B1FA3248216881420FD1314855
:101E2000016841F00101016000680022052100F015
:101E3000010005901920FFF75FF919204BE02A48AF
:101E4000B1F1804F39D0294A914246D1016841F021
:101E500002010160006800F002000590224810387D
:101E6000016841F001010160016801F00101059183
:101E7000016841F002010160006802240025694602
:101E800000F002000590C0200494CDE90004184839
:101E9000CDE90245FEF77CFF03206946CDE9000449
:101EA0001448CDE902450494FEF772FF0022052193
:101EB0001D20FFF721F91D200DE0016841F001010F
:101EC000016000680022052100F0010005901C203F
:101ED000FFF712F91C20FFF701F907B030BD000031
:101EE00000000140443802404038024000040040F5
:101EF000000002400004024090F83D10012901D08A
:101F000001207047174A022180F83D100168CB6814
:101F100043F00103CB600068904214D0B0F1804FD1
:101F200011D0114988420ED0104988420BD0104977
:101F3000884208D00F49884205D00F49884202D014
:101F40000E49884207D181680D4A1140062906D002
:101F5000B1F5803F03D0016841F00101016000202C
:101F600070470000000001400004004000080040ED
:101F7000000C0040000401400040014000180040F7
:101F80000700010070B5044690F83C0000250128C8
:101F900017D0334B012684F83C60022084F83D00C2
:101FA00022689068184020F47F40906008685028AC
:101FB00038D00DDC20284FD005DC90B3102811D18B
:101FC0004AE0022070BD302846D040280AD13BE0CC
:101FD00060282FD070280DD0B0F5805F03D0B0F509
:101FE000005F12D0012584F83D60002084F83C0099
:101FF000284670BD4A682068D1E9021302F029FA28
:102000002068816841F0770109E04A682068D1E9D9
:10201000021302F01EFA2068816841F48041816059
:10202000E1E719E0CA684968206802F059FB2068B6
:10203000502106E0CA684968206802F0A3FB2068C6
:10204000602102F00FFACEE7CA684968206802F002
:1020500047FB20684021F4E7226801461046F0E77C
:1020600088FFFEFF2DE9F05F8346007FDFF8F8A3CD
:102070000828FE4E4FF00107A6F13004A6F16008D3
:10208000A6F1400904F1400556D10AF110020021E1
:1020900004F1C0001170A2F1140102680B78416DC7
:1020A0001BB3012B7ED1126CE0380260E03000F0EF
:1020B0005FFD04F1C000B0F85010C06C89B2FEF7AB
:1020C0008BFF0AF1040108709AF8001081426AD06F
:1020D000A4F12001D8F80000096881424BD24FF6E4
:1020E000FF72101A401C084446E0D2F840C0C8F8FD
:1020F00000C011B3042924D00829116A25D021F485
:1021000020411162416D19B3042926D008290168C4
:102110000A6A27D042F400520A62D349091F0F709D
:10212000B0F85010C06C89B2FEF756FF8AF8000074
:10213000D8B1CE482038076092E0116A21F00A0138
:10214000DFE7116A21F0A001DBE721F42061D8E785
:1021500001680A6A42F00202DEE701680A6A42F098
:102160002002D9E742F40072D6E7C0494FF0FF30B1
:102170002039086074E0081ABB4A206008321078E1
:1021800058B30020C9F80000B8481C22291D10309F
:10219000FEF7CBF82068E8615FF0000055F82020DA
:1021A000401C01E0FAE040E02168C0B20828114478
:1021B0002160F3D3C908C9F80010AC4840F6B83222
:1021C0001038A0F1100103680968194401609142B8
:1021D00022DB32680021521C25E0DFF88CC2236824
:1021E0000CF10C0C9CF80000411CC9B245F82030E1
:1021F00008298CF80010E0D15FF00000216855F844
:102200002030401CC0B2082819442160F6D3C90808
:10221000C9F800101770D0E740F6B832D14204DC9C
:1022200032680021521E3260016000208E49091F71
:1022300008708E489030416D00F0F8FB8B4890306C
:10224000416D91B1042917D000680829016A18D09E
:1022500021F420410162854890300068016A0162E2
:102260009BF81C0004280FD006E1804890300068DD
:10227000016A21F00A01EDE70068016A21F0A0017E
:10228000E8E721F42061E5E778480021764AEC3060
:1022900010325170A2F11401497839B301297DD16E
:1022A0000068C16B71485038416000F59E70416D07
:1022B00000F05EFC6D48EC30B0F85010C06C89B294
:1022C000FEF78AFE6849091D48709AF8011081429C
:1022D00065D06649D8F804005039496881424CD22B
:1022E0004FF6FF72101A401C084447E00168CB6BA0
:1022F000C8F80430426D12B3042A24D0082A0A6AAE
:1023000025D022F420420A62416D19B3042926D057
:10231000082901680A6A27D042F400520A62524929
:10232000091F4F70B0F85010C06C89B2FEF754FE10
:102330008AF80100D8B14D48203847609CE00A6A0D
:1023400022F00A02DFE70A6A22F0A002DBE722F4A9
:102350002062D8E701680A6A42F00202DEE70168FB
:102360000A6A42F02002D9E742F40072D6E73F49F8
:102370004FF0FF30203948607EE0081ADFF8E8C0EF
:1023800060600CF1080C9CF8010070B33749002024
:102390001C22C9F804003431081F01E008E14CE0B8
:1023A000FDF7C3FF6068E8635FF0000005EB8001A4
:1023B000401CC0B20A6A0828616811446160F5D304
:1023C000C908C9F80410294840F6B8321038A0F1FD
:1023D00010014368496819444160914224DB7268E6
:1023E0000021521C7260416027E0FFE71E4A6368CB
:1023F0000C325078014605EB8000491CC9B20362DB
:1024000008295170DFD1002005EB8001401CC0B2CB
:102410000A6A0828616811446160F5D3C908C9F8DF
:1024200004108CF80170CEE740F6B832D14204DCDB
:1024300071680022491E7160426000200A49091F2C
:1024400048700A48EC30416D00F0F0FA0748EC3073
:10245000416DB1B104291AD000680829016A1BD066
:1024600021F42041016203E0E8010020BC48002083
:10247000FE480068016A01629BF81C0001280ED02A
:10248000FDE0FA480068016A21F00A01EAE7006805
:10249000016A21F0A001E5E721F42061E2E7F348B9
:1024A000F34A5C3000219170A2F11401897829B3BC
:1024B00001297DD10068416BEE48816000F5CC7048
:1024C000416D00F055FBE9485C30B0F85010C06C2D
:1024D00089B2FEF781FDE6490C3988709AF802103E
:1024E000814266D0E348D8F80810806888424CD210
:1024F0004FF6FF72511A491C084447E001684B6BC4
:10250000C8F80830426D12B3042A24D0082A0A6A97
:1025100025D022F420420A62416D19B3042926D045
:10252000082901680A6A27D042F400520A62D04999
:1025300014398F70B0F85010C06C89B2FEF74CFDA2
:102540008AF80200D8B1CB483030876097E00A6A39
:1025500022F00A02DFE70A6A22F0A002DBE722F497
:102560002062D8E701680A6A42F00202DEE70168E9
:102570000A6A42F02002D9E742F40072D6E7BD4968
:102580004FF0FF303031886079E0401ADFF8E0C268
:10259000A060ACF1080C9CF8020060B3B3490020C5
:1025A0001C22C9F808009839081FFDF7BEFE01E09B
:1025B000D4E049E0A068E8655FF0000005EB800129
:1025C000401CC0B20A6C0828A1681144A160F5D370
:1025D000C908C9F80810A74840F6B8324030A0F141
:1025E00010018368896819448160914222DBB268D6
:1025F0000021521C26E09E4AA368121F90780146D3
:1026000005EB8000491CC9B2036408299170E2D12E
:102610005FF0000005EB8001401CC0B20A6C082886
:10262000A1681144A160F5D3C908C9F808108CF855
:102630000270D0E7026840F6B831CA4204DCB268E2
:102640000021521EB26081600020894914398870CF
:1026500086485C30416D00F0E9F984485C30416D9A
:10266000E9B304294AD000680829016A4BD021F453
:10267000204101627D485C300068016A01629BF87C
:102680001C0002286AD17A4A4FF0000B7748A2F169
:102690001401B83082F803B0C97871B301295DD153
:1026A0000068816B7348C16000F5FA70416D00F0FD
:1026B0005FFA6E48B830B0F85010C06C89B2FEF7BF
:1026C0008BFC6B490C39C8709AF8031081427DD09D
:1026D0006849D8F80C00C96881425FD200E005E083
:1026E0004FF6FF72101A401C084458E05F485C30F7
:1026F0000068016A21F00A01BBE707E00068016A8F
:1027000021F0A001B5E721F42061B2E701688B6BED
:10271000C8F80C30426D1AB3042A25D0082A0A6A78
:1027200026D022F420420A62416D21B3042927D029
:10273000082901680A6A28D042F400520A624C490A
:102740001439CF70B0F85010C06C89B2FEF744FC59
:102750008AF80300E0B147483030C760BDE8F09F19
:102760000A6A22F00A02DEE70A6A22F0A002DAE729
:1027700022F42062D7E701680A6A42F00202DDE72C
:1027800001680A6A42F02002D8E742F40072D5E7F5
:1027900038494FF0FF303031C860DFE7081A34495C
:1027A000E0600839C87840B330491C224F46C9F868
:1027B0000CB07839081FFDF7B8FDE068E867002025
:1027C00005EB8001401CC0B2096E00E03EE0E2680B
:1027D00008281144E160F3D3C808F860254840F6A2
:1027E000B8324030A0F11001C368C9681944C16013
:1027F000914222DBF268521C25E01D4AE368121F59
:10280000D07800F1010805EB800C08F0FF000828E3
:10281000CCF86030D070E1D15FF0000005EB8002B1
:10282000401CC0B2136E0828E2681A44E260F5D377
:10283000D208C9F80C20CF70D0E740F6B832D142A8
:1028400004DCF268521EF260C0F80CB00849074C74
:102850001439B834204681F803B0616D00F0E6F811
:10286000606D98B1042816D0082805E0A84900201A
:10287000F80100206C4800202068016A10D021F483
:10288000204101622068016A016267E72068016AED
:1028900021F00A01F5E72068016A21F0A001F0E7C4
:1028A00021F42061EDE72DE9F041054690F83C0068
:1028B00000260C46012810D0012085F83C0072B19A
:1028C000042A1CD0082A2CD00C2A51D00126002022
:1028D00085F83C003046BDE8F0810220FBE7E36864
:1028E0002868D4E9001201F00DFF2868816921F001
:1028F0000C01816128688169A26811430FE0E368D7
:102900002868D4E9001201F04FFF2868816921F49A
:102910004061816128688169A26841EA0221816180
:10292000D5E7D4E900232868217B076A4FF4206C9F
:10293000090727F4807707620CEA0222C769D0F8FA
:1029400020C027F003071F432CF4206C27F0F0036E
:1029500042EA0C0243EA1161C16102622868C1695E
:1029600021F00C01C1612868A268C169114329E006
:102970002868D4E90032E168076A4FF6FF7C4FF41B
:10298000204E27F4805707620CEA0131C769D0F85E
:1029900020C00EEA033327F4407747EA02222CF4E2
:1029A000204C22F470421143C16143EA0C030362DC
:1029B0002868C16921F44061C1612868A168C269C1
:1029C00042EA0121C16182E710B5040003D094F806
:1029D0003D0010B107E0012010BD002084F83C004C
:1029E000204600F022F8022084F83D002068211DD6
:1029F00001F0BCFC012084F8480084F83E0084F813
:102A00003F0084F8400084F8410084F8420084F8D4
:102A1000430084F8440084F8450084F8460084F8B4
:102A2000470084F83D00002010BD704730B50446D3
:102A30004FF0000579B1042912D0082915D00C29CE
:102A400018D0102919D094F8430000BF94F84720FB
:102A5000012817D114E094F83E0094F84420F7E7D9
:102A600094F83F0094F84520F2E794F8400094F879
:102A70004620EDE794F84100E8E794F84200E5E7E6
:102A8000012A01D0012030BD4FF0020079B10429A4
:102A900016D008291DD00C294FD0102950D084F809
:102AA00043000C2984F847004DD0012543E084F809
:102AB0003E0084F844002068C26842F0020210E040
:102AC00084F83F0084F845002068C26842F00402A0
:102AD00007E084F8400084F846002068C26842F0AD
:102AE0000802C2602068012201F0A6FC1849206893
:102AF000884214D0B0F1804F11D0164988420ED0D0
:102B0000154988420BD01549884208D0144988429B
:102B100005D01449884202D01349884207D1816800
:102B2000124A1140062906D0B1F5803F03D0016852
:102B300041F001010160284630BD84F84100B0E752
:102B400084F84200ADE72068C26842F01002C8E78E
:102B5000000001400004004000080040000C00405C
:102B6000000401400040014000180040070001003F
:102B700070B50D0004464FF0000607D0042D0AD0B2
:102B8000082D0DD00C2D10D0012635E02068C1682D
:102B900021F002010DE02068C16821F0040108E085
:102BA0002068C16821F0080103E02068C16821F0B5
:102BB0001001C16020680022294601F03DFC206818
:102BC00041F21112016A114207D1016A92101142B9
:102BD00003D1016821F0010101604FF001006DB1E6
:102BE000042D10D0082D13D00C2D16D0102D17D079
:102BF00084F8430084F84700304670BD84F83E00F6
:102C000084F84400F8E784F83F0084F84500F3E7CF
:102C100084F8400084F84600EEE784F84100E9E7D4
:102C200084F84200E6E770B50446006800250169B3
:102C3000C943890715D4C168C943890711D4EA1E5D
:102C4000026101212177206880698007204602D037
:102C5000FFF708FA04E000F0E7F8204600F0A9F9D1
:102C6000257720680169C943490717D4C168C9435A
:102C7000490713D402216FF0040202612177206812
:102C8000806910F4407F204602D0FFF7EBF904E0A2
:102C900000F0CAF8204600F08CF925772068016919
:102CA000C943090716D4C168C943090712D40421CE
:102CB0006FF00802026121772068C0698007204612
:102CC00002D0FFF7CFF904E000F0AEF8204600F0A4
:102CD00070F9257720680169C943C90617D4C1680E
:102CE000C943C90613D408216FF01002026121778D
:102CF0002068C06910F4407F204602D0FFF7B2F987
:102D000004E000F091F8204600F053F925772068A0
:102D10000169C943C90708D1C168C943C90704D1BA
:102D2000891E0161204600F055FA20680169C943F7
:102D3000090609D4C168C943090605D46FF08001AA
:102D400001612046FEF789FF20680169C943C90572
:102D500009D4C168C943090605D46FF480710161C3
:102D60002046FEF779FF20680169C943490609D466
:102D7000C168C943490605D46FF04001016120468E
:102D800000F032FA20680169C94389060BD4C16892
:102D9000C943890607D46FF0200101612046BDE8D0
:102DA0007040FEF75BBF70BD30B587B0044614219C
:102DB0006846FDF7E1FA24680021184D0220164A02
:102DC0000123AC4211D1146844F01004146012685D
:102DD00002F0100205924FF4D4420092CDE90101B5
:102DE000CDE903130E48694612E0B4F1804F11D1CA
:102DF000146844F001041460126802F001020592A4
:102E00000F220092CDE90101CDE90313054869467F
:102E1000FDF7BEFF07B030BD303802400000014072
:102E20000010024000000240704770B5044690F860
:102E30003C0000260D4601280BD0012084F83C0000
:102E40000C2A4AD007DC82B1042A20D0082A06D1F5
:102E500031E0022070BD102A53D0142A63D001261D
:102E6000002084F83C00304670BD206801F002FB71
:102E70002068816941F0080181612068816921F041
:102E80000401816120682A698169114311E0206889
:102E900001F02AFB2068816941F4006181612068AA
:102EA000816921F48061816120682969826942EA2F
:102EB00001218161D4E7206801F052FB2068C169DB
:102EC00041F00801C1612068C16921F00401C161BC
:102ED00020682A69C169114311E0206801F07CFB78
:102EE0002068C16941F40061C1612068C16921F4B1
:102EF0008061C16120682969C26942EA0121C1611A
:102F0000AEE7206801F094FB2068416D41F00801B4
:102F100041652068416D21F00401416520682A69FE
:102F2000416D114311E0206801F0AEFB2068416D56
:102F300041F4006141652068416D21F48061416583
:102F400020682969426D42EA0121416588E710B590
:102F5000040003D094F83D0010B107E0012010BD3B
:102F6000002084F83C00204600F022F8022084F87B
:102F70003D002068211D01F0F9F9012084F8480086
:102F800084F83E0084F83F0084F8400084F8410053
:102F900084F8420084F8430084F8440084F8450033
:102FA00084F8460084F8470084F83D00002010BDF6
:102FB0007047704710B504464FF0020269B104290A
:102FC00012D0082917D00C291CD0102921D094F830
:102FD0004300012824D0012010BD94F83E000128B0
:102FE000F9D184F83E201DE094F83F000128F2D189
:102FF00084F83F2016E094F840000128EBD184F8D3
:1030000040200FE094F841000128E4D184F84120E9
:1030100008E094F842000128DDD184F8422001E064
:1030200084F843200122206801F006FA174920683D
:10303000174A884201D0904203D1436C43F40043C5
:1030400043642068884213D0B0F1804F10D01149FA
:1030500088420DD0104988420AD01049884207D0D2
:10306000904205D00E49884202D00E49884207D1CD
:1030700081680D4A1140062906D0B1F5803F03D082
:10308000016841F001010160002010BD0000014015
:10309000000401400004004000080040000C004013
:1030A00000400140001800400700010030B5044610
:1030B0004FF002024FF0000569B1042916D008292B
:1030C00053D00C295CD0102961D094F8430001281A
:1030D00064D0012030BD94F83E000128F9D184F875
:1030E0003E202068C26842F0020209E094F83F00E6
:1030F0000128EED184F83F202068C26842F0040223
:10310000C2602068012201F097F92A4920682A4A02
:10311000884201D0904203D1436C43F4004343649E
:103120002068884213D0B0F1804F10D023498842E4
:103130000DD0234988420AD02249884207D09042C4
:1031400005D02149884202D02049884207D18168B0
:103150001F4A1140062906D0B1F5803F03D001680F
:1031600041F001010160284630BD94F8400001287B
:10317000AFD184F840202068C26842F00802BFE75F
:1031800094F841000128A4D184F8412008E094F883
:10319000420001289DD184F8422003E084F84320B6
:1031A0000C2901D00125DEE72068C26842F0100238
:1031B000A6E70000000001400004014000040040B8
:1031C00000080040000C0040004001400018004092
:1031D0000700010000680349884201D1FDF714BFD0
:1031E000704700000020004070477047704701465C
:1031F000806FC96F084370472DE9F04102680446AB
:10320000002540F60F06D06911689368304205D159
:1032100083067DD58B067BD5616E11E1944F03F05B
:1032200001060F40374373D0C70709D0CF0507D534
:1032300001271762D4F8802042F00102C4F88020F0
:1032400082070AD5DA0708D0276802223A62D4F842
:10325000802042F00402C4F8802042070AD5DA0731
:1032600008D0236804221A62D4F8802042F00202B7
:10327000C4F8802002070CD501F02002324308D0A8
:10328000236808221A62D4F8802042F00802C4F8A9
:10329000802002050BD54A0109D523684FF400624E
:1032A0001A62D4F8802042F02002C4F88020D4F8BA
:1032B0008020002A36D0800605D5880603D5616EA9
:1032C00009B1204688472168D4F8800089684906FA
:1032D00002D410F0280F27D0204601F049FC2068C6
:1032E000806840061BD52068083050E8001F21F098
:1032F000400140E80012002AF5D1206F78B15D4905
:103300000165206FFDF731FD00280BD0206F00E034
:1033100010E0016D00E02046BDE8F041084720467E
:10332000FFF764FFBDE8F0812046FFF75FFFC4F8B8
:103330008050F7E7266E2023012E7CD1C6067AD571
:10334000CE0678D51020106220688068400641D5EE
:10335000216F086840680004000CE3D0B4F85820DE
:103360008242DFD9A4F85A00C869B0F5807F2AD01C
:10337000206850E8001F21F4807140E80012002A04
:10338000F6D12068083050E8001F21F0010140E824
:103390000012002AF5D12068083050E8001F21F003
:1033A000400140E80012002AF5D1E3672566216854
:1033B00051E8000F20F0100041E80002002AF6D189
:1033C000206FFDF789FCB4F85800B4F85A10401A81
:1033D00081B22BE0B4F85800B4F85A10B4F85A206F
:1033E000401A81B2002A9DD000299BD0226852E861
:1033F000000F20F4907042E80006002EF6D12068FD
:1034000000F1080050E8002F22F0010240E80026F9
:10341000002EF4D1E36725666566206850E8002F2A
:1034200022F0100240E80023002BF6D12046FFF7DF
:10343000DCFE77E7FFE7020606D50A0604D5A16E93
:1034400000297FF468AF6DE74006F2D54806F0D555
:103450002046016851E8002F22F0400241E8002494
:10346000002CF6D18367856600F09CF95AE70000CE
:10347000200100045D4B000810B5040002D0A06FCD
:1034800010B107E0012010BD002084F87400204630
:1034900000F026F82420A0672068016821F00101CF
:1034A0000160204601F028FC0128ECD0606A10B1D0
:1034B000204601F0CFFA2068416821F49041416034
:1034C0002068816821F02A0181602068016841F04C
:1034D000010101602046BDE8104001F01FBB000063
:1034E0002DE9F04786B0044614216846FCF744FFF6
:1034F0007849002324680220774E1039754A032545
:10350000DFF8D8A10827B4424FF4406920D11468ED
:1035100044F400241460126802F4002205920A6840
:1035200042F004020A60096801ACCDF8009001F095
:103530000401CDE9047184E8290069465046FDF78D
:1035400027FC00220A213420FDF7D6FD342023E099
:10355000634EB44225D1146844F08044146012686C
:1035600002F0804205920A6842F010020A6009687F
:1035700002AC01F0100105914FF4C071CDE90010CB
:1035800084E8A80057486946FDF702FC002205219F
:103590005220FDF7B1FD5220FDF7A0FD06B0BDE8B9
:1035A000F0874C4EDFF840C1361D64454FF0070CE4
:1035B00021D1326842F010023260326802F010020B
:1035C00005920A6842F001020A60096802AA01F045
:1035D000010105914FF4C061CDE9001082E8281087
:1035E00042486946FDF7D4FB002205212520FDF75E
:1035F00083FD2520D0E7DFF8F880444520D114680A
:1036000044F400341460126802F4003205920A682F
:1036100042F008020A60096802AC01F00801059155
:103620006021CDE9001084E8281032486946FDF792
:10363000AFFB002205212620FDF75EFD2620ABE72B
:10364000DFF8B480444520D1146844F48024146029
:10365000126802F4802205920A6842F002020A60AF
:10366000096801ACCDF8009001F00201CDE904C178
:1036700084E8290021486946FDF78AFB00220521DC
:103680002720FDF739FD272086E71D4A944285D182
:10369000326842F020023260326802F02002059265
:1036A0000A6842F004020A60096802AA01F00401F3
:1036B0000591C021CDE9001082E8A8006946504676
:1036C000FDF766FB002205214720FDF715FD472089
:1036D00062E7000040380240004C00400008024011
:1036E000007800400010024000100140000002403D
:1036F00000440040000C024000480040000402402A
:103700000014014030B4C36F202B1DD1C9B1C2B128
:1037100090F87430012B17D0012480F874400023F6
:10372000036603685B681B0208D5046854E8003F21
:1037300043F0806344E80035002DF6D130BC01F041
:10374000F3BB012030BC70470220FBE730B50068B6
:10375000114988420CD1114841880A0408D4024614
:103760004FF000034C04127806D50A2A01D043809A
:1037700030BD41F400410DE00D2A09D0084DC1F3E0
:103780000D04491C89B2C7292A554180EFD830BDA4
:1037900041F48041418030BD001001408C00002088
:1037A000C44600207047FEE770B5114D4FF48054B9
:1037B000002221462846FDF71CFC012000F08EFC6B
:1037C000002228466100FDF714FC022002F05CF99B
:1037D000012221462846FDF70CFC022002F054F994
:1037E00021462846BDE870400022FDF702BC0000DB
:1037F000000C0240114810B586B0016841F0080184
:103800000160006802220E4C4FF4405100F00800A5
:1038100005900120CDE90202CDE90010694620465D
:10382000FDF7B6FA012220465103FDF7E2FB012223
:1038300020461103FDF7DDFB06B010BD3038024015
:10384000000C024070B5114D4FF480540022214607
:103850002846FDF7CEFB012000F040FC012228465F
:103860005103FDF7C6FB022002F00EF901222146AA
:103870002846FDF7BEFB022002F006F92146284645
:10388000BDE870400022FDF7B4BB0000000C024010
:103890002DE9F04700248046204600F01FFC174F1A
:1038A00000254FF480564FF4005931460022384627
:1038B000FDF79FFB022002F0E7F80122314638466F
:1038C000FDF797FB60064946040E3846FDF784FB7A
:1038D00008B1641CE4B2012002F0D6F86D1CEDB210
:1038E000082DE2D3B8F1000F04D0FFF75DFF2046AA
:1038F000BDE8F087FFF7A6FFF9E70000000C0240E3
:103900002DE9F0410546012000F0E8FB174F4FF488
:103910008056002231463846FDF76BFB00244FF4F9
:103920000058280601D5012200E000224146384611
:10393000FDF75FFB6806050E022002F0A5F80122E4
:1039400031463846FDF755FB022002F09DF8002273
:1039500031463846FDF74DFB022002F095F8641C15
:10396000E4B2082CDDD3BDE8F0810000000C024079
:1039700070B5012000F0B2FB01220F4D5403284620
:103980002146FDF736FB0122284616033146FDF796
:1039900030FB042002F078F8002221462846FDF78B
:1039A00028FB042002F070F831462846BDE870403C
:1039B0000022FDF71EBB0000000C024070B5012084
:1039C00000F08CFB0F4D4FF4805400222146284616
:1039D000FDF70FFB6600284600223146FDF709FB84
:1039E000042002F051F8012221462846FDF701FB90
:1039F000012231462846FDF7FCFABDE8704004205C
:103A000002F042B8000C02402DE9F04100242046AB
:103A100000F064FB0122144D560328463146FDF7A1
:103A2000E8FA012002F030F801222846170339464F
:103A3000FDF7DFFA012002F027F808E0641CE4B289
:103A4000FA2C04D9FFF7BAFF0120BDE8F081314616
:103A50002846FDF7C1FA0028F0D100223946284651
:103A6000FDF7C7FA0020F0E7000C024070470000A5
:103A70002DE9F04F87B014216846FCF77DFC4548DE
:103A8000016841F010010160016801F01001059129
:103A9000016841F004010160016801F00401059131
:103AA000016841F080010160016801F08001059129
:103AB000016841F001010160016801F00101059117
:103AC000016841F002010160016801F00201059105
:103AD000016841F008010160006842F20307DFF865
:103AE000B890002200F00800394605904846FDF7DE
:103AF00080FADFF8A8A04FF46058012241465046F2
:103B0000FDF777FA0024DFF898B0022569467C209B
:103B10008DE831005846FDF73BF901266946CDE9AD
:103B200002544846CDE90076FDF732F94EF2F8002E
:103B30001C4F8DE8310069463846FDF729F940F2FF
:103B40009F7069468DE831005046FDF721F9CDE9B7
:103B50000254CDE9008669465046FDF719F903265F
:103B6000694630028DE871003846FDF711F9CDE95C
:103B70000064CDE9025669465846FDF709F94FF44D
:103B8000C15069468DE831000748FDF701F907B0DB
:103B9000BDE8F08F3038024000080240000C0240BF
:103BA00000100240000402400000024010B59AB02C
:103BB00000241C21009407A8019402940394049407
:103BC00005940694FCF7D8FB2C210EA8FCF7D4FB37
:103BD000364845F25F423449C0E90014C0E9024268
:103BE000046144618461FEF7DDF808B1FDF772F805
:103BF0004FF4805000902D486946FEF7C3F908B194
:103C0000FDF768F82948FFF7A2F908B1FDF762F857
:103C1000264804A9049405940694FEF771F808B1A7
:103C2000FDF758F86020CDE907042048002207A9D5
:103C300009940A940B940C940D94FFF7F6F808B1CC
:103C4000FDF748F81948042207A9FFF7EEF808B174
:103C5000FDF740F81548082207A9FFF7E6F808B174
:103C6000FDF738F811480C2207A9FFF7DEF808B174
:103C7000FDF730F84FF400500E940F9401031094A8
:103C8000CDE9124011941494CDE9154107480EA9CD
:103C900017941894FDF7E4FF08B1FDF71BF80348EB
:103CA000FFF782F81AB010BD00000140A004002008
:103CB00010B58EB000241C21009407A80194029432
:103CC0000394049405940694FCF756FB294845F2A6
:103CD0005F414FF08042C0E90024C0E90241046125
:103CE0008461FEF75FF808B1FCF7F4FF4FF48050F1
:103CF000009020486946FEF745F908B1FCF7EAFF55
:103D00001C48FFF724F908B1FCF7E4FF194804A99F
:103D100004940694FDF7F4FF08B1FCF7DBFF602084
:103D2000CDE907041348002207A909940B94FFF773
:103D30007CF808B1FCF7CEFF0E48042207A9FFF774
:103D400074F808B1FCF7C6FF0A48082207A9FFF774
:103D50006CF808B1FCF7BEFF06480C2207A9FFF774
:103D600064F808B1FCF7B6FF0248FFF71DF80EB083
:103D700010BD0000EC04002010B58CB02F480024CA
:103D80002D49D7224FF6FF730094019402940394B7
:103D90000494059406940794089409940A9480E87E
:103DA0001600C0E903348461FDF7FCFF08B1FCF79D
:103DB00091FF4FF48050009020486946FEF7E2F8EA
:103DC00008B1FCF787FF1D48FEF7FEFD08B1FCF7C0
:103DD00081FF1A4804A904940694FDF791FF08B1E5
:103DE000FCF778FF012008210022CDE90740CDE94A
:103DF0000941124807A9FEF756FD08B1FCF76AFF12
:103E00000E48042207A9FEF74EFD08B1FCF762FF39
:103E10000A48082207A9FEF746FD08B1FCF75AFF39
:103E200006480C2207A9FEF73EFD002801D0FCF74A
:103E300051FF0CB010BD0000000400403805002008
:103E40000D48002110B50B4C0C224FF4E1330460F7
:103E5000C0E90131C160C0E904128161C161016240
:103E60004162FFF709FB002803D0BDE81040FCF7D2
:103E700031BF10BD00780040840500200D480021AE
:103E800010B50B4C0C224FF4E1330460C0E9013152
:103E9000C160C0E904128161C16101624162FFF742
:103EA000EBFA002803D0BDE81040FCF713BF10BDAB
:103EB00000440040080600200D48002110B50B4CBE
:103EC0000C224FF4E1330460C0E90131C160C0E964
:103ED00004128161C16101624162FFF7CDFA0028DD
:103EE00003D0BDE81040FCF7F5BE10BD004800400F
:103EF0008C0600200D48002110B50B4C0C224FF40D
:103F0000E1330460C0E90131C160C0E9041281619C
:103F1000C16101624162FFF7AFFA002803D0BDE83A
:103F20001040FCF7D7BE10BD001401401007002060
:103F3000FEE7FEE730B587B014216846FCF71CFAAF
:103F40001A48016841F004010160006800F00400B3
:103F50000590FFF74FFC164D4FF4006400222146F8
:103F60002846FDF746F8022100940120CDE9010121
:103F7000284603916946FCF70BFF0121002000F061
:103F800036F8002000F016F800F07F0040F0100135
:103F9000002000F02CF88421FE2000F028F80121F8
:103FA000002000F024F807B030BD00003038024097
:103FB000000C024010B50446FFF7DAFCE020FFF7E2
:103FC0009FFCFFF721FD2046FFF79AFCFFF71CFD41
:103FD000FFF7CEFCE120FFF793FCFFF715FD002073
:103FE000FFF756FC0446FFF7E9FC204610BD70B50C
:103FF0000D460446FFF7BCFCE020FFF781FCFFF70D
:1040000003FD2046FFF77CFCFFF7FEFC2846FFF788
:1040100077FCFFF7F9FCFFF7D1FCBDE870400A2000
:1040200001F024BD70B5050A0446C9B1012926D0A6
:10403000022933D0032940D004294DD10021162074
:10404000FFF7D5FF00211720FFF7D1FF1820E1B2BD
:10405000FFF7CDFF19202946BDE87040FFF7C7BF25
:1040600000210620FFF7C3FF00210720FFF7BFFF55
:104070000820E1B2FFF7BBFF09202946ECE7002149
:104080000A20FFF7B4FF00210B20FFF7B0FF0C2040
:10409000E1B2FFF7ACFF0D202946DDE700210E203D
:1040A000FFF7A5FF00210F20FFF7A1FF1020E1B2CD
:1040B000FFF79DFF11202946CEE700211220FFF7D0
:1040C00096FF00211320FFF792FF1420E1B2FFF7C3
:1040D0008EFF15202946BFE770BD000010B586B0E1
:1040E000044614216846FCF747F90D4B012C4FF4A8
:1040F00000504FF002010CD0002C08D1002200909B
:10410000CDE90121039169461846FCF741FE06B04E
:1041100010BD0122CDE90221CDE90002F3E7000044
:10412000000C024010B503F093FC01F053FE02F0C6
:1041300057F80448006803F07DFDBDE8104003F027
:10414000ABBC000074000020054920201CB50023F2
:104150008022CDE90001064802A103F095FE1CBDB6
:104160007400002053746172745F7461736B00009B
:1041700025410008502010B572B680F31188BFF3B6
:104180004F8FBFF36F8F62B603F0E0FE18B10449A2
:104190004FF080500860002080F3118810BD0000AF
:1041A00004ED00E030B5B3B0302121A8FCF7E4F80D
:1041B00014212DA8FCF7E0F884216846FCF7DCF810
:1041C0002748016841F080510160006800F080508C
:1041D00032902448016841F44041016000680024A5
:1041E0000DF1A40C00F440403290022521951021DD
:1041F0000822D823CDE927548CE82C0001202C95E7
:10420000CDE9240121A8FDF765FB08B172B6FEE7F0
:10421000FCF7A4FF08B172B6FEE74FF480522F946A
:104220004FF4A0510F20CDE93012CDE92D05072123
:104230002DA8FDF747FA08B172B6FEE74FF4DE503D
:104240001194129414941394169417940090684641
:10425000FCF7BAFF002801D072B6FEE733B030BDDC
:1042600040380240007000400248016841F470018B
:104270000160704788ED00E00148FEF7D4BC000003
:10428000A00400200148FEF7CEBC0000EC04002092
:104290000148FEF7C8BC00003805002010B50A4CE4
:1042A0002068C068C043C00709D10848006980473A
:1042B00022680021642051622168C862E0606FF0CA
:1042C00001002168086110BD10480020F0000020A6
:1042D00006480068C168C943C90703D104490A8870
:1042E000521C0A806FF0010101617047784600207E
:1042F0007C00002070B5154C2068C068C043C00722
:104300001ED1134D0023134918460A5C521CD2B229
:10431000032A0A5401D345F82030FF2A00D30B5456
:10432000401CC0B20428F0D30B480178491CC9B224
:104330000170642904D9037001210848FCF751FE7B
:1043400021686FF00100086170BD0000D0440020BA
:104350007C480020F8010020700000200008024086
:104360000148FEF760BC000094070020F0B5274B21
:104370004FF0804E264D02689842264E264F274C1D
:1043800009D0704507D0A84205D0B04203D0B8424A
:1043900001D0A04205D1D1F804C022F070024CEA4D
:1043A000020298421BD0704519D0A84217D0B042E3
:1043B00015D0B84213D0A04211D0194DA8420ED04A
:1043C000184DA8420BD0184DA84208D0174DA8424E
:1043D00005D0174DA84202D0164DA84203D1CD6892
:1043E00022F440722A434D6922F080022A4302607F
:1043F00098428A68C2620A68826201D0A04201D1F2
:104400000969016301214161F0BD00000000014024
:104410000004004000080040000C0040000401407F
:1044200000400140004401400048014000180040A5
:10443000001C00400020004010B5046A012301F078
:104440001F018B409C4304628A40016A1143016250
:1044500010BD42EA032283680A4323F47F410A43E2
:1044600082607047826822F070020A4342F00701BE
:1044700081607047F0B5026ADFF860C0184F22F023
:104480000102DFF860E00262066A4268836926F092
:1044900002060D68B8428C6803EA0C0323F003039C
:1044A00044EA060445EA030501D0704505D1CB680E
:1044B00024F00804234323F00404B84201D07045DB
:1044C00005D122F44076D1E9053233431A434260E4
:1044D0008561496841630462F0BD00008FFFFEFF03
:1044E0000000014000040140F0B5026A194E1A4C68
:1044F00022F01002DFF864E00262056A4368826914
:1045000025F02005D1F808C0A0420F6802EA060293
:1045100022F4407245EA0C1542EA072201D07045A8
:1045200006D1CE6825F0800545EA061525F0400540
:10453000A04201D0704507D1D1E9054623F440637C
:1045400043EA840343EA86034360826149688163E6
:104550000562F0BDFF8FFFFE000001400004014036
:10456000F0B5026A194F1A4E22F48072DFF864E047
:104570000262056A4368C26925F40075D1F808C073
:10458000B0420C6802EA070222F0030245EA0C2559
:1045900044EA020401D0704506D1CF6825F40062D8
:1045A00042EA072222F48065B04201D0704507D16B
:1045B00023F44052D1E9053642EA031242EA0613D7
:1045C0004360C4614968C1630562F0BD8FFFFEFFAF
:1045D0000000014000040140F0B5026A124B114F87
:1045E00022F4805298420262046A4268C36924F449
:1045F00000548E680D6803EA070323F4407344EA0D
:10460000063443EA052302D0084DA84204D14D697F
:1046100022F4804242EA85124260C3614968016423
:104620000462F0BDFF8FFFFE000001400004014066
:10463000F0B5026ADFF844C022F480320262056AF3
:104640004268446D25F400350E8960450C4F0B68B7
:1046500004EA070445EA064543EA040302D0094C8C
:10466000A04204D14C6922F4803242EA0422426022
:104670004365496881650562F0BD000000000140A6
:104680008FFFFEFF00040140F0B5026ADFF844C06E
:1046900022F480120262046A4268436D24F400141A
:1046A0000E8960450C4F0D6803EA070344EA06547F
:1046B00043EA052302D0094DA84204D14D6922F4F2
:1046C000802242EA8522426043654968C1650462EE
:1046D000F0BD000000000140FF8FFFFE000401401C
:1046E00010B5036A046A23F00A0324F0010404628B
:1046F00084690B4324F0F00141EA021181610362F5
:1047000010BD000070B5046A174D24F00104046266
:10471000A8428469056A14D0B0F1804F11D0134EBD
:10472000B0420ED0124EB0420BD0124EB04208D062
:10473000114EB04205D0114EB04202D0104EB042E0
:1047400003D124F00304144301E044F001041A07E8
:1047500024F0F00325F00A0401F00A01214343EAA2
:1047600012628261016270BD0000014000040040DD
:1047700000080040000C00400004014000400140DF
:104780000018004010B5036A23F010030362836928
:10479000046A23F4704324F0A00443EA02328261E5
:1047A00044EA0111016210BD70B5056AA0244FF6FC
:1047B000FF7606EA033325F01005056204EA0111CD
:1047C0008469056A24F4407425F0A00544EA0222B5
:1047D000294322F4704213438361016270BD0000DB
:1047E000104A38B5136843F00403136012680023BD
:1047F0000D4C02F0040200920C4AC2E9023013612F
:104800001046C2E90041FDF7CDFA002206211E2024
:10481000FCF772FC1E20FCF761FCBDE83840034841
:10482000FDF76ABB403802400008004010480020F5
:10483000114838B5016841F008010160006840F294
:10484000E73200210D4C00F0080000900C48D723FF
:10485000C0E902120161C0E90043FDF7A3FA00229A
:1048600032201146FCF748FC3220FCF737FCBDE84B
:1048700038400348FDF740BB40380240000C004080
:1048800078460020F0EE401A11EE900A29499FED7B
:104890002A0A884210B502DD71EEC01A06E011EE58
:1048A000900A2649884201D971EE801A01F000F978
:1048B00071EEC00A234A244C9FED212AF0EEE00A53
:1048C00010EE900AB0F17E5F09DA84ED012A84EDE2
:1048D000002A82ED042A012082ED002A10BDF0EEAC
:1048E000610A01F09DFC82ED020A1849154882ED2B
:1048F000062A01F04FFDD4ED040AF4EEC00AF1EEF1
:1049000010FA02D894ED040A0CE0D4ED040AF1EE9A
:10491000600AF4EEC00AF1EE10FA03DB94ED040A2B
:10492000B1EE400A84ED000AF1EE400A0020C4ED29
:10493000010A10BD000034430000B443000034C33A
:104940000000000040460020180200200846002019
:104950002DE9F041364800252DED048B0668F069FD
:10496000C04380065FD4716A3248C9B25529427883
:1049700000D112B1012A02D055E0012242702C4C24
:104980000378203C5A1CD2B2E154022A027003D0B0
:104990000B2A804605D046E0552944D04570057065
:1049A00041E000210846225C401C0A281144C9B29B
:1049B000F9DBA07A884232D1B4F90400FBF76FFE2C
:1049C0009FED1D8B53EC182BFBF788FD9FED1C9B77
:1049D00053EC192BFBF782FDFBF79EFE144F143F9F
:1049E0007860B4F90600FBF75AFE53EC182BFBF77E
:1049F00075FD53EC192BFBF771FDFBF78DFEB860CD
:104A0000B4F90800FBF74BFE53EC182BFBF766FDDF
:104A100053EC192BFBF762FDFBF77EFE386088F83C
:104A2000015088F80050F561BDEC048BBDE8F081C1
:104A3000DC4A0020140200200000000000806640D4
:104A4000000000000000003F0148FEF7D5BB000059
:104A50008405002090F82410C90706D00168836AF5
:104A60004A6822F400321A434A6090F824108907F9
:104A700006D50168C36A4A6822F480321A434A6044
:104A800090F82410490706D50168036B4A6822F4A0
:104A900080221A434A6090F82410090706D501685D
:104AA000436B4A6822F400421A434A6090F824108B
:104AB000C90606D50168836B8A6822F480521A43BE
:104AC0008A6090F82410890606D50168C36B8A684D
:104AD00022F400521A438A6090F82410490611D536
:104AE0000168036C4A6822F480121A434A60016C20
:104AF000B1F5801F06D10168436C4A6822F4C002F8
:104B00001A434A6090F82410090606D50168826CA1
:104B1000486820F4002010434860704738B50025ED
:104B20000446C0F88050FCF769FA03462068006824
:104B300000070BD56FF07E400090002220464FF416
:104B4000001100F04DFA08B1032038BD2020A06705
:104B5000E0672566002084F8745038BD10B5806B7E
:104B60000021A0F85A10A0F85210FEF73FFB10BD2C
:104B7000016851E8002F22F4907241E80023002BD5
:104B8000F6D10168083151E8002F22F0010241E816
:104B90000023002BF5D1016E012908D1026852E8EB
:104BA000001F21F0100142E80013002BF6D1002174
:104BB0002022C26701664166704710B5C16FB0F828
:104BC0005C202229016804D0886940F008008861CF
:104BD00010BD496A436D11401980416D891C4165C2
:104BE000B0F85A10491EA0F85A10B0F85A1000290F
:104BF000EED1026852E8001F21F4907142E80013E0
:104C0000002BF6D10168083151E8002F22F0010293
:104C100041E80023002BF5D12022C2670021026E5B
:104C20004166012A02D0FEF791FD10BD01660268BF
:104C300052E8001F21F0100142E80013002BF6D1CA
:104C40000168CA69D243D20601D410220A62B0F8C0
:104C50005810FEF7CAFA10BD10B5C16FB0F85C204D
:104C60002229016804D0886940F00800886110BDDD
:104C7000496A436D11401970416D491C4165B0F896
:104C80005A10491EA0F85A10B0F85A100029EED157
:104C9000026852E8001F21F4907142E80013002BD3
:104CA000F6D10168083151E8002F22F0010241E8F5
:104CB0000023002BF5D12022C2670021026E41663D
:104CC000012A02D0FEF742FD10BD0166026852E8DB
:104CD000001F21F0100142E80013002BF6D10168FB
:104CE000CA69D243D20601D410220A62B0F8581021
:104CF000FEF77BFA10BD00002DE9F0410446036881
:104D0000C2698168D4E90450DFF8F0C17C4E2943C0
:104D10001F68002510437B4A014307EA0C070F4335
:104D20001F604FF400402168E7684B6823F440534C
:104D30003B434B602768A369216AD7F808C0194331
:104D40002CF430630B43BB602168B1420AD1116877
:104D500011F0030152D001297CD0022971D003291E
:104D60006ED184E0684B99420AD1116811F00C01B0
:104D700067D0042965D0082975D00C2960D176E068
:104D8000624B99420AD1116811F0300159D01029B3
:104D90006BD0202967D0302952D168E05C4B994212
:104DA0000AD1116811F0C0014BD040295DD0802993
:104DB00059D0C02944D15AE0564B99420DD11168BF
:104DC00011F440713DD0B1F5807F4ED0B1F5007F38
:104DD00049D0B1F5407F33D149E04F4B99420FD1D3
:104DE000116811F4406109D0B1F5806F3DD0B1F583
:104DF000006F38D0B1F5406F22D138E0012120E0BA
:104E0000464B99420DD1116811F4405119D0B1F5BA
:104E1000805F2AD0B1F5005F25D0B1F5405F0FD19A
:104E200025E03F4B99420BD1116811F4404108D065
:104E3000B1F5804F19D0814215D0B1F5404F16D051
:104E40001021E369374A4FF6EF7683422ED10929C4
:104E500049D201E009E006E0DFE801F00B0E114560
:104E60001345454516000221EBE70421E9E7082137
:104E7000E7E7FCF7DFFC06E0FCF7ECFC03E010469C
:104E800002E0FCF7F7FC78B36168400000EB5100EA
:104E9000B0FBF1F0A0F11001B14224D84FF6F0734D
:104EA0002168C0F342021840104320E009291AD2B9
:104EB000DFE801F005080B190D1919191000FCF7AE
:104EC000B9FC06E0FCF7C6FC03E0104602E0FCF784
:104ED000D1FC48B1616800EB5100B0FBF1F0A0F1EA
:104EE0001001B14201D9012502E0216880B2C860F9
:104EF00000206066A0662846BDE8F081F369FFEFF8
:104F0000001001409038024000440040004800403A
:104F1000004C004000500040001401400078004068
:104F2000007C00400024F40030B583680024416513
:104F30004FF48055A0F85820AB42A0F85A204FF00B
:104F4000FF01446604D102697ABB40F2FF112CE0F4
:104F50004FF07F023BB3B3F1805F29D0A0F85C40F3
:104F60002221C0F88040C1670168083151E8002F54
:104F700042F0010241E80023002BF5D18168A942EB
:104F800001D10169D9B114494166016980F87440C1
:104F9000B9B1026852E8001F41F4907142E8001371
:104FA000002BF6D116E0036933B9A0F85C10D7E7FF
:104FB000016909B13F21F8E7A0F85C20D0E7074973
:104FC000E2E7016851E8002F42F0200241E80023A7
:104FD000002BF6D1002030BD594C0008BB4B000817
:104FE0002DE9F0479A4617460E460446089D4FF0B5
:104FF00000094FF020084CE0681C4AD0FBF7FEFF88
:10500000A0EB0A00A8422AD84DB3206801684907DE
:105010003FD5C069C04300053BD421684FF4006010
:105020000862216851E8000F20F4D07041E80002C6
:10503000002AF6D12068083050E8001F21F0010155
:1050400040E80012002AF5D1C4F8788084F8749002
:10505000C4F87C80C4F880800320BDE8F087206815
:1050600050E8001F21F4D07140E80012002AF6D168
:105070002068083050E8001F21F0010140E80012CC
:10508000002AF5D1C4F8788084F87490C4F87C8044
:10509000E2E72068C06936EA000004D00020B84288
:1050A000AAD00020D9E70120F9E7000070B50D4D26
:1050B00000240D48FEF7A0F802E0641CAC4204D8BE
:1050C0000948FEF794F82028F7D1002402E0641C78
:1050D000AC4206D8054901220348FEF713FB00281D
:1050E000F5D170BDFFFF01008C4700208C0000202F
:1050F0000148FEF781B80000080600200148FEF7CD
:105100007BB800008C0600200148FEF775B800004F
:1051100010070020FEE700000FB4054B10B503A9EF
:10512000044A029800F0EAF810BC5DF814FB000095
:105130009D5A000890000020090700284FEA1161DD
:1051400004DB00F1E02080F80014704700F00F004D
:1051500000F1E02080F8141D704702E008C8121F1B
:1051600008C1002AFAD170477047002001E001C150
:10517000121F002AFBD170472DE9FF5F82B000218A
:10518000DDE90430020DDDF840B0034318D044F6E9
:105190001050A2F2FF3242431514119801281FD07B
:1051A000A5EB0B00401C5FEA000A4FF000064E4FD3
:1051B000DFF83891B046504615D5CAF1000413E027
:1051C000119801244AA3012801D16FEA0B0102982A
:1051D000119AC0E90031C0E9024206B0BDE8F09F73
:1051E000CBF10000DFE704460021404A491842EBBA
:1051F0000450CDE9001012E0E00707D032463B46EC
:1052000040464946FBF76AF98046894632463B46A6
:1052100010461946FBF762F906460F466410002C4B
:10522000EAD1DDE90401DDE90023BAF1000F06DA75
:10523000FBF754F942464B46FBF750F905E0FBF704
:10524000BFF942464B46FBF7BBF904460E46002227
:10525000284BFBF749FA03D84FF0FF30014607E02F
:105260000022254B20463146FBF791F8FBF74BFB1C
:10527000102409E0002C0ADB0A220023FBF724F8A3
:10528000039B30321A55641E50EA0102F2D1641CAD
:10529000039AC4F111031444119A012A03D0012284
:1052A00008430DD10AE0084304D000204FF0110B51
:1052B000119072E7A3EB0B056D1E0DE05B4504DD5D
:1052C0004FF0000205F1010504E003DA4FF000029F
:1052D000A5F10105002AECD002981199C0E902312C
:1052E000C0E9004579E70000000014400000F03FED
:1052F000300000000000F0430000E03F2DE9FF4FC8
:1053000095B09A46884606460025EEE1252877D1D5
:1053100000242746F94A0121039400E0044316F8CB
:10532000013F203B01FA03F01042F7D130782A28E0
:1053300011D06FF02F033078A0F13002092A16D86F
:10534000039A44F0020402EB820203EB420210448F
:10535000761C0390EFE758F8042B0392002A03DA37
:10536000504244F40054039044F00204761C307818
:105370002E2816D116F8010F44F004042A280DD067
:105380006FF02F023078A0F13003092B09D807EB1A
:10539000870302EB4303C718761CF3E758F8047B36
:1053A000761C30786C280FD006DC4C2817D0682883
:1053B0000DD06A2814D104E0742810D07A280FD1B7
:1053C0000DE044F400140AE044F4801401E044F4D5
:1053D00040147278824202D104F58014761C761C47
:1053E000307866280BD013DC582877D009DC0028E9
:1053F00075D04528F6D04628F4D047281AD193E135
:1054000018E0632835D0642879D0652812D18BE163
:10541000702873D008DC6728F1D069286FD06E2817
:105420000DD06F2806D1ACE073282CD0752874D02D
:10543000782853D05246179990476D1C54E1C4F315
:105440000250022809D003280DD0D8F800100428F3
:105450000DD00D6008F1040846E1D8F80010EA17F5
:10546000C1E90052F6E7D8F800100D80F2E70D70A0
:10547000F0E718F8041B8DF8001000208DF80100EB
:10548000EB46012003E058F804BB4FF0FF30610702
:105490004FF0000102D40DE009F101018946B94243
:1054A0000FDA8145F8DB1BF809100029F4D108E078
:1054B00009F1010189468142FADB1BF80910002934
:1054C000F6D103985346A0EB090721463846179AB0
:1054D00000F080FA284400EB090507E044E008E109
:1054E0000DE01BF8010B524617999047B9F10109DD
:1054F000F7D2534621463846179AF2E039E00A219E
:10550000C4F302524FF0000B0091022A06D058F863
:10551000040BC117032A09D00AE023E008F10700B1
:1055200020F00702F2E80201904605E000B2C11740
:10553000042A01D140B2C117002906DA0A46002127
:10554000404261EB02012D2202E0220504D52B220C
:105550008DF80420012203E0E20701D02022F7E7C2
:10556000914657E00A2100E010214FF0000B009116
:105570000BE010214FF0000B44F0040408270091C9
:1055800003E008204FF0000B0090C4F30252022AFF
:1055900005D058F8040B0021032A08D008E008F1D0
:1055A000070020F00702F2E80201904603E080B213
:1055B000042A00D1C0B24FF0000922072AD5327860
:1055C000702A07D0DDF800C08CF0100C5CEA0B0CE0
:1055D00005D00EE040228DF80420012208E050EAB8
:1055E000010306D030238DF804308DF80520022207
:1055F0009146009B83F0080353EA0B030AD150EA5B
:10560000010201D1620705D530228DF804204FF048
:1056100001097F1E3278582A04D039A20C920CAAB4
:1056200002920BE03BA2F9E75B46009AFAF74CFEC8
:105630000C9B9B5C029A521E0292137050EA01026C
:10564000F2D1029804A9081A00F1200B600702D5D4
:1056500024F4803400E001275F4502DDA7EB0B0056
:1056600000E0002000EB0B01009003984944401A31
:105670000390E00306D453462146179A039800F09E
:10568000A9F90544002706E001A85246C05D179914
:1056900090476D1C7F1C4F45F6DBE0030CD553464D
:1056A0002146179A039800F095F9054404E030204C
:1056B0005246179990476D1C0099481E009000298A
:1056C000F5DC08E00298029952460078491C0291E4
:1056D000179990476D1CBBF10001ABF1010BF1DC98
:1056E0005BE100F065F90544761C307800287FF412
:1056F0000DAE19B02846BDE8F08F00000928010062
:105700003031323334353637383961626364656637
:1057100000000000303132333435363738394142F9
:105720004344454600000000600700D4062708F106
:10573000070020F00700F0E80223804603F0004C49
:105740005FEA0C0001D097A009E0200501D596A0E2
:1057500005E0E00701D095A001E0AFF24C00139006
:10576000307823F0004365280CD006DC452809D0AA
:1057700046281DD047287FD13BE0662818D06728EF
:105780007AD136E00021112F01DB112000E0781CD6
:10579000CDE9000104A90CA8FFF7EEFCDDE90D013D
:1057A0000C9A4FF0000B07F10109109200914EE0A6
:1057B0004FF000400097CDE9011004A90CA8FFF7B5
:1057C000DBFCDDE90D020C9B0F994FF0000B9146BD
:1057D0001093009211B9791C00EB0109B7EB090095
:1057E00003D4C0F1FF3B07F10109A9EB07000190C9
:1057F00042E0012F00DA01270021112F01DD1120E5
:1058000000E03846CDE9000104A90CA8FFF7B4FC7C
:10581000DDE90D010C9A00914FF0000BB946109292
:1058200021070FD4009A4A4503DA914601E0A9F115
:105830000109B9F1010F05DD109AA9F10101515CCF
:105840003029F4D0B84202DA10F1040F03DA012152
:10585000CDE9011010E0002803DC8344A9EB00012E
:1058600002E0411C494500DD8946A0EB0B00401CCD
:1058700001904FF000400290200705D40198484560
:1058800002DB4FF0FF30019000208DF84B000298B2
:105890000DF14B07B0F1004F25D002200C902B20CA
:1058A0000D90029800280CDA404202902D200D90B5
:1058B00007E00A210298FAF74BFF3031029007F80F
:1058C000011D0C99481E0C900029F2DC029800285A
:1058D000EFD1791E0D980870307800F0200040F06C
:1058E000450007F8020D11A8C01BC01D02901398B7
:1058F000007800B1012000EB0901019801EBE07193
:10590000029801440398401A401E0390E00306D415
:1059100053462146179A039800F05CF80544139803
:10592000007818B15246179990476D1CE00323D5B3
:1059300053462146179A039800F04CF805441BE0A3
:10594000BBF1000F07DB0098584504DD109817994C
:1059500010F80B0001E0179930205246904701984B
:105960000BF1010B401E05F10105019004D12E2021
:105970005246179990476D1CB9F10001A9F1010930
:10598000DEDC05E017F8010B5246179990476D1CB5
:105990000299481E02900029F4DC53462146179ACA
:1059A00003989EE62D0000002B0000002000000060
:1059B0002DE9F041044600251E461746880404D40C
:1059C00005E039462020B0476D1C641EF9D52846F5
:1059D000BDE8F0812DE9F041044600251E469046C1
:1059E000C80301D5302700E02027880404D505E04E
:1059F00041463846B0476D1C641EF9D52846BDE8BF
:105A0000F081000002494861014602A0FFF784BB13
:105A10004C45002025640000114838B5016841F06C
:105A200020010160006840F2DB5200210D4C00F0C3
:105A3000200000900C48D723C0E902120161C0E9A0
:105A40000043FCF7AFF9002209213720FBF754FB94
:105A50003720FBF743FBBDE838400348FCF74CBA5E
:105A60004038024000140040D044002030B50023EC
:105A700004464FF47A7504E0284600F005F85B1CF4
:105A80009BB2A342F8D330BD034900220A600A68E2
:105A90008242FCD370470000241400400349CA69C5
:105AA0005206FCD5C2B28A62704700000010014065
:105AB0000C480D49DFED0D0A90ED000A90ED031A38
:105AC00030EE010A10EE100A884202DD30EE600A64
:105AD000704710EE100A06498842F9D930EE200AC4
